{
	"Exercise4/TransferUSDC.sol": {
		"TransferUSDC": {
			"abi": [
				{
					"inputs": [
						{
							"internalType": "address",
							"name": "ccipRouter",
							"type": "address"
						},
						{
							"internalType": "address",
							"name": "linkToken",
							"type": "address"
						},
						{
							"internalType": "address",
							"name": "usdcToken",
							"type": "address"
						}
					],
					"stateMutability": "nonpayable",
					"type": "constructor"
				},
				{
					"inputs": [
						{
							"internalType": "uint64",
							"name": "destinationChainSelector",
							"type": "uint64"
						}
					],
					"name": "DestinationChainNotAllowlisted",
					"type": "error"
				},
				{
					"inputs": [
						{
							"internalType": "uint256",
							"name": "currentBalance",
							"type": "uint256"
						},
						{
							"internalType": "uint256",
							"name": "calculatedFees",
							"type": "uint256"
						}
					],
					"name": "NotEnoughBalance",
					"type": "error"
				},
				{
					"inputs": [],
					"name": "NothingToWithdraw",
					"type": "error"
				},
				{
					"anonymous": false,
					"inputs": [
						{
							"indexed": true,
							"internalType": "address",
							"name": "from",
							"type": "address"
						},
						{
							"indexed": true,
							"internalType": "address",
							"name": "to",
							"type": "address"
						}
					],
					"name": "OwnershipTransferRequested",
					"type": "event"
				},
				{
					"anonymous": false,
					"inputs": [
						{
							"indexed": true,
							"internalType": "address",
							"name": "from",
							"type": "address"
						},
						{
							"indexed": true,
							"internalType": "address",
							"name": "to",
							"type": "address"
						}
					],
					"name": "OwnershipTransferred",
					"type": "event"
				},
				{
					"anonymous": false,
					"inputs": [
						{
							"indexed": false,
							"internalType": "bytes32",
							"name": "messageId",
							"type": "bytes32"
						},
						{
							"indexed": false,
							"internalType": "uint64",
							"name": "destinationChainSelector",
							"type": "uint64"
						},
						{
							"indexed": false,
							"internalType": "address",
							"name": "receiver",
							"type": "address"
						},
						{
							"indexed": false,
							"internalType": "uint256",
							"name": "amount",
							"type": "uint256"
						},
						{
							"indexed": false,
							"internalType": "uint256",
							"name": "ccipFee",
							"type": "uint256"
						}
					],
					"name": "UsdcTransferred",
					"type": "event"
				},
				{
					"inputs": [],
					"name": "acceptOwnership",
					"outputs": [],
					"stateMutability": "nonpayable",
					"type": "function"
				},
				{
					"inputs": [
						{
							"internalType": "uint64",
							"name": "_destinationChainSelector",
							"type": "uint64"
						},
						{
							"internalType": "bool",
							"name": "_allowed",
							"type": "bool"
						}
					],
					"name": "allowlistDestinationChain",
					"outputs": [],
					"stateMutability": "nonpayable",
					"type": "function"
				},
				{
					"inputs": [
						{
							"internalType": "uint64",
							"name": "",
							"type": "uint64"
						}
					],
					"name": "allowlistedChains",
					"outputs": [
						{
							"internalType": "bool",
							"name": "",
							"type": "bool"
						}
					],
					"stateMutability": "view",
					"type": "function"
				},
				{
					"inputs": [],
					"name": "owner",
					"outputs": [
						{
							"internalType": "address",
							"name": "",
							"type": "address"
						}
					],
					"stateMutability": "view",
					"type": "function"
				},
				{
					"inputs": [
						{
							"internalType": "address",
							"name": "to",
							"type": "address"
						}
					],
					"name": "transferOwnership",
					"outputs": [],
					"stateMutability": "nonpayable",
					"type": "function"
				},
				{
					"inputs": [
						{
							"internalType": "uint64",
							"name": "_destinationChainSelector",
							"type": "uint64"
						},
						{
							"internalType": "address",
							"name": "_receiver",
							"type": "address"
						},
						{
							"internalType": "uint256",
							"name": "_amount",
							"type": "uint256"
						},
						{
							"internalType": "uint64",
							"name": "_gasLimit",
							"type": "uint64"
						}
					],
					"name": "transferUsdc",
					"outputs": [
						{
							"internalType": "bytes32",
							"name": "messageId",
							"type": "bytes32"
						}
					],
					"stateMutability": "nonpayable",
					"type": "function"
				},
				{
					"inputs": [
						{
							"internalType": "address",
							"name": "_beneficiary",
							"type": "address"
						},
						{
							"internalType": "address",
							"name": "_token",
							"type": "address"
						}
					],
					"name": "withdrawToken",
					"outputs": [],
					"stateMutability": "nonpayable",
					"type": "function"
				}
			],
			"devdoc": {
				"kind": "dev",
				"methods": {},
				"version": 1
			},
			"evm": {
				"assembly": "    /* \"Exercise4/TransferUSDC.sol\":782:4169  contract TransferUSDC is OwnerIsCreator {... */\n  mstore(0x40, 0xe0)\n    /* \"Exercise4/TransferUSDC.sol\":1663:1876  constructor(address ccipRouter, address linkToken, address usdcToken) {... */\n  callvalue\n  dup1\n  iszero\n  tag_1\n  jumpi\n  0x00\n  dup1\n  revert\ntag_1:\n  pop\n  mload(0x40)\n  sub(codesize, bytecodeSize)\n  dup1\n  bytecodeSize\n  dup4\n  codecopy\n  dup2\n  dup2\n  add\n  0x40\n  mstore\n  dup2\n  add\n  swap1\n  tag_2\n  swap2\n  swap1\n  tag_3\n  jump\t// in\ntag_2:\n    /* \"@chainlink/contracts-ccip/src/v0.8/shared/access/OwnerIsCreator.sol\":291:301  msg.sender */\n  caller\n    /* \"@chainlink/contracts-ccip/src/v0.8/shared/access/ConfirmedOwner.sol\":355:363  newOwner */\n  dup1\n    /* \"@chainlink/contracts-ccip/src/v0.8/shared/access/ConfirmedOwner.sol\":373:374  0 */\n  0x00\n    /* \"@chainlink/contracts-ccip/src/v0.8/shared/access/ConfirmedOwnerWithProposal.sol\":614:615  0 */\n  dup1\n    /* \"@chainlink/contracts-ccip/src/v0.8/shared/access/ConfirmedOwnerWithProposal.sol\":594:616  newOwner != address(0) */\n  0xffffffffffffffffffffffffffffffffffffffff\n  and\n    /* \"@chainlink/contracts-ccip/src/v0.8/shared/access/ConfirmedOwnerWithProposal.sol\":594:602  newOwner */\n  dup3\n    /* \"@chainlink/contracts-ccip/src/v0.8/shared/access/ConfirmedOwnerWithProposal.sol\":594:616  newOwner != address(0) */\n  0xffffffffffffffffffffffffffffffffffffffff\n  and\n  sub\n    /* \"@chainlink/contracts-ccip/src/v0.8/shared/access/ConfirmedOwnerWithProposal.sol\":586:645  require(newOwner != address(0), \"Cannot set owner to zero\") */\n  tag_9\n  jumpi\n  mload(0x40)\n  0x08c379a000000000000000000000000000000000000000000000000000000000\n  dup2\n  mstore\n  0x04\n  add\n  tag_10\n  swap1\n  tag_11\n  jump\t// in\ntag_10:\n  mload(0x40)\n  dup1\n  swap2\n  sub\n  swap1\n  revert\ntag_9:\n    /* \"@chainlink/contracts-ccip/src/v0.8/shared/access/ConfirmedOwnerWithProposal.sol\":662:670  newOwner */\n  dup2\n    /* \"@chainlink/contracts-ccip/src/v0.8/shared/access/ConfirmedOwnerWithProposal.sol\":652:659  s_owner */\n  0x00\n  dup1\n    /* \"@chainlink/contracts-ccip/src/v0.8/shared/access/ConfirmedOwnerWithProposal.sol\":652:670  s_owner = newOwner */\n  0x0100\n  exp\n  dup2\n  sload\n  dup2\n  0xffffffffffffffffffffffffffffffffffffffff\n  mul\n  not\n  and\n  swap1\n  dup4\n  0xffffffffffffffffffffffffffffffffffffffff\n  and\n  mul\n  or\n  swap1\n  sstore\n  pop\n    /* \"@chainlink/contracts-ccip/src/v0.8/shared/access/ConfirmedOwnerWithProposal.sol\":704:705  0 */\n  0x00\n    /* \"@chainlink/contracts-ccip/src/v0.8/shared/access/ConfirmedOwnerWithProposal.sol\":680:706  pendingOwner != address(0) */\n  0xffffffffffffffffffffffffffffffffffffffff\n  and\n    /* \"@chainlink/contracts-ccip/src/v0.8/shared/access/ConfirmedOwnerWithProposal.sol\":680:692  pendingOwner */\n  dup2\n    /* \"@chainlink/contracts-ccip/src/v0.8/shared/access/ConfirmedOwnerWithProposal.sol\":680:706  pendingOwner != address(0) */\n  0xffffffffffffffffffffffffffffffffffffffff\n  and\n  eq\n    /* \"@chainlink/contracts-ccip/src/v0.8/shared/access/ConfirmedOwnerWithProposal.sol\":676:755  if (pendingOwner != address(0)) {... */\n  tag_12\n  jumpi\n    /* \"@chainlink/contracts-ccip/src/v0.8/shared/access/ConfirmedOwnerWithProposal.sol\":716:748  _transferOwnership(pendingOwner) */\n  tag_13\n    /* \"@chainlink/contracts-ccip/src/v0.8/shared/access/ConfirmedOwnerWithProposal.sol\":735:747  pendingOwner */\n  dup2\n    /* \"@chainlink/contracts-ccip/src/v0.8/shared/access/ConfirmedOwnerWithProposal.sol\":716:734  _transferOwnership */\n  shl(0x20, tag_14)\n    /* \"@chainlink/contracts-ccip/src/v0.8/shared/access/ConfirmedOwnerWithProposal.sol\":716:748  _transferOwnership(pendingOwner) */\n  0x20\n  shr\n  jump\t// in\ntag_13:\n    /* \"@chainlink/contracts-ccip/src/v0.8/shared/access/ConfirmedOwnerWithProposal.sol\":676:755  if (pendingOwner != address(0)) {... */\ntag_12:\n    /* \"@chainlink/contracts-ccip/src/v0.8/shared/access/ConfirmedOwnerWithProposal.sol\":481:759  constructor(address newOwner, address pendingOwner) {... */\n  pop\n  pop\n    /* \"@chainlink/contracts-ccip/src/v0.8/shared/access/ConfirmedOwner.sol\":298:379  constructor(address newOwner) ConfirmedOwnerWithProposal(newOwner, address(0)) {} */\n  pop\n    /* \"Exercise4/TransferUSDC.sol\":1773:1783  ccipRouter */\n  dup3\n    /* \"Exercise4/TransferUSDC.sol\":1744:1784  i_ccipRouter = IRouterClient(ccipRouter) */\n  0xffffffffffffffffffffffffffffffffffffffff\n  and\n  0x80\n  dup2\n  0xffffffffffffffffffffffffffffffffffffffff\n  and\n  dup2\n  mstore\n  pop\n  pop\n    /* \"Exercise4/TransferUSDC.sol\":1816:1825  linkToken */\n  dup2\n    /* \"Exercise4/TransferUSDC.sol\":1795:1826  i_linkToken = IERC20(linkToken) */\n  0xffffffffffffffffffffffffffffffffffffffff\n  and\n  0xa0\n  dup2\n  0xffffffffffffffffffffffffffffffffffffffff\n  and\n  dup2\n  mstore\n  pop\n  pop\n    /* \"Exercise4/TransferUSDC.sol\":1858:1867  usdcToken */\n  dup1\n    /* \"Exercise4/TransferUSDC.sol\":1837:1868  i_usdcToken = IERC20(usdcToken) */\n  0xffffffffffffffffffffffffffffffffffffffff\n  and\n  0xc0\n  dup2\n  0xffffffffffffffffffffffffffffffffffffffff\n  and\n  dup2\n  mstore\n  pop\n  pop\n    /* \"Exercise4/TransferUSDC.sol\":1663:1876  constructor(address ccipRouter, address linkToken, address usdcToken) {... */\n  pop\n  pop\n  pop\n    /* \"Exercise4/TransferUSDC.sol\":782:4169  contract TransferUSDC is OwnerIsCreator {... */\n  jump(tag_18)\n    /* \"@chainlink/contracts-ccip/src/v0.8/shared/access/ConfirmedOwnerWithProposal.sol\":1528:1763  function _transferOwnership(address to) private {... */\ntag_14:\n    /* \"@chainlink/contracts-ccip/src/v0.8/shared/access/ConfirmedOwnerWithProposal.sol\":1643:1653  msg.sender */\n  caller\n    /* \"@chainlink/contracts-ccip/src/v0.8/shared/access/ConfirmedOwnerWithProposal.sol\":1637:1653  to != msg.sender */\n  0xffffffffffffffffffffffffffffffffffffffff\n  and\n    /* \"@chainlink/contracts-ccip/src/v0.8/shared/access/ConfirmedOwnerWithProposal.sol\":1637:1639  to */\n  dup2\n    /* \"@chainlink/contracts-ccip/src/v0.8/shared/access/ConfirmedOwnerWithProposal.sol\":1637:1653  to != msg.sender */\n  0xffffffffffffffffffffffffffffffffffffffff\n  and\n  sub\n    /* \"@chainlink/contracts-ccip/src/v0.8/shared/access/ConfirmedOwnerWithProposal.sol\":1629:1681  require(to != msg.sender, \"Cannot transfer to self\") */\n  tag_20\n  jumpi\n  mload(0x40)\n  0x08c379a000000000000000000000000000000000000000000000000000000000\n  dup2\n  mstore\n  0x04\n  add\n  tag_21\n  swap1\n  tag_22\n  jump\t// in\ntag_21:\n  mload(0x40)\n  dup1\n  swap2\n  sub\n  swap1\n  revert\ntag_20:\n    /* \"@chainlink/contracts-ccip/src/v0.8/shared/access/ConfirmedOwnerWithProposal.sol\":1705:1707  to */\n  dup1\n    /* \"@chainlink/contracts-ccip/src/v0.8/shared/access/ConfirmedOwnerWithProposal.sol\":1688:1702  s_pendingOwner */\n  0x01\n  0x00\n    /* \"@chainlink/contracts-ccip/src/v0.8/shared/access/ConfirmedOwnerWithProposal.sol\":1688:1707  s_pendingOwner = to */\n  0x0100\n  exp\n  dup2\n  sload\n  dup2\n  0xffffffffffffffffffffffffffffffffffffffff\n  mul\n  not\n  and\n  swap1\n  dup4\n  0xffffffffffffffffffffffffffffffffffffffff\n  and\n  mul\n  or\n  swap1\n  sstore\n  pop\n    /* \"@chainlink/contracts-ccip/src/v0.8/shared/access/ConfirmedOwnerWithProposal.sol\":1755:1757  to */\n  dup1\n    /* \"@chainlink/contracts-ccip/src/v0.8/shared/access/ConfirmedOwnerWithProposal.sol\":1719:1758  OwnershipTransferRequested(s_owner, to) */\n  0xffffffffffffffffffffffffffffffffffffffff\n  and\n    /* \"@chainlink/contracts-ccip/src/v0.8/shared/access/ConfirmedOwnerWithProposal.sol\":1746:1753  s_owner */\n  0x00\n  dup1\n  sload\n  swap1\n  0x0100\n  exp\n  swap1\n  div\n  0xffffffffffffffffffffffffffffffffffffffff\n  and\n    /* \"@chainlink/contracts-ccip/src/v0.8/shared/access/ConfirmedOwnerWithProposal.sol\":1719:1758  OwnershipTransferRequested(s_owner, to) */\n  0xffffffffffffffffffffffffffffffffffffffff\n  and\n  0xed8889f560326eb138920d842192f0eb3dd22b4f139c87a2c57538e05bae1278\n  mload(0x40)\n  mload(0x40)\n  dup1\n  swap2\n  sub\n  swap1\n  log3\n    /* \"@chainlink/contracts-ccip/src/v0.8/shared/access/ConfirmedOwnerWithProposal.sol\":1528:1763  function _transferOwnership(address to) private {... */\n  pop\n  jump\t// out\n    /* \"#utility.yul\":88:205   */\ntag_24:\n    /* \"#utility.yul\":197:198   */\n  0x00\n    /* \"#utility.yul\":194:195   */\n  dup1\n    /* \"#utility.yul\":187:199   */\n  revert\n    /* \"#utility.yul\":334:460   */\ntag_26:\n    /* \"#utility.yul\":371:378   */\n  0x00\n    /* \"#utility.yul\":411:453   */\n  0xffffffffffffffffffffffffffffffffffffffff\n    /* \"#utility.yul\":404:409   */\n  dup3\n    /* \"#utility.yul\":400:454   */\n  and\n    /* \"#utility.yul\":389:454   */\n  swap1\n  pop\n    /* \"#utility.yul\":334:460   */\n  swap2\n  swap1\n  pop\n  jump\t// out\n    /* \"#utility.yul\":466:562   */\ntag_27:\n    /* \"#utility.yul\":503:510   */\n  0x00\n    /* \"#utility.yul\":532:556   */\n  tag_41\n    /* \"#utility.yul\":550:555   */\n  dup3\n    /* \"#utility.yul\":532:556   */\n  tag_26\n  jump\t// in\ntag_41:\n    /* \"#utility.yul\":521:556   */\n  swap1\n  pop\n    /* \"#utility.yul\":466:562   */\n  swap2\n  swap1\n  pop\n  jump\t// out\n    /* \"#utility.yul\":568:690   */\ntag_28:\n    /* \"#utility.yul\":641:665   */\n  tag_43\n    /* \"#utility.yul\":659:664   */\n  dup2\n    /* \"#utility.yul\":641:665   */\n  tag_27\n  jump\t// in\ntag_43:\n    /* \"#utility.yul\":634:639   */\n  dup2\n    /* \"#utility.yul\":631:666   */\n  eq\n    /* \"#utility.yul\":621:684   */\n  tag_44\n  jumpi\n    /* \"#utility.yul\":680:681   */\n  0x00\n    /* \"#utility.yul\":677:678   */\n  dup1\n    /* \"#utility.yul\":670:682   */\n  revert\n    /* \"#utility.yul\":621:684   */\ntag_44:\n    /* \"#utility.yul\":568:690   */\n  pop\n  jump\t// out\n    /* \"#utility.yul\":696:839   */\ntag_29:\n    /* \"#utility.yul\":753:758   */\n  0x00\n    /* \"#utility.yul\":784:790   */\n  dup2\n    /* \"#utility.yul\":778:791   */\n  mload\n    /* \"#utility.yul\":769:791   */\n  swap1\n  pop\n    /* \"#utility.yul\":800:833   */\n  tag_46\n    /* \"#utility.yul\":827:832   */\n  dup2\n    /* \"#utility.yul\":800:833   */\n  tag_28\n  jump\t// in\ntag_46:\n    /* \"#utility.yul\":696:839   */\n  swap3\n  swap2\n  pop\n  pop\n  jump\t// out\n    /* \"#utility.yul\":845:1508   */\ntag_3:\n    /* \"#utility.yul\":933:939   */\n  0x00\n    /* \"#utility.yul\":941:947   */\n  dup1\n    /* \"#utility.yul\":949:955   */\n  0x00\n    /* \"#utility.yul\":998:1000   */\n  0x60\n    /* \"#utility.yul\":986:995   */\n  dup5\n    /* \"#utility.yul\":977:984   */\n  dup7\n    /* \"#utility.yul\":973:996   */\n  sub\n    /* \"#utility.yul\":969:1001   */\n  slt\n    /* \"#utility.yul\":966:1085   */\n  iszero\n  tag_48\n  jumpi\n    /* \"#utility.yul\":1004:1083   */\n  tag_49\n  tag_24\n  jump\t// in\ntag_49:\n    /* \"#utility.yul\":966:1085   */\ntag_48:\n    /* \"#utility.yul\":1124:1125   */\n  0x00\n    /* \"#utility.yul\":1149:1213   */\n  tag_50\n    /* \"#utility.yul\":1205:1212   */\n  dup7\n    /* \"#utility.yul\":1196:1202   */\n  dup3\n    /* \"#utility.yul\":1185:1194   */\n  dup8\n    /* \"#utility.yul\":1181:1203   */\n  add\n    /* \"#utility.yul\":1149:1213   */\n  tag_29\n  jump\t// in\ntag_50:\n    /* \"#utility.yul\":1139:1213   */\n  swap4\n  pop\n    /* \"#utility.yul\":1095:1223   */\n  pop\n    /* \"#utility.yul\":1262:1264   */\n  0x20\n    /* \"#utility.yul\":1288:1352   */\n  tag_51\n    /* \"#utility.yul\":1344:1351   */\n  dup7\n    /* \"#utility.yul\":1335:1341   */\n  dup3\n    /* \"#utility.yul\":1324:1333   */\n  dup8\n    /* \"#utility.yul\":1320:1342   */\n  add\n    /* \"#utility.yul\":1288:1352   */\n  tag_29\n  jump\t// in\ntag_51:\n    /* \"#utility.yul\":1278:1352   */\n  swap3\n  pop\n    /* \"#utility.yul\":1233:1362   */\n  pop\n    /* \"#utility.yul\":1401:1403   */\n  0x40\n    /* \"#utility.yul\":1427:1491   */\n  tag_52\n    /* \"#utility.yul\":1483:1490   */\n  dup7\n    /* \"#utility.yul\":1474:1480   */\n  dup3\n    /* \"#utility.yul\":1463:1472   */\n  dup8\n    /* \"#utility.yul\":1459:1481   */\n  add\n    /* \"#utility.yul\":1427:1491   */\n  tag_29\n  jump\t// in\ntag_52:\n    /* \"#utility.yul\":1417:1491   */\n  swap2\n  pop\n    /* \"#utility.yul\":1372:1501   */\n  pop\n    /* \"#utility.yul\":845:1508   */\n  swap3\n  pop\n  swap3\n  pop\n  swap3\n  jump\t// out\n    /* \"#utility.yul\":1514:1683   */\ntag_30:\n    /* \"#utility.yul\":1598:1609   */\n  0x00\n    /* \"#utility.yul\":1632:1638   */\n  dup3\n    /* \"#utility.yul\":1627:1630   */\n  dup3\n    /* \"#utility.yul\":1620:1639   */\n  mstore\n    /* \"#utility.yul\":1672:1676   */\n  0x20\n    /* \"#utility.yul\":1667:1670   */\n  dup3\n    /* \"#utility.yul\":1663:1677   */\n  add\n    /* \"#utility.yul\":1648:1677   */\n  swap1\n  pop\n    /* \"#utility.yul\":1514:1683   */\n  swap3\n  swap2\n  pop\n  pop\n  jump\t// out\n    /* \"#utility.yul\":1689:1863   */\ntag_31:\n    /* \"#utility.yul\":1829:1855   */\n  0x43616e6e6f7420736574206f776e657220746f207a65726f0000000000000000\n    /* \"#utility.yul\":1825:1826   */\n  0x00\n    /* \"#utility.yul\":1817:1823   */\n  dup3\n    /* \"#utility.yul\":1813:1827   */\n  add\n    /* \"#utility.yul\":1806:1856   */\n  mstore\n    /* \"#utility.yul\":1689:1863   */\n  pop\n  jump\t// out\n    /* \"#utility.yul\":1869:2235   */\ntag_32:\n    /* \"#utility.yul\":2011:2014   */\n  0x00\n    /* \"#utility.yul\":2032:2099   */\n  tag_56\n    /* \"#utility.yul\":2096:2098   */\n  0x18\n    /* \"#utility.yul\":2091:2094   */\n  dup4\n    /* \"#utility.yul\":2032:2099   */\n  tag_30\n  jump\t// in\ntag_56:\n    /* \"#utility.yul\":2025:2099   */\n  swap2\n  pop\n    /* \"#utility.yul\":2108:2201   */\n  tag_57\n    /* \"#utility.yul\":2197:2200   */\n  dup3\n    /* \"#utility.yul\":2108:2201   */\n  tag_31\n  jump\t// in\ntag_57:\n    /* \"#utility.yul\":2226:2228   */\n  0x20\n    /* \"#utility.yul\":2221:2224   */\n  dup3\n    /* \"#utility.yul\":2217:2229   */\n  add\n    /* \"#utility.yul\":2210:2229   */\n  swap1\n  pop\n    /* \"#utility.yul\":1869:2235   */\n  swap2\n  swap1\n  pop\n  jump\t// out\n    /* \"#utility.yul\":2241:2660   */\ntag_11:\n    /* \"#utility.yul\":2407:2411   */\n  0x00\n    /* \"#utility.yul\":2445:2447   */\n  0x20\n    /* \"#utility.yul\":2434:2443   */\n  dup3\n    /* \"#utility.yul\":2430:2448   */\n  add\n    /* \"#utility.yul\":2422:2448   */\n  swap1\n  pop\n    /* \"#utility.yul\":2494:2503   */\n  dup2\n    /* \"#utility.yul\":2488:2492   */\n  dup2\n    /* \"#utility.yul\":2484:2504   */\n  sub\n    /* \"#utility.yul\":2480:2481   */\n  0x00\n    /* \"#utility.yul\":2469:2478   */\n  dup4\n    /* \"#utility.yul\":2465:2482   */\n  add\n    /* \"#utility.yul\":2458:2505   */\n  mstore\n    /* \"#utility.yul\":2522:2653   */\n  tag_59\n    /* \"#utility.yul\":2648:2652   */\n  dup2\n    /* \"#utility.yul\":2522:2653   */\n  tag_32\n  jump\t// in\ntag_59:\n    /* \"#utility.yul\":2514:2653   */\n  swap1\n  pop\n    /* \"#utility.yul\":2241:2660   */\n  swap2\n  swap1\n  pop\n  jump\t// out\n    /* \"#utility.yul\":2666:2839   */\ntag_33:\n    /* \"#utility.yul\":2806:2831   */\n  0x43616e6e6f74207472616e7366657220746f2073656c66000000000000000000\n    /* \"#utility.yul\":2802:2803   */\n  0x00\n    /* \"#utility.yul\":2794:2800   */\n  dup3\n    /* \"#utility.yul\":2790:2804   */\n  add\n    /* \"#utility.yul\":2783:2832   */\n  mstore\n    /* \"#utility.yul\":2666:2839   */\n  pop\n  jump\t// out\n    /* \"#utility.yul\":2845:3211   */\ntag_34:\n    /* \"#utility.yul\":2987:2990   */\n  0x00\n    /* \"#utility.yul\":3008:3075   */\n  tag_62\n    /* \"#utility.yul\":3072:3074   */\n  0x17\n    /* \"#utility.yul\":3067:3070   */\n  dup4\n    /* \"#utility.yul\":3008:3075   */\n  tag_30\n  jump\t// in\ntag_62:\n    /* \"#utility.yul\":3001:3075   */\n  swap2\n  pop\n    /* \"#utility.yul\":3084:3177   */\n  tag_63\n    /* \"#utility.yul\":3173:3176   */\n  dup3\n    /* \"#utility.yul\":3084:3177   */\n  tag_33\n  jump\t// in\ntag_63:\n    /* \"#utility.yul\":3202:3204   */\n  0x20\n    /* \"#utility.yul\":3197:3200   */\n  dup3\n    /* \"#utility.yul\":3193:3205   */\n  add\n    /* \"#utility.yul\":3186:3205   */\n  swap1\n  pop\n    /* \"#utility.yul\":2845:3211   */\n  swap2\n  swap1\n  pop\n  jump\t// out\n    /* \"#utility.yul\":3217:3636   */\ntag_22:\n    /* \"#utility.yul\":3383:3387   */\n  0x00\n    /* \"#utility.yul\":3421:3423   */\n  0x20\n    /* \"#utility.yul\":3410:3419   */\n  dup3\n    /* \"#utility.yul\":3406:3424   */\n  add\n    /* \"#utility.yul\":3398:3424   */\n  swap1\n  pop\n    /* \"#utility.yul\":3470:3479   */\n  dup2\n    /* \"#utility.yul\":3464:3468   */\n  dup2\n    /* \"#utility.yul\":3460:3480   */\n  sub\n    /* \"#utility.yul\":3456:3457   */\n  0x00\n    /* \"#utility.yul\":3445:3454   */\n  dup4\n    /* \"#utility.yul\":3441:3458   */\n  add\n    /* \"#utility.yul\":3434:3481   */\n  mstore\n    /* \"#utility.yul\":3498:3629   */\n  tag_65\n    /* \"#utility.yul\":3624:3628   */\n  dup2\n    /* \"#utility.yul\":3498:3629   */\n  tag_34\n  jump\t// in\ntag_65:\n    /* \"#utility.yul\":3490:3629   */\n  swap1\n  pop\n    /* \"#utility.yul\":3217:3636   */\n  swap2\n  swap1\n  pop\n  jump\t// out\n    /* \"Exercise4/TransferUSDC.sol\":782:4169  contract TransferUSDC is OwnerIsCreator {... */\ntag_18:\n  mload(0x80)\n  mload(0xa0)\n  mload(0xc0)\n  codecopy(0x00, dataOffset(sub_0), dataSize(sub_0))\n  0x00\n  assignImmutable(\"0x2a6aab4fdfd18c6d38f5500d81516e86b5a3456f684d6c8d85f2571a4c8118d6\")\n  0x00\n  assignImmutable(\"0x7accbde6ceb84317f73cf616046161b2827a9ee871490b0c927c2024ef305ecf\")\n  0x00\n  assignImmutable(\"0xb295767e4372fab13e4b033e3e01af68982526b3673a0d3e0a82574a5cefaf62\")\n  return(0x00, dataSize(sub_0))\nstop\n\nsub_0: assembly {\n        /* \"Exercise4/TransferUSDC.sol\":782:4169  contract TransferUSDC is OwnerIsCreator {... */\n      mstore(0x40, 0x80)\n      callvalue\n      dup1\n      iszero\n      tag_1\n      jumpi\n      0x00\n      dup1\n      revert\n    tag_1:\n      pop\n      jumpi(tag_2, lt(calldatasize, 0x04))\n      shr(0xe0, calldataload(0x00))\n      dup1\n      0x79ba5097\n      gt\n      tag_10\n      jumpi\n      dup1\n      0x79ba5097\n      eq\n      tag_6\n      jumpi\n      dup1\n      0x8da5cb5b\n      eq\n      tag_7\n      jumpi\n      dup1\n      0x96d3b83d\n      eq\n      tag_8\n      jumpi\n      dup1\n      0xf2fde38b\n      eq\n      tag_9\n      jumpi\n      jump(tag_2)\n    tag_10:\n      dup1\n      0x0bb106eb\n      eq\n      tag_3\n      jumpi\n      dup1\n      0x3aeac4e1\n      eq\n      tag_4\n      jumpi\n      dup1\n      0x6b83161a\n      eq\n      tag_5\n      jumpi\n    tag_2:\n      0x00\n      dup1\n      revert\n        /* \"Exercise4/TransferUSDC.sol\":1190:1238  mapping(uint64 => bool) public allowlistedChains */\n    tag_3:\n      tag_11\n      0x04\n      dup1\n      calldatasize\n      sub\n      dup2\n      add\n      swap1\n      tag_12\n      swap2\n      swap1\n      tag_13\n      jump\t// in\n    tag_12:\n      tag_14\n      jump\t// in\n    tag_11:\n      mload(0x40)\n      tag_15\n      swap2\n      swap1\n      tag_16\n      jump\t// in\n    tag_15:\n      mload(0x40)\n      dup1\n      swap2\n      sub\n      swap1\n      return\n        /* \"Exercise4/TransferUSDC.sol\":3874:4166  function withdrawToken(... */\n    tag_4:\n      tag_17\n      0x04\n      dup1\n      calldatasize\n      sub\n      dup2\n      add\n      swap1\n      tag_18\n      swap2\n      swap1\n      tag_19\n      jump\t// in\n    tag_18:\n      tag_20\n      jump\t// in\n    tag_17:\n      stop\n        /* \"Exercise4/TransferUSDC.sol\":2094:3866  function transferUsdc(... */\n    tag_5:\n      tag_21\n      0x04\n      dup1\n      calldatasize\n      sub\n      dup2\n      add\n      swap1\n      tag_22\n      swap2\n      swap1\n      tag_23\n      jump\t// in\n    tag_22:\n      tag_24\n      jump\t// in\n    tag_21:\n      mload(0x40)\n      tag_25\n      swap2\n      swap1\n      tag_26\n      jump\t// in\n    tag_25:\n      mload(0x40)\n      dup1\n      swap2\n      sub\n      swap1\n      return\n        /* \"@chainlink/contracts-ccip/src/v0.8/shared/access/ConfirmedOwnerWithProposal.sol\":1022:1334  function acceptOwnership() external override {... */\n    tag_6:\n      tag_27\n      tag_28\n      jump\t// in\n    tag_27:\n      stop\n        /* \"@chainlink/contracts-ccip/src/v0.8/shared/access/ConfirmedOwnerWithProposal.sol\":1374:1455  function owner() public view override returns (address) {... */\n    tag_7:\n      tag_29\n      tag_30\n      jump\t// in\n    tag_29:\n      mload(0x40)\n      tag_31\n      swap2\n      swap1\n      tag_32\n      jump\t// in\n    tag_31:\n      mload(0x40)\n      dup1\n      swap2\n      sub\n      swap1\n      return\n        /* \"Exercise4/TransferUSDC.sol\":1884:2086  function allowlistDestinationChain(... */\n    tag_8:\n      tag_33\n      0x04\n      dup1\n      calldatasize\n      sub\n      dup2\n      add\n      swap1\n      tag_34\n      swap2\n      swap1\n      tag_35\n      jump\t// in\n    tag_34:\n      tag_36\n      jump\t// in\n    tag_33:\n      stop\n        /* \"@chainlink/contracts-ccip/src/v0.8/shared/access/ConfirmedOwnerWithProposal.sol\":843:941  function transferOwnership(address to) public override onlyOwner {... */\n    tag_9:\n      tag_37\n      0x04\n      dup1\n      calldatasize\n      sub\n      dup2\n      add\n      swap1\n      tag_38\n      swap2\n      swap1\n      tag_39\n      jump\t// in\n    tag_38:\n      tag_40\n      jump\t// in\n    tag_37:\n      stop\n        /* \"Exercise4/TransferUSDC.sol\":1190:1238  mapping(uint64 => bool) public allowlistedChains */\n    tag_14:\n      mstore(0x20, 0x02)\n      dup1\n      0x00\n      mstore\n      keccak256(0x00, 0x40)\n      0x00\n      swap2\n      pop\n      sload\n      swap1\n      0x0100\n      exp\n      swap1\n      div\n      0xff\n      and\n      dup2\n      jump\t// out\n        /* \"Exercise4/TransferUSDC.sol\":3874:4166  function withdrawToken(... */\n    tag_20:\n        /* \"@chainlink/contracts-ccip/src/v0.8/shared/access/ConfirmedOwnerWithProposal.sol\":2059:2079  _validateOwnership() */\n      tag_42\n        /* \"@chainlink/contracts-ccip/src/v0.8/shared/access/ConfirmedOwnerWithProposal.sol\":2059:2077  _validateOwnership */\n      tag_43\n        /* \"@chainlink/contracts-ccip/src/v0.8/shared/access/ConfirmedOwnerWithProposal.sol\":2059:2079  _validateOwnership() */\n      jump\t// in\n    tag_42:\n        /* \"Exercise4/TransferUSDC.sol\":3988:4002  uint256 amount */\n      0x00\n        /* \"Exercise4/TransferUSDC.sol\":4012:4018  _token */\n      dup2\n        /* \"Exercise4/TransferUSDC.sol\":4005:4029  IERC20(_token).balanceOf */\n      0xffffffffffffffffffffffffffffffffffffffff\n      and\n      0x70a08231\n        /* \"Exercise4/TransferUSDC.sol\":4038:4042  this */\n      address\n        /* \"Exercise4/TransferUSDC.sol\":4005:4044  IERC20(_token).balanceOf(address(this)) */\n      mload(0x40)\n      dup3\n      0xffffffff\n      and\n      0xe0\n      shl\n      dup2\n      mstore\n      0x04\n      add\n      tag_45\n      swap2\n      swap1\n      tag_32\n      jump\t// in\n    tag_45:\n      0x20\n      mload(0x40)\n      dup1\n      dup4\n      sub\n      dup2\n      dup7\n      gas\n      staticcall\n      iszero\n      dup1\n      iszero\n      tag_47\n      jumpi\n      returndatasize\n      0x00\n      dup1\n      returndatacopy\n      revert(0x00, returndatasize)\n    tag_47:\n      pop\n      pop\n      pop\n      pop\n      mload(0x40)\n      returndatasize\n      not(0x1f)\n      0x1f\n      dup3\n      add\n      and\n      dup3\n      add\n      dup1\n      0x40\n      mstore\n      pop\n      dup2\n      add\n      swap1\n      tag_48\n      swap2\n      swap1\n      tag_49\n      jump\t// in\n    tag_48:\n        /* \"Exercise4/TransferUSDC.sol\":3988:4044  uint256 amount = IERC20(_token).balanceOf(address(this)) */\n      swap1\n      pop\n        /* \"Exercise4/TransferUSDC.sol\":4071:4072  0 */\n      0x00\n        /* \"Exercise4/TransferUSDC.sol\":4061:4067  amount */\n      dup2\n        /* \"Exercise4/TransferUSDC.sol\":4061:4072  amount == 0 */\n      sub\n        /* \"Exercise4/TransferUSDC.sol\":4057:4100  if (amount == 0) revert NothingToWithdraw() */\n      tag_50\n      jumpi\n        /* \"Exercise4/TransferUSDC.sol\":4081:4100  NothingToWithdraw() */\n      mload(0x40)\n      0xd0d04f6000000000000000000000000000000000000000000000000000000000\n      dup2\n      mstore\n      0x04\n      add\n      mload(0x40)\n      dup1\n      swap2\n      sub\n      swap1\n      revert\n        /* \"Exercise4/TransferUSDC.sol\":4057:4100  if (amount == 0) revert NothingToWithdraw() */\n    tag_50:\n        /* \"Exercise4/TransferUSDC.sol\":4120:4126  _token */\n      dup2\n        /* \"Exercise4/TransferUSDC.sol\":4113:4136  IERC20(_token).transfer */\n      0xffffffffffffffffffffffffffffffffffffffff\n      and\n      0xa9059cbb\n        /* \"Exercise4/TransferUSDC.sol\":4137:4149  _beneficiary */\n      dup5\n        /* \"Exercise4/TransferUSDC.sol\":4151:4157  amount */\n      dup4\n        /* \"Exercise4/TransferUSDC.sol\":4113:4158  IERC20(_token).transfer(_beneficiary, amount) */\n      mload(0x40)\n      dup4\n      0xffffffff\n      and\n      0xe0\n      shl\n      dup2\n      mstore\n      0x04\n      add\n      tag_51\n      swap3\n      swap2\n      swap1\n      tag_52\n      jump\t// in\n    tag_51:\n      0x20\n      mload(0x40)\n      dup1\n      dup4\n      sub\n      dup2\n      0x00\n      dup8\n      gas\n      call\n      iszero\n      dup1\n      iszero\n      tag_54\n      jumpi\n      returndatasize\n      0x00\n      dup1\n      returndatacopy\n      revert(0x00, returndatasize)\n    tag_54:\n      pop\n      pop\n      pop\n      pop\n      mload(0x40)\n      returndatasize\n      not(0x1f)\n      0x1f\n      dup3\n      add\n      and\n      dup3\n      add\n      dup1\n      0x40\n      mstore\n      pop\n      dup2\n      add\n      swap1\n      tag_55\n      swap2\n      swap1\n      tag_56\n      jump\t// in\n    tag_55:\n      pop\n        /* \"Exercise4/TransferUSDC.sol\":3977:4166  {... */\n      pop\n        /* \"Exercise4/TransferUSDC.sol\":3874:4166  function withdrawToken(... */\n      pop\n      pop\n      jump\t// out\n        /* \"Exercise4/TransferUSDC.sol\":2094:3866  function transferUsdc(... */\n    tag_24:\n        /* \"Exercise4/TransferUSDC.sol\":2359:2376  bytes32 messageId */\n      0x00\n        /* \"@chainlink/contracts-ccip/src/v0.8/shared/access/ConfirmedOwnerWithProposal.sol\":2059:2079  _validateOwnership() */\n      tag_58\n        /* \"@chainlink/contracts-ccip/src/v0.8/shared/access/ConfirmedOwnerWithProposal.sol\":2059:2077  _validateOwnership */\n      tag_43\n        /* \"@chainlink/contracts-ccip/src/v0.8/shared/access/ConfirmedOwnerWithProposal.sol\":2059:2079  _validateOwnership() */\n      jump\t// in\n    tag_58:\n        /* \"Exercise4/TransferUSDC.sol\":2314:2339  _destinationChainSelector */\n      dup5\n        /* \"Exercise4/TransferUSDC.sol\":1327:1344  allowlistedChains */\n      0x02\n        /* \"Exercise4/TransferUSDC.sol\":1327:1371  allowlistedChains[_destinationChainSelector] */\n      0x00\n        /* \"Exercise4/TransferUSDC.sol\":1345:1370  _destinationChainSelector */\n      dup3\n        /* \"Exercise4/TransferUSDC.sol\":1327:1371  allowlistedChains[_destinationChainSelector] */\n      0xffffffffffffffff\n      and\n      0xffffffffffffffff\n      and\n      dup2\n      mstore\n      0x20\n      add\n      swap1\n      dup2\n      mstore\n      0x20\n      add\n      0x00\n      keccak256\n      0x00\n      swap1\n      sload\n      swap1\n      0x0100\n      exp\n      swap1\n      div\n      0xff\n      and\n        /* \"Exercise4/TransferUSDC.sol\":1322:1450  if (!allowlistedChains[_destinationChainSelector])... */\n      tag_60\n      jumpi\n        /* \"Exercise4/TransferUSDC.sol\":1424:1449  _destinationChainSelector */\n      dup1\n        /* \"Exercise4/TransferUSDC.sol\":1393:1450  DestinationChainNotAllowlisted(_destinationChainSelector) */\n      mload(0x40)\n      0x0a503cdb00000000000000000000000000000000000000000000000000000000\n      dup2\n      mstore\n      0x04\n      add\n      tag_61\n      swap2\n      swap1\n      tag_62\n      jump\t// in\n    tag_61:\n      mload(0x40)\n      dup1\n      swap2\n      sub\n      swap1\n      revert\n        /* \"Exercise4/TransferUSDC.sol\":1322:1450  if (!allowlistedChains[_destinationChainSelector])... */\n    tag_60:\n        /* \"Exercise4/TransferUSDC.sol\":2394:2450  Client.EVMTokenAmount[]... */\n      0x00\n        /* \"Exercise4/TransferUSDC.sol\":2481:2482  1 */\n      0x01\n        /* \"Exercise4/TransferUSDC.sol\":2453:2483  new Client.EVMTokenAmount[](1) */\n      0xffffffffffffffff\n      dup2\n      gt\n      iszero\n      tag_64\n      jumpi\n      tag_65\n      tag_66\n      jump\t// in\n    tag_65:\n    tag_64:\n      mload(0x40)\n      swap1\n      dup1\n      dup3\n      mstore\n      dup1\n      0x20\n      mul\n      0x20\n      add\n      dup3\n      add\n      0x40\n      mstore\n      dup1\n      iszero\n      tag_67\n      jumpi\n      dup2\n      0x20\n      add\n    tag_68:\n      tag_69\n      tag_70\n      jump\t// in\n    tag_69:\n      dup2\n      mstore\n      0x20\n      add\n      swap1\n      0x01\n      swap1\n      sub\n      swap1\n      dup2\n      tag_68\n      jumpi\n      swap1\n      pop\n    tag_67:\n      pop\n        /* \"Exercise4/TransferUSDC.sol\":2394:2483  Client.EVMTokenAmount[]... */\n      swap1\n      pop\n        /* \"Exercise4/TransferUSDC.sol\":2494:2534  Client.EVMTokenAmount memory tokenAmount */\n      0x00\n        /* \"Exercise4/TransferUSDC.sol\":2537:2643  Client.EVMTokenAmount({... */\n      mload(0x40)\n      dup1\n      0x40\n      add\n      0x40\n      mstore\n      dup1\n        /* \"Exercise4/TransferUSDC.sol\":2589:2600  i_usdcToken */\n      immutable(\"0x2a6aab4fdfd18c6d38f5500d81516e86b5a3456f684d6c8d85f2571a4c8118d6\")\n        /* \"Exercise4/TransferUSDC.sol\":2537:2643  Client.EVMTokenAmount({... */\n      0xffffffffffffffffffffffffffffffffffffffff\n      and\n      dup2\n      mstore\n      0x20\n      add\n        /* \"Exercise4/TransferUSDC.sol\":2624:2631  _amount */\n      dup8\n        /* \"Exercise4/TransferUSDC.sol\":2537:2643  Client.EVMTokenAmount({... */\n      dup2\n      mstore\n      pop\n        /* \"Exercise4/TransferUSDC.sol\":2494:2643  Client.EVMTokenAmount memory tokenAmount = Client.EVMTokenAmount({... */\n      swap1\n      pop\n        /* \"Exercise4/TransferUSDC.sol\":2672:2683  tokenAmount */\n      dup1\n        /* \"Exercise4/TransferUSDC.sol\":2654:2666  tokenAmounts */\n      dup3\n        /* \"Exercise4/TransferUSDC.sol\":2667:2668  0 */\n      0x00\n        /* \"Exercise4/TransferUSDC.sol\":2654:2669  tokenAmounts[0] */\n      dup2\n      mload\n      dup2\n      lt\n      tag_71\n      jumpi\n      tag_72\n      tag_73\n      jump\t// in\n    tag_72:\n    tag_71:\n      0x20\n      mul\n      0x20\n      add\n      add\n        /* \"Exercise4/TransferUSDC.sol\":2654:2683  tokenAmounts[0] = tokenAmount */\n      dup2\n      swap1\n      mstore\n      pop\n        /* \"Exercise4/TransferUSDC.sol\":2696:2732  Client.EVM2AnyMessage memory message */\n      0x00\n        /* \"Exercise4/TransferUSDC.sol\":2735:3047  Client.EVM2AnyMessage({... */\n      mload(0x40)\n      dup1\n      0xa0\n      add\n      0x40\n      mstore\n      dup1\n        /* \"Exercise4/TransferUSDC.sol\":2793:2802  _receiver */\n      dup10\n        /* \"Exercise4/TransferUSDC.sol\":2782:2803  abi.encode(_receiver) */\n      add(0x20, mload(0x40))\n      tag_74\n      swap2\n      swap1\n      tag_32\n      jump\t// in\n    tag_74:\n      mload(0x40)\n      0x20\n      dup2\n      dup4\n      sub\n      sub\n      dup2\n      mstore\n      swap1\n      0x40\n      mstore\n        /* \"Exercise4/TransferUSDC.sol\":2735:3047  Client.EVM2AnyMessage({... */\n      dup2\n      mstore\n      0x20\n      add\n      mload(0x40)\n      dup1\n      0x20\n      add\n      0x40\n      mstore\n      dup1\n      0x00\n      dup2\n      mstore\n      pop\n      dup2\n      mstore\n      0x20\n      add\n        /* \"Exercise4/TransferUSDC.sol\":2855:2867  tokenAmounts */\n      dup5\n        /* \"Exercise4/TransferUSDC.sol\":2735:3047  Client.EVM2AnyMessage({... */\n      dup2\n      mstore\n      0x20\n      add\n        /* \"Exercise4/TransferUSDC.sol\":3023:3034  i_linkToken */\n      immutable(\"0x7accbde6ceb84317f73cf616046161b2827a9ee871490b0c927c2024ef305ecf\")\n        /* \"Exercise4/TransferUSDC.sol\":2735:3047  Client.EVM2AnyMessage({... */\n      0xffffffffffffffffffffffffffffffffffffffff\n      and\n      dup2\n      mstore\n      0x20\n      add\n        /* \"Exercise4/TransferUSDC.sol\":2893:2990  Client._argsToBytes(... */\n      tag_75\n        /* \"Exercise4/TransferUSDC.sol\":2931:2975  Client.EVMExtraArgsV1({gasLimit: _gasLimit}) */\n      mload(0x40)\n      dup1\n      0x20\n      add\n      0x40\n      mstore\n      dup1\n        /* \"Exercise4/TransferUSDC.sol\":2964:2973  _gasLimit */\n      dup11\n        /* \"Exercise4/TransferUSDC.sol\":2931:2975  Client.EVMExtraArgsV1({gasLimit: _gasLimit}) */\n      0xffffffffffffffff\n      and\n      dup2\n      mstore\n      pop\n        /* \"Exercise4/TransferUSDC.sol\":2893:2912  Client._argsToBytes */\n      tag_76\n        /* \"Exercise4/TransferUSDC.sol\":2893:2990  Client._argsToBytes(... */\n      jump\t// in\n    tag_75:\n        /* \"Exercise4/TransferUSDC.sol\":2735:3047  Client.EVM2AnyMessage({... */\n      dup2\n      mstore\n      pop\n        /* \"Exercise4/TransferUSDC.sol\":2696:3047  Client.EVM2AnyMessage memory message = Client.EVM2AnyMessage({... */\n      swap1\n      pop\n        /* \"Exercise4/TransferUSDC.sol\":3060:3075  uint256 ccipFee */\n      0x00\n        /* \"Exercise4/TransferUSDC.sol\":3078:3090  i_ccipRouter */\n      immutable(\"0xb295767e4372fab13e4b033e3e01af68982526b3673a0d3e0a82574a5cefaf62\")\n        /* \"Exercise4/TransferUSDC.sol\":3078:3097  i_ccipRouter.getFee */\n      0xffffffffffffffffffffffffffffffffffffffff\n      and\n      0x20487ded\n        /* \"Exercise4/TransferUSDC.sol\":3112:3137  _destinationChainSelector */\n      dup12\n        /* \"Exercise4/TransferUSDC.sol\":3152:3159  message */\n      dup5\n        /* \"Exercise4/TransferUSDC.sol\":3078:3170  i_ccipRouter.getFee(... */\n      mload(0x40)\n      dup4\n      0xffffffff\n      and\n      0xe0\n      shl\n      dup2\n      mstore\n      0x04\n      add\n      tag_77\n      swap3\n      swap2\n      swap1\n      tag_78\n      jump\t// in\n    tag_77:\n      0x20\n      mload(0x40)\n      dup1\n      dup4\n      sub\n      dup2\n      dup7\n      gas\n      staticcall\n      iszero\n      dup1\n      iszero\n      tag_80\n      jumpi\n      returndatasize\n      0x00\n      dup1\n      returndatacopy\n      revert(0x00, returndatasize)\n    tag_80:\n      pop\n      pop\n      pop\n      pop\n      mload(0x40)\n      returndatasize\n      not(0x1f)\n      0x1f\n      dup3\n      add\n      and\n      dup3\n      add\n      dup1\n      0x40\n      mstore\n      pop\n      dup2\n      add\n      swap1\n      tag_81\n      swap2\n      swap1\n      tag_49\n      jump\t// in\n    tag_81:\n        /* \"Exercise4/TransferUSDC.sol\":3060:3170  uint256 ccipFee = i_ccipRouter.getFee(... */\n      swap1\n      pop\n        /* \"Exercise4/TransferUSDC.sol\":3197:3208  i_linkToken */\n      immutable(\"0x7accbde6ceb84317f73cf616046161b2827a9ee871490b0c927c2024ef305ecf\")\n        /* \"Exercise4/TransferUSDC.sol\":3197:3218  i_linkToken.balanceOf */\n      0xffffffffffffffffffffffffffffffffffffffff\n      and\n      0x70a08231\n        /* \"Exercise4/TransferUSDC.sol\":3227:3231  this */\n      address\n        /* \"Exercise4/TransferUSDC.sol\":3197:3233  i_linkToken.balanceOf(address(this)) */\n      mload(0x40)\n      dup3\n      0xffffffff\n      and\n      0xe0\n      shl\n      dup2\n      mstore\n      0x04\n      add\n      tag_82\n      swap2\n      swap1\n      tag_32\n      jump\t// in\n    tag_82:\n      0x20\n      mload(0x40)\n      dup1\n      dup4\n      sub\n      dup2\n      dup7\n      gas\n      staticcall\n      iszero\n      dup1\n      iszero\n      tag_84\n      jumpi\n      returndatasize\n      0x00\n      dup1\n      returndatacopy\n      revert(0x00, returndatasize)\n    tag_84:\n      pop\n      pop\n      pop\n      pop\n      mload(0x40)\n      returndatasize\n      not(0x1f)\n      0x1f\n      dup3\n      add\n      and\n      dup3\n      add\n      dup1\n      0x40\n      mstore\n      pop\n      dup2\n      add\n      swap1\n      tag_85\n      swap2\n      swap1\n      tag_49\n      jump\t// in\n    tag_85:\n        /* \"Exercise4/TransferUSDC.sol\":3187:3194  ccipFee */\n      dup2\n        /* \"Exercise4/TransferUSDC.sol\":3187:3233  ccipFee > i_linkToken.balanceOf(address(this)) */\n      gt\n        /* \"Exercise4/TransferUSDC.sol\":3183:3367  if (ccipFee > i_linkToken.balanceOf(address(this)))... */\n      iszero\n      tag_86\n      jumpi\n        /* \"Exercise4/TransferUSDC.sol\":3290:3301  i_linkToken */\n      immutable(\"0x7accbde6ceb84317f73cf616046161b2827a9ee871490b0c927c2024ef305ecf\")\n        /* \"Exercise4/TransferUSDC.sol\":3290:3311  i_linkToken.balanceOf */\n      0xffffffffffffffffffffffffffffffffffffffff\n      and\n      0x70a08231\n        /* \"Exercise4/TransferUSDC.sol\":3320:3324  this */\n      address\n        /* \"Exercise4/TransferUSDC.sol\":3290:3326  i_linkToken.balanceOf(address(this)) */\n      mload(0x40)\n      dup3\n      0xffffffff\n      and\n      0xe0\n      shl\n      dup2\n      mstore\n      0x04\n      add\n      tag_87\n      swap2\n      swap1\n      tag_32\n      jump\t// in\n    tag_87:\n      0x20\n      mload(0x40)\n      dup1\n      dup4\n      sub\n      dup2\n      dup7\n      gas\n      staticcall\n      iszero\n      dup1\n      iszero\n      tag_89\n      jumpi\n      returndatasize\n      0x00\n      dup1\n      returndatacopy\n      revert(0x00, returndatasize)\n    tag_89:\n      pop\n      pop\n      pop\n      pop\n      mload(0x40)\n      returndatasize\n      not(0x1f)\n      0x1f\n      dup3\n      add\n      and\n      dup3\n      add\n      dup1\n      0x40\n      mstore\n      pop\n      dup2\n      add\n      swap1\n      tag_90\n      swap2\n      swap1\n      tag_49\n      jump\t// in\n    tag_90:\n        /* \"Exercise4/TransferUSDC.sol\":3345:3352  ccipFee */\n      dup2\n        /* \"Exercise4/TransferUSDC.sol\":3255:3367  NotEnoughBalance(... */\n      mload(0x40)\n      0x8f0f420600000000000000000000000000000000000000000000000000000000\n      dup2\n      mstore\n      0x04\n      add\n      tag_91\n      swap3\n      swap2\n      swap1\n      tag_92\n      jump\t// in\n    tag_91:\n      mload(0x40)\n      dup1\n      swap2\n      sub\n      swap1\n      revert\n        /* \"Exercise4/TransferUSDC.sol\":3183:3367  if (ccipFee > i_linkToken.balanceOf(address(this)))... */\n    tag_86:\n        /* \"Exercise4/TransferUSDC.sol\":3380:3391  i_linkToken */\n      immutable(\"0x7accbde6ceb84317f73cf616046161b2827a9ee871490b0c927c2024ef305ecf\")\n        /* \"Exercise4/TransferUSDC.sol\":3380:3399  i_linkToken.approve */\n      0xffffffffffffffffffffffffffffffffffffffff\n      and\n      0x095ea7b3\n        /* \"Exercise4/TransferUSDC.sol\":3408:3420  i_ccipRouter */\n      immutable(\"0xb295767e4372fab13e4b033e3e01af68982526b3673a0d3e0a82574a5cefaf62\")\n        /* \"Exercise4/TransferUSDC.sol\":3423:3430  ccipFee */\n      dup4\n        /* \"Exercise4/TransferUSDC.sol\":3380:3431  i_linkToken.approve(address(i_ccipRouter), ccipFee) */\n      mload(0x40)\n      dup4\n      0xffffffff\n      and\n      0xe0\n      shl\n      dup2\n      mstore\n      0x04\n      add\n      tag_93\n      swap3\n      swap2\n      swap1\n      tag_52\n      jump\t// in\n    tag_93:\n      0x20\n      mload(0x40)\n      dup1\n      dup4\n      sub\n      dup2\n      0x00\n      dup8\n      gas\n      call\n      iszero\n      dup1\n      iszero\n      tag_95\n      jumpi\n      returndatasize\n      0x00\n      dup1\n      returndatacopy\n      revert(0x00, returndatasize)\n    tag_95:\n      pop\n      pop\n      pop\n      pop\n      mload(0x40)\n      returndatasize\n      not(0x1f)\n      0x1f\n      dup3\n      add\n      and\n      dup3\n      add\n      dup1\n      0x40\n      mstore\n      pop\n      dup2\n      add\n      swap1\n      tag_96\n      swap2\n      swap1\n      tag_56\n      jump\t// in\n    tag_96:\n      pop\n        /* \"Exercise4/TransferUSDC.sol\":3444:3508  i_usdcToken.safeTransferFrom(msg.sender, address(this), _amount) */\n      tag_97\n        /* \"Exercise4/TransferUSDC.sol\":3473:3483  msg.sender */\n      caller\n        /* \"Exercise4/TransferUSDC.sol\":3493:3497  this */\n      address\n        /* \"Exercise4/TransferUSDC.sol\":3500:3507  _amount */\n      dup11\n        /* \"Exercise4/TransferUSDC.sol\":3444:3455  i_usdcToken */\n      immutable(\"0x2a6aab4fdfd18c6d38f5500d81516e86b5a3456f684d6c8d85f2571a4c8118d6\")\n        /* \"Exercise4/TransferUSDC.sol\":3444:3472  i_usdcToken.safeTransferFrom */\n      0xffffffffffffffffffffffffffffffffffffffff\n      and\n      tag_98\n      swap1\n        /* \"Exercise4/TransferUSDC.sol\":3444:3508  i_usdcToken.safeTransferFrom(msg.sender, address(this), _amount) */\n      swap4\n      swap3\n      swap2\n      swap1\n      0xffffffff\n      and\n      jump\t// in\n    tag_97:\n        /* \"Exercise4/TransferUSDC.sol\":3519:3530  i_usdcToken */\n      immutable(\"0x2a6aab4fdfd18c6d38f5500d81516e86b5a3456f684d6c8d85f2571a4c8118d6\")\n        /* \"Exercise4/TransferUSDC.sol\":3519:3538  i_usdcToken.approve */\n      0xffffffffffffffffffffffffffffffffffffffff\n      and\n      0x095ea7b3\n        /* \"Exercise4/TransferUSDC.sol\":3547:3559  i_ccipRouter */\n      immutable(\"0xb295767e4372fab13e4b033e3e01af68982526b3673a0d3e0a82574a5cefaf62\")\n        /* \"Exercise4/TransferUSDC.sol\":3562:3569  _amount */\n      dup11\n        /* \"Exercise4/TransferUSDC.sol\":3519:3570  i_usdcToken.approve(address(i_ccipRouter), _amount) */\n      mload(0x40)\n      dup4\n      0xffffffff\n      and\n      0xe0\n      shl\n      dup2\n      mstore\n      0x04\n      add\n      tag_99\n      swap3\n      swap2\n      swap1\n      tag_52\n      jump\t// in\n    tag_99:\n      0x20\n      mload(0x40)\n      dup1\n      dup4\n      sub\n      dup2\n      0x00\n      dup8\n      gas\n      call\n      iszero\n      dup1\n      iszero\n      tag_101\n      jumpi\n      returndatasize\n      0x00\n      dup1\n      returndatacopy\n      revert(0x00, returndatasize)\n    tag_101:\n      pop\n      pop\n      pop\n      pop\n      mload(0x40)\n      returndatasize\n      not(0x1f)\n      0x1f\n      dup3\n      add\n      and\n      dup3\n      add\n      dup1\n      0x40\n      mstore\n      pop\n      dup2\n      add\n      swap1\n      tag_102\n      swap2\n      swap1\n      tag_56\n      jump\t// in\n    tag_102:\n      pop\n        /* \"Exercise4/TransferUSDC.sol\":3625:3637  i_ccipRouter */\n      immutable(\"0xb295767e4372fab13e4b033e3e01af68982526b3673a0d3e0a82574a5cefaf62\")\n        /* \"Exercise4/TransferUSDC.sol\":3625:3646  i_ccipRouter.ccipSend */\n      0xffffffffffffffffffffffffffffffffffffffff\n      and\n      0x96f4e9f9\n        /* \"Exercise4/TransferUSDC.sol\":3647:3672  _destinationChainSelector */\n      dup12\n        /* \"Exercise4/TransferUSDC.sol\":3674:3681  message */\n      dup5\n        /* \"Exercise4/TransferUSDC.sol\":3625:3682  i_ccipRouter.ccipSend(_destinationChainSelector, message) */\n      mload(0x40)\n      dup4\n      0xffffffff\n      and\n      0xe0\n      shl\n      dup2\n      mstore\n      0x04\n      add\n      tag_103\n      swap3\n      swap2\n      swap1\n      tag_78\n      jump\t// in\n    tag_103:\n      0x20\n      mload(0x40)\n      dup1\n      dup4\n      sub\n      dup2\n      0x00\n      dup8\n      gas\n      call\n      iszero\n      dup1\n      iszero\n      tag_105\n      jumpi\n      returndatasize\n      0x00\n      dup1\n      returndatacopy\n      revert(0x00, returndatasize)\n    tag_105:\n      pop\n      pop\n      pop\n      pop\n      mload(0x40)\n      returndatasize\n      not(0x1f)\n      0x1f\n      dup3\n      add\n      and\n      dup3\n      add\n      dup1\n      0x40\n      mstore\n      pop\n      dup2\n      add\n      swap1\n      tag_106\n      swap2\n      swap1\n      tag_107\n      jump\t// in\n    tag_106:\n        /* \"Exercise4/TransferUSDC.sol\":3613:3682  messageId = i_ccipRouter.ccipSend(_destinationChainSelector, message) */\n      swap6\n      pop\n        /* \"Exercise4/TransferUSDC.sol\":3700:3858  UsdcTransferred(... */\n      0xb55a3d3f1ccd1c10f00aff03ad884028d98fa1d478fae03acecbf884ce8e8fbc\n        /* \"Exercise4/TransferUSDC.sol\":3730:3739  messageId */\n      dup7\n        /* \"Exercise4/TransferUSDC.sol\":3754:3779  _destinationChainSelector */\n      dup12\n        /* \"Exercise4/TransferUSDC.sol\":3794:3803  _receiver */\n      dup12\n        /* \"Exercise4/TransferUSDC.sol\":3818:3825  _amount */\n      dup12\n        /* \"Exercise4/TransferUSDC.sol\":3840:3847  ccipFee */\n      dup6\n        /* \"Exercise4/TransferUSDC.sol\":3700:3858  UsdcTransferred(... */\n      mload(0x40)\n      tag_108\n      swap6\n      swap5\n      swap4\n      swap3\n      swap2\n      swap1\n      tag_109\n      jump\t// in\n    tag_108:\n      mload(0x40)\n      dup1\n      swap2\n      sub\n      swap1\n      log1\n        /* \"Exercise4/TransferUSDC.sol\":2383:3866  {... */\n      pop\n      pop\n      pop\n      pop\n        /* \"@chainlink/contracts-ccip/src/v0.8/shared/access/ConfirmedOwnerWithProposal.sol\":2085:2086  _ */\n      pop\n        /* \"Exercise4/TransferUSDC.sol\":2094:3866  function transferUsdc(... */\n      swap5\n      swap4\n      pop\n      pop\n      pop\n      pop\n      jump\t// out\n        /* \"@chainlink/contracts-ccip/src/v0.8/shared/access/ConfirmedOwnerWithProposal.sol\":1022:1334  function acceptOwnership() external override {... */\n    tag_28:\n        /* \"@chainlink/contracts-ccip/src/v0.8/shared/access/ConfirmedOwnerWithProposal.sol\":1142:1156  s_pendingOwner */\n      0x01\n      0x00\n      swap1\n      sload\n      swap1\n      0x0100\n      exp\n      swap1\n      div\n      0xffffffffffffffffffffffffffffffffffffffff\n      and\n        /* \"@chainlink/contracts-ccip/src/v0.8/shared/access/ConfirmedOwnerWithProposal.sol\":1128:1156  msg.sender == s_pendingOwner */\n      0xffffffffffffffffffffffffffffffffffffffff\n      and\n        /* \"@chainlink/contracts-ccip/src/v0.8/shared/access/ConfirmedOwnerWithProposal.sol\":1128:1138  msg.sender */\n      caller\n        /* \"@chainlink/contracts-ccip/src/v0.8/shared/access/ConfirmedOwnerWithProposal.sol\":1128:1156  msg.sender == s_pendingOwner */\n      0xffffffffffffffffffffffffffffffffffffffff\n      and\n      eq\n        /* \"@chainlink/contracts-ccip/src/v0.8/shared/access/ConfirmedOwnerWithProposal.sol\":1120:1183  require(msg.sender == s_pendingOwner, \"Must be proposed owner\") */\n      tag_111\n      jumpi\n      mload(0x40)\n      0x08c379a000000000000000000000000000000000000000000000000000000000\n      dup2\n      mstore\n      0x04\n      add\n      tag_112\n      swap1\n      tag_113\n      jump\t// in\n    tag_112:\n      mload(0x40)\n      dup1\n      swap2\n      sub\n      swap1\n      revert\n    tag_111:\n        /* \"@chainlink/contracts-ccip/src/v0.8/shared/access/ConfirmedOwnerWithProposal.sol\":1190:1206  address oldOwner */\n      0x00\n        /* \"@chainlink/contracts-ccip/src/v0.8/shared/access/ConfirmedOwnerWithProposal.sol\":1209:1216  s_owner */\n      dup1\n      0x00\n      swap1\n      sload\n      swap1\n      0x0100\n      exp\n      swap1\n      div\n      0xffffffffffffffffffffffffffffffffffffffff\n      and\n        /* \"@chainlink/contracts-ccip/src/v0.8/shared/access/ConfirmedOwnerWithProposal.sol\":1190:1216  address oldOwner = s_owner */\n      swap1\n      pop\n        /* \"@chainlink/contracts-ccip/src/v0.8/shared/access/ConfirmedOwnerWithProposal.sol\":1232:1242  msg.sender */\n      caller\n        /* \"@chainlink/contracts-ccip/src/v0.8/shared/access/ConfirmedOwnerWithProposal.sol\":1222:1229  s_owner */\n      0x00\n      dup1\n        /* \"@chainlink/contracts-ccip/src/v0.8/shared/access/ConfirmedOwnerWithProposal.sol\":1222:1242  s_owner = msg.sender */\n      0x0100\n      exp\n      dup2\n      sload\n      dup2\n      0xffffffffffffffffffffffffffffffffffffffff\n      mul\n      not\n      and\n      swap1\n      dup4\n      0xffffffffffffffffffffffffffffffffffffffff\n      and\n      mul\n      or\n      swap1\n      sstore\n      pop\n        /* \"@chainlink/contracts-ccip/src/v0.8/shared/access/ConfirmedOwnerWithProposal.sol\":1273:1274  0 */\n      0x00\n        /* \"@chainlink/contracts-ccip/src/v0.8/shared/access/ConfirmedOwnerWithProposal.sol\":1248:1262  s_pendingOwner */\n      0x01\n      0x00\n        /* \"@chainlink/contracts-ccip/src/v0.8/shared/access/ConfirmedOwnerWithProposal.sol\":1248:1275  s_pendingOwner = address(0) */\n      0x0100\n      exp\n      dup2\n      sload\n      dup2\n      0xffffffffffffffffffffffffffffffffffffffff\n      mul\n      not\n      and\n      swap1\n      dup4\n      0xffffffffffffffffffffffffffffffffffffffff\n      and\n      mul\n      or\n      swap1\n      sstore\n      pop\n        /* \"@chainlink/contracts-ccip/src/v0.8/shared/access/ConfirmedOwnerWithProposal.sol\":1318:1328  msg.sender */\n      caller\n        /* \"@chainlink/contracts-ccip/src/v0.8/shared/access/ConfirmedOwnerWithProposal.sol\":1287:1329  OwnershipTransferred(oldOwner, msg.sender) */\n      0xffffffffffffffffffffffffffffffffffffffff\n      and\n        /* \"@chainlink/contracts-ccip/src/v0.8/shared/access/ConfirmedOwnerWithProposal.sol\":1308:1316  oldOwner */\n      dup2\n        /* \"@chainlink/contracts-ccip/src/v0.8/shared/access/ConfirmedOwnerWithProposal.sol\":1287:1329  OwnershipTransferred(oldOwner, msg.sender) */\n      0xffffffffffffffffffffffffffffffffffffffff\n      and\n      0x8be0079c531659141344cd1fd0a4f28419497f9722a3daafe3b4186f6b6457e0\n      mload(0x40)\n      mload(0x40)\n      dup1\n      swap2\n      sub\n      swap1\n      log3\n        /* \"@chainlink/contracts-ccip/src/v0.8/shared/access/ConfirmedOwnerWithProposal.sol\":1067:1334  {... */\n      pop\n        /* \"@chainlink/contracts-ccip/src/v0.8/shared/access/ConfirmedOwnerWithProposal.sol\":1022:1334  function acceptOwnership() external override {... */\n      jump\t// out\n        /* \"@chainlink/contracts-ccip/src/v0.8/shared/access/ConfirmedOwnerWithProposal.sol\":1374:1455  function owner() public view override returns (address) {... */\n    tag_30:\n        /* \"@chainlink/contracts-ccip/src/v0.8/shared/access/ConfirmedOwnerWithProposal.sol\":1421:1428  address */\n      0x00\n        /* \"@chainlink/contracts-ccip/src/v0.8/shared/access/ConfirmedOwnerWithProposal.sol\":1443:1450  s_owner */\n      dup1\n      0x00\n      swap1\n      sload\n      swap1\n      0x0100\n      exp\n      swap1\n      div\n      0xffffffffffffffffffffffffffffffffffffffff\n      and\n        /* \"@chainlink/contracts-ccip/src/v0.8/shared/access/ConfirmedOwnerWithProposal.sol\":1436:1450  return s_owner */\n      swap1\n      pop\n        /* \"@chainlink/contracts-ccip/src/v0.8/shared/access/ConfirmedOwnerWithProposal.sol\":1374:1455  function owner() public view override returns (address) {... */\n      swap1\n      jump\t// out\n        /* \"Exercise4/TransferUSDC.sol\":1884:2086  function allowlistDestinationChain(... */\n    tag_36:\n        /* \"@chainlink/contracts-ccip/src/v0.8/shared/access/ConfirmedOwnerWithProposal.sol\":2059:2079  _validateOwnership() */\n      tag_116\n        /* \"@chainlink/contracts-ccip/src/v0.8/shared/access/ConfirmedOwnerWithProposal.sol\":2059:2077  _validateOwnership */\n      tag_43\n        /* \"@chainlink/contracts-ccip/src/v0.8/shared/access/ConfirmedOwnerWithProposal.sol\":2059:2079  _validateOwnership() */\n      jump\t// in\n    tag_116:\n        /* \"Exercise4/TransferUSDC.sol\":2070:2078  _allowed */\n      dup1\n        /* \"Exercise4/TransferUSDC.sol\":2023:2040  allowlistedChains */\n      0x02\n        /* \"Exercise4/TransferUSDC.sol\":2023:2067  allowlistedChains[_destinationChainSelector] */\n      0x00\n        /* \"Exercise4/TransferUSDC.sol\":2041:2066  _destinationChainSelector */\n      dup5\n        /* \"Exercise4/TransferUSDC.sol\":2023:2067  allowlistedChains[_destinationChainSelector] */\n      0xffffffffffffffff\n      and\n      0xffffffffffffffff\n      and\n      dup2\n      mstore\n      0x20\n      add\n      swap1\n      dup2\n      mstore\n      0x20\n      add\n      0x00\n      keccak256\n      0x00\n        /* \"Exercise4/TransferUSDC.sol\":2023:2078  allowlistedChains[_destinationChainSelector] = _allowed */\n      0x0100\n      exp\n      dup2\n      sload\n      dup2\n      0xff\n      mul\n      not\n      and\n      swap1\n      dup4\n      iszero\n      iszero\n      mul\n      or\n      swap1\n      sstore\n      pop\n        /* \"Exercise4/TransferUSDC.sol\":1884:2086  function allowlistDestinationChain(... */\n      pop\n      pop\n      jump\t// out\n        /* \"@chainlink/contracts-ccip/src/v0.8/shared/access/ConfirmedOwnerWithProposal.sol\":843:941  function transferOwnership(address to) public override onlyOwner {... */\n    tag_40:\n        /* \"@chainlink/contracts-ccip/src/v0.8/shared/access/ConfirmedOwnerWithProposal.sol\":2059:2079  _validateOwnership() */\n      tag_119\n        /* \"@chainlink/contracts-ccip/src/v0.8/shared/access/ConfirmedOwnerWithProposal.sol\":2059:2077  _validateOwnership */\n      tag_43\n        /* \"@chainlink/contracts-ccip/src/v0.8/shared/access/ConfirmedOwnerWithProposal.sol\":2059:2079  _validateOwnership() */\n      jump\t// in\n    tag_119:\n        /* \"@chainlink/contracts-ccip/src/v0.8/shared/access/ConfirmedOwnerWithProposal.sol\":914:936  _transferOwnership(to) */\n      tag_121\n        /* \"@chainlink/contracts-ccip/src/v0.8/shared/access/ConfirmedOwnerWithProposal.sol\":933:935  to */\n      dup2\n        /* \"@chainlink/contracts-ccip/src/v0.8/shared/access/ConfirmedOwnerWithProposal.sol\":914:932  _transferOwnership */\n      tag_122\n        /* \"@chainlink/contracts-ccip/src/v0.8/shared/access/ConfirmedOwnerWithProposal.sol\":914:936  _transferOwnership(to) */\n      jump\t// in\n    tag_121:\n        /* \"@chainlink/contracts-ccip/src/v0.8/shared/access/ConfirmedOwnerWithProposal.sol\":843:941  function transferOwnership(address to) public override onlyOwner {... */\n      pop\n      jump\t// out\n        /* \"@chainlink/contracts-ccip/src/v0.8/shared/access/ConfirmedOwnerWithProposal.sol\":1797:1955  function _validateOwnership() internal view {... */\n    tag_43:\n        /* \"@chainlink/contracts-ccip/src/v0.8/shared/access/ConfirmedOwnerWithProposal.sol\":1916:1923  s_owner */\n      0x00\n      dup1\n      sload\n      swap1\n      0x0100\n      exp\n      swap1\n      div\n      0xffffffffffffffffffffffffffffffffffffffff\n      and\n        /* \"@chainlink/contracts-ccip/src/v0.8/shared/access/ConfirmedOwnerWithProposal.sol\":1902:1923  msg.sender == s_owner */\n      0xffffffffffffffffffffffffffffffffffffffff\n      and\n        /* \"@chainlink/contracts-ccip/src/v0.8/shared/access/ConfirmedOwnerWithProposal.sol\":1902:1912  msg.sender */\n      caller\n        /* \"@chainlink/contracts-ccip/src/v0.8/shared/access/ConfirmedOwnerWithProposal.sol\":1902:1923  msg.sender == s_owner */\n      0xffffffffffffffffffffffffffffffffffffffff\n      and\n      eq\n        /* \"@chainlink/contracts-ccip/src/v0.8/shared/access/ConfirmedOwnerWithProposal.sol\":1894:1950  require(msg.sender == s_owner, \"Only callable by owner\") */\n      tag_124\n      jumpi\n      mload(0x40)\n      0x08c379a000000000000000000000000000000000000000000000000000000000\n      dup2\n      mstore\n      0x04\n      add\n      tag_125\n      swap1\n      tag_126\n      jump\t// in\n    tag_125:\n      mload(0x40)\n      dup1\n      swap2\n      sub\n      swap1\n      revert\n    tag_124:\n        /* \"@chainlink/contracts-ccip/src/v0.8/shared/access/ConfirmedOwnerWithProposal.sol\":1797:1955  function _validateOwnership() internal view {... */\n      jump\t// out\n        /* \"@chainlink/contracts-ccip/src/v0.8/ccip/libraries/Client.sol\":1285:1455  function _argsToBytes(EVMExtraArgsV1 memory extraArgs) internal pure returns (bytes memory bts) {... */\n    tag_76:\n        /* \"@chainlink/contracts-ccip/src/v0.8/ccip/libraries/Client.sol\":1363:1379  bytes memory bts */\n      0x60\n        /* \"@chainlink/contracts-ccip/src/v0.8/ccip/libraries/Client.sol\":1218:1228  0x97a657c9 */\n      0x97a657c9\n        /* \"@chainlink/contracts-ccip/src/v0.8/ccip/libraries/Client.sol\":1417:1438  EVM_EXTRA_ARGS_V1_TAG */\n      0xe0\n      shl\n        /* \"@chainlink/contracts-ccip/src/v0.8/ccip/libraries/Client.sol\":1440:1449  extraArgs */\n      dup3\n        /* \"@chainlink/contracts-ccip/src/v0.8/ccip/libraries/Client.sol\":1394:1450  abi.encodeWithSelector(EVM_EXTRA_ARGS_V1_TAG, extraArgs) */\n      add(0x24, mload(0x40))\n      tag_128\n      swap2\n      swap1\n      tag_129\n      jump\t// in\n    tag_128:\n      mload(0x40)\n      0x20\n      dup2\n      dup4\n      sub\n      sub\n      dup2\n      mstore\n      swap1\n      0x40\n      mstore\n      swap1\n      not(0xffffffffffffffffffffffffffffffffffffffffffffffffffffffff)\n      and\n      0x20\n      dup3\n      add\n      dup1\n      mload\n      0xffffffffffffffffffffffffffffffffffffffffffffffffffffffff\n      dup4\n      dup2\n      dup4\n      and\n      or\n      dup4\n      mstore\n      pop\n      pop\n      pop\n      pop\n        /* \"@chainlink/contracts-ccip/src/v0.8/ccip/libraries/Client.sol\":1387:1450  return abi.encodeWithSelector(EVM_EXTRA_ARGS_V1_TAG, extraArgs) */\n      swap1\n      pop\n        /* \"@chainlink/contracts-ccip/src/v0.8/ccip/libraries/Client.sol\":1285:1455  function _argsToBytes(EVMExtraArgsV1 memory extraArgs) internal pure returns (bytes memory bts) {... */\n      swap2\n      swap1\n      pop\n      jump\t// out\n        /* \"@chainlink/contracts-ccip/src/v0.8/vendor/openzeppelin-solidity/v4.8.0/token/ERC20/utils/SafeERC20.sol\":948:1165  function safeTransferFrom(... */\n    tag_98:\n        /* \"@chainlink/contracts-ccip/src/v0.8/vendor/openzeppelin-solidity/v4.8.0/token/ERC20/utils/SafeERC20.sol\":1064:1160  _callOptionalReturn(token, abi.encodeWithSelector(token.transferFrom.selector, from, to, value)) */\n      tag_131\n        /* \"@chainlink/contracts-ccip/src/v0.8/vendor/openzeppelin-solidity/v4.8.0/token/ERC20/utils/SafeERC20.sol\":1084:1089  token */\n      dup5\n        /* \"@chainlink/contracts-ccip/src/v0.8/vendor/openzeppelin-solidity/v4.8.0/token/ERC20/utils/SafeERC20.sol\":1114:1141  token.transferFrom.selector */\n      shl(0xe0, 0x23b872dd)\n        /* \"@chainlink/contracts-ccip/src/v0.8/vendor/openzeppelin-solidity/v4.8.0/token/ERC20/utils/SafeERC20.sol\":1143:1147  from */\n      dup6\n        /* \"@chainlink/contracts-ccip/src/v0.8/vendor/openzeppelin-solidity/v4.8.0/token/ERC20/utils/SafeERC20.sol\":1149:1151  to */\n      dup6\n        /* \"@chainlink/contracts-ccip/src/v0.8/vendor/openzeppelin-solidity/v4.8.0/token/ERC20/utils/SafeERC20.sol\":1153:1158  value */\n      dup6\n        /* \"@chainlink/contracts-ccip/src/v0.8/vendor/openzeppelin-solidity/v4.8.0/token/ERC20/utils/SafeERC20.sol\":1091:1159  abi.encodeWithSelector(token.transferFrom.selector, from, to, value) */\n      add(0x24, mload(0x40))\n      tag_132\n      swap4\n      swap3\n      swap2\n      swap1\n      tag_133\n      jump\t// in\n    tag_132:\n      mload(0x40)\n      0x20\n      dup2\n      dup4\n      sub\n      sub\n      dup2\n      mstore\n      swap1\n      0x40\n      mstore\n      swap1\n      not(0xffffffffffffffffffffffffffffffffffffffffffffffffffffffff)\n      and\n      0x20\n      dup3\n      add\n      dup1\n      mload\n      0xffffffffffffffffffffffffffffffffffffffffffffffffffffffff\n      dup4\n      dup2\n      dup4\n      and\n      or\n      dup4\n      mstore\n      pop\n      pop\n      pop\n      pop\n        /* \"@chainlink/contracts-ccip/src/v0.8/vendor/openzeppelin-solidity/v4.8.0/token/ERC20/utils/SafeERC20.sol\":1064:1083  _callOptionalReturn */\n      tag_134\n        /* \"@chainlink/contracts-ccip/src/v0.8/vendor/openzeppelin-solidity/v4.8.0/token/ERC20/utils/SafeERC20.sol\":1064:1160  _callOptionalReturn(token, abi.encodeWithSelector(token.transferFrom.selector, from, to, value)) */\n      jump\t// in\n    tag_131:\n        /* \"@chainlink/contracts-ccip/src/v0.8/vendor/openzeppelin-solidity/v4.8.0/token/ERC20/utils/SafeERC20.sol\":948:1165  function safeTransferFrom(... */\n      pop\n      pop\n      pop\n      pop\n      jump\t// out\n        /* \"@chainlink/contracts-ccip/src/v0.8/shared/access/ConfirmedOwnerWithProposal.sol\":1528:1763  function _transferOwnership(address to) private {... */\n    tag_122:\n        /* \"@chainlink/contracts-ccip/src/v0.8/shared/access/ConfirmedOwnerWithProposal.sol\":1643:1653  msg.sender */\n      caller\n        /* \"@chainlink/contracts-ccip/src/v0.8/shared/access/ConfirmedOwnerWithProposal.sol\":1637:1653  to != msg.sender */\n      0xffffffffffffffffffffffffffffffffffffffff\n      and\n        /* \"@chainlink/contracts-ccip/src/v0.8/shared/access/ConfirmedOwnerWithProposal.sol\":1637:1639  to */\n      dup2\n        /* \"@chainlink/contracts-ccip/src/v0.8/shared/access/ConfirmedOwnerWithProposal.sol\":1637:1653  to != msg.sender */\n      0xffffffffffffffffffffffffffffffffffffffff\n      and\n      sub\n        /* \"@chainlink/contracts-ccip/src/v0.8/shared/access/ConfirmedOwnerWithProposal.sol\":1629:1681  require(to != msg.sender, \"Cannot transfer to self\") */\n      tag_136\n      jumpi\n      mload(0x40)\n      0x08c379a000000000000000000000000000000000000000000000000000000000\n      dup2\n      mstore\n      0x04\n      add\n      tag_137\n      swap1\n      tag_138\n      jump\t// in\n    tag_137:\n      mload(0x40)\n      dup1\n      swap2\n      sub\n      swap1\n      revert\n    tag_136:\n        /* \"@chainlink/contracts-ccip/src/v0.8/shared/access/ConfirmedOwnerWithProposal.sol\":1705:1707  to */\n      dup1\n        /* \"@chainlink/contracts-ccip/src/v0.8/shared/access/ConfirmedOwnerWithProposal.sol\":1688:1702  s_pendingOwner */\n      0x01\n      0x00\n        /* \"@chainlink/contracts-ccip/src/v0.8/shared/access/ConfirmedOwnerWithProposal.sol\":1688:1707  s_pendingOwner = to */\n      0x0100\n      exp\n      dup2\n      sload\n      dup2\n      0xffffffffffffffffffffffffffffffffffffffff\n      mul\n      not\n      and\n      swap1\n      dup4\n      0xffffffffffffffffffffffffffffffffffffffff\n      and\n      mul\n      or\n      swap1\n      sstore\n      pop\n        /* \"@chainlink/contracts-ccip/src/v0.8/shared/access/ConfirmedOwnerWithProposal.sol\":1755:1757  to */\n      dup1\n        /* \"@chainlink/contracts-ccip/src/v0.8/shared/access/ConfirmedOwnerWithProposal.sol\":1719:1758  OwnershipTransferRequested(s_owner, to) */\n      0xffffffffffffffffffffffffffffffffffffffff\n      and\n        /* \"@chainlink/contracts-ccip/src/v0.8/shared/access/ConfirmedOwnerWithProposal.sol\":1746:1753  s_owner */\n      0x00\n      dup1\n      sload\n      swap1\n      0x0100\n      exp\n      swap1\n      div\n      0xffffffffffffffffffffffffffffffffffffffff\n      and\n        /* \"@chainlink/contracts-ccip/src/v0.8/shared/access/ConfirmedOwnerWithProposal.sol\":1719:1758  OwnershipTransferRequested(s_owner, to) */\n      0xffffffffffffffffffffffffffffffffffffffff\n      and\n      0xed8889f560326eb138920d842192f0eb3dd22b4f139c87a2c57538e05bae1278\n      mload(0x40)\n      mload(0x40)\n      dup1\n      swap2\n      sub\n      swap1\n      log3\n        /* \"@chainlink/contracts-ccip/src/v0.8/shared/access/ConfirmedOwnerWithProposal.sol\":1528:1763  function _transferOwnership(address to) private {... */\n      pop\n      jump\t// out\n        /* \"@chainlink/contracts-ccip/src/v0.8/vendor/openzeppelin-solidity/v4.8.0/token/ERC20/utils/SafeERC20.sol\":3485:4153  function _callOptionalReturn(IERC20 token, bytes memory data) private {... */\n    tag_134:\n        /* \"@chainlink/contracts-ccip/src/v0.8/vendor/openzeppelin-solidity/v4.8.0/token/ERC20/utils/SafeERC20.sol\":3888:3911  bytes memory returndata */\n      0x00\n        /* \"@chainlink/contracts-ccip/src/v0.8/vendor/openzeppelin-solidity/v4.8.0/token/ERC20/utils/SafeERC20.sol\":3914:3983  address(token).functionCall(data, \"SafeERC20: low-level call failed\") */\n      tag_140\n        /* \"@chainlink/contracts-ccip/src/v0.8/vendor/openzeppelin-solidity/v4.8.0/token/ERC20/utils/SafeERC20.sol\":3942:3946  data */\n      dup3\n        /* \"@chainlink/contracts-ccip/src/v0.8/vendor/openzeppelin-solidity/v4.8.0/token/ERC20/utils/SafeERC20.sol\":3914:3983  address(token).functionCall(data, \"SafeERC20: low-level call failed\") */\n      mload(0x40)\n      dup1\n      0x40\n      add\n      0x40\n      mstore\n      dup1\n      0x20\n      dup2\n      mstore\n      0x20\n      add\n      0x5361666545524332303a206c6f772d6c6576656c2063616c6c206661696c6564\n      dup2\n      mstore\n      pop\n        /* \"@chainlink/contracts-ccip/src/v0.8/vendor/openzeppelin-solidity/v4.8.0/token/ERC20/utils/SafeERC20.sol\":3922:3927  token */\n      dup6\n        /* \"@chainlink/contracts-ccip/src/v0.8/vendor/openzeppelin-solidity/v4.8.0/token/ERC20/utils/SafeERC20.sol\":3914:3941  address(token).functionCall */\n      0xffffffffffffffffffffffffffffffffffffffff\n      and\n      tag_141\n      swap1\n        /* \"@chainlink/contracts-ccip/src/v0.8/vendor/openzeppelin-solidity/v4.8.0/token/ERC20/utils/SafeERC20.sol\":3914:3983  address(token).functionCall(data, \"SafeERC20: low-level call failed\") */\n      swap3\n      swap2\n      swap1\n      0xffffffff\n      and\n      jump\t// in\n    tag_140:\n        /* \"@chainlink/contracts-ccip/src/v0.8/vendor/openzeppelin-solidity/v4.8.0/token/ERC20/utils/SafeERC20.sol\":3888:3983  bytes memory returndata = address(token).functionCall(data, \"SafeERC20: low-level call failed\") */\n      swap1\n      pop\n        /* \"@chainlink/contracts-ccip/src/v0.8/vendor/openzeppelin-solidity/v4.8.0/token/ERC20/utils/SafeERC20.sol\":4013:4014  0 */\n      0x00\n        /* \"@chainlink/contracts-ccip/src/v0.8/vendor/openzeppelin-solidity/v4.8.0/token/ERC20/utils/SafeERC20.sol\":3993:4003  returndata */\n      dup2\n        /* \"@chainlink/contracts-ccip/src/v0.8/vendor/openzeppelin-solidity/v4.8.0/token/ERC20/utils/SafeERC20.sol\":3993:4010  returndata.length */\n      mload\n        /* \"@chainlink/contracts-ccip/src/v0.8/vendor/openzeppelin-solidity/v4.8.0/token/ERC20/utils/SafeERC20.sol\":3993:4014  returndata.length > 0 */\n      gt\n        /* \"@chainlink/contracts-ccip/src/v0.8/vendor/openzeppelin-solidity/v4.8.0/token/ERC20/utils/SafeERC20.sol\":3989:4149  if (returndata.length > 0) {... */\n      iszero\n      tag_142\n      jumpi\n        /* \"@chainlink/contracts-ccip/src/v0.8/vendor/openzeppelin-solidity/v4.8.0/token/ERC20/utils/SafeERC20.sol\":4076:4086  returndata */\n      dup1\n        /* \"@chainlink/contracts-ccip/src/v0.8/vendor/openzeppelin-solidity/v4.8.0/token/ERC20/utils/SafeERC20.sol\":4065:4095  abi.decode(returndata, (bool)) */\n      dup1\n      0x20\n      add\n      swap1\n      mload\n      dup2\n      add\n      swap1\n      tag_143\n      swap2\n      swap1\n      tag_56\n      jump\t// in\n    tag_143:\n        /* \"@chainlink/contracts-ccip/src/v0.8/vendor/openzeppelin-solidity/v4.8.0/token/ERC20/utils/SafeERC20.sol\":4057:4142  require(abi.decode(returndata, (bool)), \"SafeERC20: ERC20 operation did not succeed\") */\n      tag_144\n      jumpi\n      mload(0x40)\n      0x08c379a000000000000000000000000000000000000000000000000000000000\n      dup2\n      mstore\n      0x04\n      add\n      tag_145\n      swap1\n      tag_146\n      jump\t// in\n    tag_145:\n      mload(0x40)\n      dup1\n      swap2\n      sub\n      swap1\n      revert\n    tag_144:\n        /* \"@chainlink/contracts-ccip/src/v0.8/vendor/openzeppelin-solidity/v4.8.0/token/ERC20/utils/SafeERC20.sol\":3989:4149  if (returndata.length > 0) {... */\n    tag_142:\n        /* \"@chainlink/contracts-ccip/src/v0.8/vendor/openzeppelin-solidity/v4.8.0/token/ERC20/utils/SafeERC20.sol\":3555:4153  {... */\n      pop\n        /* \"@chainlink/contracts-ccip/src/v0.8/vendor/openzeppelin-solidity/v4.8.0/token/ERC20/utils/SafeERC20.sol\":3485:4153  function _callOptionalReturn(IERC20 token, bytes memory data) private {... */\n      pop\n      pop\n      jump\t// out\n        /* \"@chainlink/contracts-ccip/src/v0.8/vendor/openzeppelin-solidity/v4.8.0/utils/Address.sol\":3695:3898  function functionCall(... */\n    tag_141:\n        /* \"@chainlink/contracts-ccip/src/v0.8/vendor/openzeppelin-solidity/v4.8.0/utils/Address.sol\":3814:3826  bytes memory */\n      0x60\n        /* \"@chainlink/contracts-ccip/src/v0.8/vendor/openzeppelin-solidity/v4.8.0/utils/Address.sol\":3841:3893  functionCallWithValue(target, data, 0, errorMessage) */\n      tag_148\n        /* \"@chainlink/contracts-ccip/src/v0.8/vendor/openzeppelin-solidity/v4.8.0/utils/Address.sol\":3863:3869  target */\n      dup5\n        /* \"@chainlink/contracts-ccip/src/v0.8/vendor/openzeppelin-solidity/v4.8.0/utils/Address.sol\":3871:3875  data */\n      dup5\n        /* \"@chainlink/contracts-ccip/src/v0.8/vendor/openzeppelin-solidity/v4.8.0/utils/Address.sol\":3877:3878  0 */\n      0x00\n        /* \"@chainlink/contracts-ccip/src/v0.8/vendor/openzeppelin-solidity/v4.8.0/utils/Address.sol\":3880:3892  errorMessage */\n      dup6\n        /* \"@chainlink/contracts-ccip/src/v0.8/vendor/openzeppelin-solidity/v4.8.0/utils/Address.sol\":3841:3862  functionCallWithValue */\n      tag_149\n        /* \"@chainlink/contracts-ccip/src/v0.8/vendor/openzeppelin-solidity/v4.8.0/utils/Address.sol\":3841:3893  functionCallWithValue(target, data, 0, errorMessage) */\n      jump\t// in\n    tag_148:\n        /* \"@chainlink/contracts-ccip/src/v0.8/vendor/openzeppelin-solidity/v4.8.0/utils/Address.sol\":3834:3893  return functionCallWithValue(target, data, 0, errorMessage) */\n      swap1\n      pop\n        /* \"@chainlink/contracts-ccip/src/v0.8/vendor/openzeppelin-solidity/v4.8.0/utils/Address.sol\":3695:3898  function functionCall(... */\n      swap4\n      swap3\n      pop\n      pop\n      pop\n      jump\t// out\n        /* \"@chainlink/contracts-ccip/src/v0.8/vendor/openzeppelin-solidity/v4.8.0/utils/Address.sol\":4704:5118  function functionCallWithValue(... */\n    tag_149:\n        /* \"@chainlink/contracts-ccip/src/v0.8/vendor/openzeppelin-solidity/v4.8.0/utils/Address.sol\":4851:4863  bytes memory */\n      0x60\n        /* \"@chainlink/contracts-ccip/src/v0.8/vendor/openzeppelin-solidity/v4.8.0/utils/Address.sol\":4904:4909  value */\n      dup3\n        /* \"@chainlink/contracts-ccip/src/v0.8/vendor/openzeppelin-solidity/v4.8.0/utils/Address.sol\":4879:4900  address(this).balance */\n      selfbalance\n        /* \"@chainlink/contracts-ccip/src/v0.8/vendor/openzeppelin-solidity/v4.8.0/utils/Address.sol\":4879:4909  address(this).balance >= value */\n      lt\n      iszero\n        /* \"@chainlink/contracts-ccip/src/v0.8/vendor/openzeppelin-solidity/v4.8.0/utils/Address.sol\":4871:4952  require(address(this).balance >= value, \"Address: insufficient balance for call\") */\n      tag_151\n      jumpi\n      mload(0x40)\n      0x08c379a000000000000000000000000000000000000000000000000000000000\n      dup2\n      mstore\n      0x04\n      add\n      tag_152\n      swap1\n      tag_153\n      jump\t// in\n    tag_152:\n      mload(0x40)\n      dup1\n      swap2\n      sub\n      swap1\n      revert\n    tag_151:\n        /* \"@chainlink/contracts-ccip/src/v0.8/vendor/openzeppelin-solidity/v4.8.0/utils/Address.sol\":4959:4971  bool success */\n      0x00\n        /* \"@chainlink/contracts-ccip/src/v0.8/vendor/openzeppelin-solidity/v4.8.0/utils/Address.sol\":4973:4996  bytes memory returndata */\n      dup1\n        /* \"@chainlink/contracts-ccip/src/v0.8/vendor/openzeppelin-solidity/v4.8.0/utils/Address.sol\":5000:5006  target */\n      dup7\n        /* \"@chainlink/contracts-ccip/src/v0.8/vendor/openzeppelin-solidity/v4.8.0/utils/Address.sol\":5000:5011  target.call */\n      0xffffffffffffffffffffffffffffffffffffffff\n      and\n        /* \"@chainlink/contracts-ccip/src/v0.8/vendor/openzeppelin-solidity/v4.8.0/utils/Address.sol\":5019:5024  value */\n      dup6\n        /* \"@chainlink/contracts-ccip/src/v0.8/vendor/openzeppelin-solidity/v4.8.0/utils/Address.sol\":5026:5030  data */\n      dup8\n        /* \"@chainlink/contracts-ccip/src/v0.8/vendor/openzeppelin-solidity/v4.8.0/utils/Address.sol\":5000:5031  target.call{value: value}(data) */\n      mload(0x40)\n      tag_154\n      swap2\n      swap1\n      tag_155\n      jump\t// in\n    tag_154:\n      0x00\n      mload(0x40)\n      dup1\n      dup4\n      sub\n      dup2\n      dup6\n      dup8\n      gas\n      call\n      swap3\n      pop\n      pop\n      pop\n      returndatasize\n      dup1\n      0x00\n      dup2\n      eq\n      tag_158\n      jumpi\n      mload(0x40)\n      swap2\n      pop\n      and(add(returndatasize, 0x3f), not(0x1f))\n      dup3\n      add\n      0x40\n      mstore\n      returndatasize\n      dup3\n      mstore\n      returndatasize\n      0x00\n      0x20\n      dup5\n      add\n      returndatacopy\n      jump(tag_157)\n    tag_158:\n      0x60\n      swap2\n      pop\n    tag_157:\n      pop\n        /* \"@chainlink/contracts-ccip/src/v0.8/vendor/openzeppelin-solidity/v4.8.0/utils/Address.sol\":4958:5031  (bool success, bytes memory returndata) = target.call{value: value}(data) */\n      swap2\n      pop\n      swap2\n      pop\n        /* \"@chainlink/contracts-ccip/src/v0.8/vendor/openzeppelin-solidity/v4.8.0/utils/Address.sol\":5044:5113  verifyCallResultFromTarget(target, success, returndata, errorMessage) */\n      tag_159\n        /* \"@chainlink/contracts-ccip/src/v0.8/vendor/openzeppelin-solidity/v4.8.0/utils/Address.sol\":5071:5077  target */\n      dup8\n        /* \"@chainlink/contracts-ccip/src/v0.8/vendor/openzeppelin-solidity/v4.8.0/utils/Address.sol\":5079:5086  success */\n      dup4\n        /* \"@chainlink/contracts-ccip/src/v0.8/vendor/openzeppelin-solidity/v4.8.0/utils/Address.sol\":5088:5098  returndata */\n      dup4\n        /* \"@chainlink/contracts-ccip/src/v0.8/vendor/openzeppelin-solidity/v4.8.0/utils/Address.sol\":5100:5112  errorMessage */\n      dup8\n        /* \"@chainlink/contracts-ccip/src/v0.8/vendor/openzeppelin-solidity/v4.8.0/utils/Address.sol\":5044:5070  verifyCallResultFromTarget */\n      tag_160\n        /* \"@chainlink/contracts-ccip/src/v0.8/vendor/openzeppelin-solidity/v4.8.0/utils/Address.sol\":5044:5113  verifyCallResultFromTarget(target, success, returndata, errorMessage) */\n      jump\t// in\n    tag_159:\n        /* \"@chainlink/contracts-ccip/src/v0.8/vendor/openzeppelin-solidity/v4.8.0/utils/Address.sol\":5037:5113  return verifyCallResultFromTarget(target, success, returndata, errorMessage) */\n      swap3\n      pop\n      pop\n      pop\n        /* \"@chainlink/contracts-ccip/src/v0.8/vendor/openzeppelin-solidity/v4.8.0/utils/Address.sol\":4704:5118  function functionCallWithValue(... */\n      swap5\n      swap4\n      pop\n      pop\n      pop\n      pop\n      jump\t// out\n        /* \"@chainlink/contracts-ccip/src/v0.8/vendor/openzeppelin-solidity/v4.8.0/utils/Address.sol\":7048:7596  function verifyCallResultFromTarget(... */\n    tag_160:\n        /* \"@chainlink/contracts-ccip/src/v0.8/vendor/openzeppelin-solidity/v4.8.0/utils/Address.sol\":7210:7222  bytes memory */\n      0x60\n        /* \"@chainlink/contracts-ccip/src/v0.8/vendor/openzeppelin-solidity/v4.8.0/utils/Address.sol\":7234:7241  success */\n      dup4\n        /* \"@chainlink/contracts-ccip/src/v0.8/vendor/openzeppelin-solidity/v4.8.0/utils/Address.sol\":7230:7592  if (success) {... */\n      iszero\n      tag_162\n      jumpi\n        /* \"@chainlink/contracts-ccip/src/v0.8/vendor/openzeppelin-solidity/v4.8.0/utils/Address.sol\":7276:7277  0 */\n      0x00\n        /* \"@chainlink/contracts-ccip/src/v0.8/vendor/openzeppelin-solidity/v4.8.0/utils/Address.sol\":7255:7265  returndata */\n      dup4\n        /* \"@chainlink/contracts-ccip/src/v0.8/vendor/openzeppelin-solidity/v4.8.0/utils/Address.sol\":7255:7272  returndata.length */\n      mload\n        /* \"@chainlink/contracts-ccip/src/v0.8/vendor/openzeppelin-solidity/v4.8.0/utils/Address.sol\":7255:7277  returndata.length == 0 */\n      sub\n        /* \"@chainlink/contracts-ccip/src/v0.8/vendor/openzeppelin-solidity/v4.8.0/utils/Address.sol\":7251:7507  if (returndata.length == 0) {... */\n      tag_163\n      jumpi\n        /* \"@chainlink/contracts-ccip/src/v0.8/vendor/openzeppelin-solidity/v4.8.0/utils/Address.sol\":7446:7464  isContract(target) */\n      tag_164\n        /* \"@chainlink/contracts-ccip/src/v0.8/vendor/openzeppelin-solidity/v4.8.0/utils/Address.sol\":7457:7463  target */\n      dup6\n        /* \"@chainlink/contracts-ccip/src/v0.8/vendor/openzeppelin-solidity/v4.8.0/utils/Address.sol\":7446:7456  isContract */\n      tag_165\n        /* \"@chainlink/contracts-ccip/src/v0.8/vendor/openzeppelin-solidity/v4.8.0/utils/Address.sol\":7446:7464  isContract(target) */\n      jump\t// in\n    tag_164:\n        /* \"@chainlink/contracts-ccip/src/v0.8/vendor/openzeppelin-solidity/v4.8.0/utils/Address.sol\":7438:7498  require(isContract(target), \"Address: call to non-contract\") */\n      tag_166\n      jumpi\n      mload(0x40)\n      0x08c379a000000000000000000000000000000000000000000000000000000000\n      dup2\n      mstore\n      0x04\n      add\n      tag_167\n      swap1\n      tag_168\n      jump\t// in\n    tag_167:\n      mload(0x40)\n      dup1\n      swap2\n      sub\n      swap1\n      revert\n    tag_166:\n        /* \"@chainlink/contracts-ccip/src/v0.8/vendor/openzeppelin-solidity/v4.8.0/utils/Address.sol\":7251:7507  if (returndata.length == 0) {... */\n    tag_163:\n        /* \"@chainlink/contracts-ccip/src/v0.8/vendor/openzeppelin-solidity/v4.8.0/utils/Address.sol\":7521:7531  returndata */\n      dup3\n        /* \"@chainlink/contracts-ccip/src/v0.8/vendor/openzeppelin-solidity/v4.8.0/utils/Address.sol\":7514:7531  return returndata */\n      swap1\n      pop\n      jump(tag_161)\n        /* \"@chainlink/contracts-ccip/src/v0.8/vendor/openzeppelin-solidity/v4.8.0/utils/Address.sol\":7230:7592  if (success) {... */\n    tag_162:\n        /* \"@chainlink/contracts-ccip/src/v0.8/vendor/openzeppelin-solidity/v4.8.0/utils/Address.sol\":7552:7585  _revert(returndata, errorMessage) */\n      tag_170\n        /* \"@chainlink/contracts-ccip/src/v0.8/vendor/openzeppelin-solidity/v4.8.0/utils/Address.sol\":7560:7570  returndata */\n      dup4\n        /* \"@chainlink/contracts-ccip/src/v0.8/vendor/openzeppelin-solidity/v4.8.0/utils/Address.sol\":7572:7584  errorMessage */\n      dup4\n        /* \"@chainlink/contracts-ccip/src/v0.8/vendor/openzeppelin-solidity/v4.8.0/utils/Address.sol\":7552:7559  _revert */\n      tag_171\n        /* \"@chainlink/contracts-ccip/src/v0.8/vendor/openzeppelin-solidity/v4.8.0/utils/Address.sol\":7552:7585  _revert(returndata, errorMessage) */\n      jump\t// in\n    tag_170:\n        /* \"@chainlink/contracts-ccip/src/v0.8/vendor/openzeppelin-solidity/v4.8.0/utils/Address.sol\":7048:7596  function verifyCallResultFromTarget(... */\n    tag_161:\n      swap5\n      swap4\n      pop\n      pop\n      pop\n      pop\n      jump\t// out\n        /* \"@chainlink/contracts-ccip/src/v0.8/vendor/openzeppelin-solidity/v4.8.0/utils/Address.sol\":1121:1423  function isContract(address account) internal view returns (bool) {... */\n    tag_165:\n        /* \"@chainlink/contracts-ccip/src/v0.8/vendor/openzeppelin-solidity/v4.8.0/utils/Address.sol\":1181:1185  bool */\n      0x00\n        /* \"@chainlink/contracts-ccip/src/v0.8/vendor/openzeppelin-solidity/v4.8.0/utils/Address.sol\":1417:1418  0 */\n      dup1\n        /* \"@chainlink/contracts-ccip/src/v0.8/vendor/openzeppelin-solidity/v4.8.0/utils/Address.sol\":1395:1402  account */\n      dup3\n        /* \"@chainlink/contracts-ccip/src/v0.8/vendor/openzeppelin-solidity/v4.8.0/utils/Address.sol\":1395:1414  account.code.length */\n      0xffffffffffffffffffffffffffffffffffffffff\n      and\n      extcodesize\n        /* \"@chainlink/contracts-ccip/src/v0.8/vendor/openzeppelin-solidity/v4.8.0/utils/Address.sol\":1395:1418  account.code.length > 0 */\n      gt\n        /* \"@chainlink/contracts-ccip/src/v0.8/vendor/openzeppelin-solidity/v4.8.0/utils/Address.sol\":1388:1418  return account.code.length > 0 */\n      swap1\n      pop\n        /* \"@chainlink/contracts-ccip/src/v0.8/vendor/openzeppelin-solidity/v4.8.0/utils/Address.sol\":1121:1423  function isContract(address account) internal view returns (bool) {... */\n      swap2\n      swap1\n      pop\n      jump\t// out\n        /* \"@chainlink/contracts-ccip/src/v0.8/vendor/openzeppelin-solidity/v4.8.0/utils/Address.sol\":8062:8538  function _revert(bytes memory returndata, string memory errorMessage) private pure {... */\n    tag_171:\n        /* \"@chainlink/contracts-ccip/src/v0.8/vendor/openzeppelin-solidity/v4.8.0/utils/Address.sol\":8233:8234  0 */\n      0x00\n        /* \"@chainlink/contracts-ccip/src/v0.8/vendor/openzeppelin-solidity/v4.8.0/utils/Address.sol\":8213:8223  returndata */\n      dup3\n        /* \"@chainlink/contracts-ccip/src/v0.8/vendor/openzeppelin-solidity/v4.8.0/utils/Address.sol\":8213:8230  returndata.length */\n      mload\n        /* \"@chainlink/contracts-ccip/src/v0.8/vendor/openzeppelin-solidity/v4.8.0/utils/Address.sol\":8213:8234  returndata.length > 0 */\n      gt\n        /* \"@chainlink/contracts-ccip/src/v0.8/vendor/openzeppelin-solidity/v4.8.0/utils/Address.sol\":8209:8534  if (returndata.length > 0) {... */\n      iszero\n      tag_174\n      jumpi\n        /* \"@chainlink/contracts-ccip/src/v0.8/vendor/openzeppelin-solidity/v4.8.0/utils/Address.sol\":8415:8425  returndata */\n      dup2\n        /* \"@chainlink/contracts-ccip/src/v0.8/vendor/openzeppelin-solidity/v4.8.0/utils/Address.sol\":8409:8426  mload(returndata) */\n      mload\n        /* \"@chainlink/contracts-ccip/src/v0.8/vendor/openzeppelin-solidity/v4.8.0/utils/Address.sol\":8463:8478  returndata_size */\n      dup1\n        /* \"@chainlink/contracts-ccip/src/v0.8/vendor/openzeppelin-solidity/v4.8.0/utils/Address.sol\":8450:8460  returndata */\n      dup4\n        /* \"@chainlink/contracts-ccip/src/v0.8/vendor/openzeppelin-solidity/v4.8.0/utils/Address.sol\":8446:8448  32 */\n      0x20\n        /* \"@chainlink/contracts-ccip/src/v0.8/vendor/openzeppelin-solidity/v4.8.0/utils/Address.sol\":8442:8461  add(32, returndata) */\n      add\n        /* \"@chainlink/contracts-ccip/src/v0.8/vendor/openzeppelin-solidity/v4.8.0/utils/Address.sol\":8435:8479  revert(add(32, returndata), returndata_size) */\n      revert\n        /* \"@chainlink/contracts-ccip/src/v0.8/vendor/openzeppelin-solidity/v4.8.0/utils/Address.sol\":8209:8534  if (returndata.length > 0) {... */\n    tag_174:\n        /* \"@chainlink/contracts-ccip/src/v0.8/vendor/openzeppelin-solidity/v4.8.0/utils/Address.sol\":8514:8526  errorMessage */\n      dup1\n        /* \"@chainlink/contracts-ccip/src/v0.8/vendor/openzeppelin-solidity/v4.8.0/utils/Address.sol\":8507:8527  revert(errorMessage) */\n      mload(0x40)\n      0x08c379a000000000000000000000000000000000000000000000000000000000\n      dup2\n      mstore\n      0x04\n      add\n      tag_176\n      swap2\n      swap1\n      tag_177\n      jump\t// in\n    tag_176:\n      mload(0x40)\n      dup1\n      swap2\n      sub\n      swap1\n      revert\n    tag_70:\n      mload(0x40)\n      dup1\n      0x40\n      add\n      0x40\n      mstore\n      dup1\n      and(0xffffffffffffffffffffffffffffffffffffffff, 0x00)\n      dup2\n      mstore\n      0x20\n      add\n      0x00\n      dup2\n      mstore\n      pop\n      swap1\n      jump\t// out\n        /* \"#utility.yul\":88:205   */\n    tag_179:\n        /* \"#utility.yul\":197:198   */\n      0x00\n        /* \"#utility.yul\":194:195   */\n      dup1\n        /* \"#utility.yul\":187:199   */\n      revert\n        /* \"#utility.yul\":334:435   */\n    tag_181:\n        /* \"#utility.yul\":370:377   */\n      0x00\n        /* \"#utility.yul\":410:428   */\n      0xffffffffffffffff\n        /* \"#utility.yul\":403:408   */\n      dup3\n        /* \"#utility.yul\":399:429   */\n      and\n        /* \"#utility.yul\":388:429   */\n      swap1\n      pop\n        /* \"#utility.yul\":334:435   */\n      swap2\n      swap1\n      pop\n      jump\t// out\n        /* \"#utility.yul\":441:561   */\n    tag_182:\n        /* \"#utility.yul\":513:536   */\n      tag_243\n        /* \"#utility.yul\":530:535   */\n      dup2\n        /* \"#utility.yul\":513:536   */\n      tag_181\n      jump\t// in\n    tag_243:\n        /* \"#utility.yul\":506:511   */\n      dup2\n        /* \"#utility.yul\":503:537   */\n      eq\n        /* \"#utility.yul\":493:555   */\n      tag_244\n      jumpi\n        /* \"#utility.yul\":551:552   */\n      0x00\n        /* \"#utility.yul\":548:549   */\n      dup1\n        /* \"#utility.yul\":541:553   */\n      revert\n        /* \"#utility.yul\":493:555   */\n    tag_244:\n        /* \"#utility.yul\":441:561   */\n      pop\n      jump\t// out\n        /* \"#utility.yul\":567:704   */\n    tag_183:\n        /* \"#utility.yul\":612:617   */\n      0x00\n        /* \"#utility.yul\":650:656   */\n      dup2\n        /* \"#utility.yul\":637:657   */\n      calldataload\n        /* \"#utility.yul\":628:657   */\n      swap1\n      pop\n        /* \"#utility.yul\":666:698   */\n      tag_246\n        /* \"#utility.yul\":692:697   */\n      dup2\n        /* \"#utility.yul\":666:698   */\n      tag_182\n      jump\t// in\n    tag_246:\n        /* \"#utility.yul\":567:704   */\n      swap3\n      swap2\n      pop\n      pop\n      jump\t// out\n        /* \"#utility.yul\":710:1037   */\n    tag_13:\n        /* \"#utility.yul\":768:774   */\n      0x00\n        /* \"#utility.yul\":817:819   */\n      0x20\n        /* \"#utility.yul\":805:814   */\n      dup3\n        /* \"#utility.yul\":796:803   */\n      dup5\n        /* \"#utility.yul\":792:815   */\n      sub\n        /* \"#utility.yul\":788:820   */\n      slt\n        /* \"#utility.yul\":785:904   */\n      iszero\n      tag_248\n      jumpi\n        /* \"#utility.yul\":823:902   */\n      tag_249\n      tag_179\n      jump\t// in\n    tag_249:\n        /* \"#utility.yul\":785:904   */\n    tag_248:\n        /* \"#utility.yul\":943:944   */\n      0x00\n        /* \"#utility.yul\":968:1020   */\n      tag_250\n        /* \"#utility.yul\":1012:1019   */\n      dup5\n        /* \"#utility.yul\":1003:1009   */\n      dup3\n        /* \"#utility.yul\":992:1001   */\n      dup6\n        /* \"#utility.yul\":988:1010   */\n      add\n        /* \"#utility.yul\":968:1020   */\n      tag_183\n      jump\t// in\n    tag_250:\n        /* \"#utility.yul\":958:1020   */\n      swap2\n      pop\n        /* \"#utility.yul\":914:1030   */\n      pop\n        /* \"#utility.yul\":710:1037   */\n      swap3\n      swap2\n      pop\n      pop\n      jump\t// out\n        /* \"#utility.yul\":1043:1133   */\n    tag_184:\n        /* \"#utility.yul\":1077:1084   */\n      0x00\n        /* \"#utility.yul\":1120:1125   */\n      dup2\n        /* \"#utility.yul\":1113:1126   */\n      iszero\n        /* \"#utility.yul\":1106:1127   */\n      iszero\n        /* \"#utility.yul\":1095:1127   */\n      swap1\n      pop\n        /* \"#utility.yul\":1043:1133   */\n      swap2\n      swap1\n      pop\n      jump\t// out\n        /* \"#utility.yul\":1139:1248   */\n    tag_185:\n        /* \"#utility.yul\":1220:1241   */\n      tag_253\n        /* \"#utility.yul\":1235:1240   */\n      dup2\n        /* \"#utility.yul\":1220:1241   */\n      tag_184\n      jump\t// in\n    tag_253:\n        /* \"#utility.yul\":1215:1218   */\n      dup3\n        /* \"#utility.yul\":1208:1242   */\n      mstore\n        /* \"#utility.yul\":1139:1248   */\n      pop\n      pop\n      jump\t// out\n        /* \"#utility.yul\":1254:1464   */\n    tag_16:\n        /* \"#utility.yul\":1341:1345   */\n      0x00\n        /* \"#utility.yul\":1379:1381   */\n      0x20\n        /* \"#utility.yul\":1368:1377   */\n      dup3\n        /* \"#utility.yul\":1364:1382   */\n      add\n        /* \"#utility.yul\":1356:1382   */\n      swap1\n      pop\n        /* \"#utility.yul\":1392:1457   */\n      tag_255\n        /* \"#utility.yul\":1454:1455   */\n      0x00\n        /* \"#utility.yul\":1443:1452   */\n      dup4\n        /* \"#utility.yul\":1439:1456   */\n      add\n        /* \"#utility.yul\":1430:1436   */\n      dup5\n        /* \"#utility.yul\":1392:1457   */\n      tag_185\n      jump\t// in\n    tag_255:\n        /* \"#utility.yul\":1254:1464   */\n      swap3\n      swap2\n      pop\n      pop\n      jump\t// out\n        /* \"#utility.yul\":1470:1596   */\n    tag_186:\n        /* \"#utility.yul\":1507:1514   */\n      0x00\n        /* \"#utility.yul\":1547:1589   */\n      0xffffffffffffffffffffffffffffffffffffffff\n        /* \"#utility.yul\":1540:1545   */\n      dup3\n        /* \"#utility.yul\":1536:1590   */\n      and\n        /* \"#utility.yul\":1525:1590   */\n      swap1\n      pop\n        /* \"#utility.yul\":1470:1596   */\n      swap2\n      swap1\n      pop\n      jump\t// out\n        /* \"#utility.yul\":1602:1698   */\n    tag_187:\n        /* \"#utility.yul\":1639:1646   */\n      0x00\n        /* \"#utility.yul\":1668:1692   */\n      tag_258\n        /* \"#utility.yul\":1686:1691   */\n      dup3\n        /* \"#utility.yul\":1668:1692   */\n      tag_186\n      jump\t// in\n    tag_258:\n        /* \"#utility.yul\":1657:1692   */\n      swap1\n      pop\n        /* \"#utility.yul\":1602:1698   */\n      swap2\n      swap1\n      pop\n      jump\t// out\n        /* \"#utility.yul\":1704:1826   */\n    tag_188:\n        /* \"#utility.yul\":1777:1801   */\n      tag_260\n        /* \"#utility.yul\":1795:1800   */\n      dup2\n        /* \"#utility.yul\":1777:1801   */\n      tag_187\n      jump\t// in\n    tag_260:\n        /* \"#utility.yul\":1770:1775   */\n      dup2\n        /* \"#utility.yul\":1767:1802   */\n      eq\n        /* \"#utility.yul\":1757:1820   */\n      tag_261\n      jumpi\n        /* \"#utility.yul\":1816:1817   */\n      0x00\n        /* \"#utility.yul\":1813:1814   */\n      dup1\n        /* \"#utility.yul\":1806:1818   */\n      revert\n        /* \"#utility.yul\":1757:1820   */\n    tag_261:\n        /* \"#utility.yul\":1704:1826   */\n      pop\n      jump\t// out\n        /* \"#utility.yul\":1832:1971   */\n    tag_189:\n        /* \"#utility.yul\":1878:1883   */\n      0x00\n        /* \"#utility.yul\":1916:1922   */\n      dup2\n        /* \"#utility.yul\":1903:1923   */\n      calldataload\n        /* \"#utility.yul\":1894:1923   */\n      swap1\n      pop\n        /* \"#utility.yul\":1932:1965   */\n      tag_263\n        /* \"#utility.yul\":1959:1964   */\n      dup2\n        /* \"#utility.yul\":1932:1965   */\n      tag_188\n      jump\t// in\n    tag_263:\n        /* \"#utility.yul\":1832:1971   */\n      swap3\n      swap2\n      pop\n      pop\n      jump\t// out\n        /* \"#utility.yul\":1977:2451   */\n    tag_19:\n        /* \"#utility.yul\":2045:2051   */\n      0x00\n        /* \"#utility.yul\":2053:2059   */\n      dup1\n        /* \"#utility.yul\":2102:2104   */\n      0x40\n        /* \"#utility.yul\":2090:2099   */\n      dup4\n        /* \"#utility.yul\":2081:2088   */\n      dup6\n        /* \"#utility.yul\":2077:2100   */\n      sub\n        /* \"#utility.yul\":2073:2105   */\n      slt\n        /* \"#utility.yul\":2070:2189   */\n      iszero\n      tag_265\n      jumpi\n        /* \"#utility.yul\":2108:2187   */\n      tag_266\n      tag_179\n      jump\t// in\n    tag_266:\n        /* \"#utility.yul\":2070:2189   */\n    tag_265:\n        /* \"#utility.yul\":2228:2229   */\n      0x00\n        /* \"#utility.yul\":2253:2306   */\n      tag_267\n        /* \"#utility.yul\":2298:2305   */\n      dup6\n        /* \"#utility.yul\":2289:2295   */\n      dup3\n        /* \"#utility.yul\":2278:2287   */\n      dup7\n        /* \"#utility.yul\":2274:2296   */\n      add\n        /* \"#utility.yul\":2253:2306   */\n      tag_189\n      jump\t// in\n    tag_267:\n        /* \"#utility.yul\":2243:2306   */\n      swap3\n      pop\n        /* \"#utility.yul\":2199:2316   */\n      pop\n        /* \"#utility.yul\":2355:2357   */\n      0x20\n        /* \"#utility.yul\":2381:2434   */\n      tag_268\n        /* \"#utility.yul\":2426:2433   */\n      dup6\n        /* \"#utility.yul\":2417:2423   */\n      dup3\n        /* \"#utility.yul\":2406:2415   */\n      dup7\n        /* \"#utility.yul\":2402:2424   */\n      add\n        /* \"#utility.yul\":2381:2434   */\n      tag_189\n      jump\t// in\n    tag_268:\n        /* \"#utility.yul\":2371:2434   */\n      swap2\n      pop\n        /* \"#utility.yul\":2326:2444   */\n      pop\n        /* \"#utility.yul\":1977:2451   */\n      swap3\n      pop\n      swap3\n      swap1\n      pop\n      jump\t// out\n        /* \"#utility.yul\":2457:2534   */\n    tag_190:\n        /* \"#utility.yul\":2494:2501   */\n      0x00\n        /* \"#utility.yul\":2523:2528   */\n      dup2\n        /* \"#utility.yul\":2512:2528   */\n      swap1\n      pop\n        /* \"#utility.yul\":2457:2534   */\n      swap2\n      swap1\n      pop\n      jump\t// out\n        /* \"#utility.yul\":2540:2662   */\n    tag_191:\n        /* \"#utility.yul\":2613:2637   */\n      tag_271\n        /* \"#utility.yul\":2631:2636   */\n      dup2\n        /* \"#utility.yul\":2613:2637   */\n      tag_190\n      jump\t// in\n    tag_271:\n        /* \"#utility.yul\":2606:2611   */\n      dup2\n        /* \"#utility.yul\":2603:2638   */\n      eq\n        /* \"#utility.yul\":2593:2656   */\n      tag_272\n      jumpi\n        /* \"#utility.yul\":2652:2653   */\n      0x00\n        /* \"#utility.yul\":2649:2650   */\n      dup1\n        /* \"#utility.yul\":2642:2654   */\n      revert\n        /* \"#utility.yul\":2593:2656   */\n    tag_272:\n        /* \"#utility.yul\":2540:2662   */\n      pop\n      jump\t// out\n        /* \"#utility.yul\":2668:2807   */\n    tag_192:\n        /* \"#utility.yul\":2714:2719   */\n      0x00\n        /* \"#utility.yul\":2752:2758   */\n      dup2\n        /* \"#utility.yul\":2739:2759   */\n      calldataload\n        /* \"#utility.yul\":2730:2759   */\n      swap1\n      pop\n        /* \"#utility.yul\":2768:2801   */\n      tag_274\n        /* \"#utility.yul\":2795:2800   */\n      dup2\n        /* \"#utility.yul\":2768:2801   */\n      tag_191\n      jump\t// in\n    tag_274:\n        /* \"#utility.yul\":2668:2807   */\n      swap3\n      swap2\n      pop\n      pop\n      jump\t// out\n        /* \"#utility.yul\":2813:3574   */\n    tag_23:\n        /* \"#utility.yul\":2897:2903   */\n      0x00\n        /* \"#utility.yul\":2905:2911   */\n      dup1\n        /* \"#utility.yul\":2913:2919   */\n      0x00\n        /* \"#utility.yul\":2921:2927   */\n      dup1\n        /* \"#utility.yul\":2970:2973   */\n      0x80\n        /* \"#utility.yul\":2958:2967   */\n      dup6\n        /* \"#utility.yul\":2949:2956   */\n      dup8\n        /* \"#utility.yul\":2945:2968   */\n      sub\n        /* \"#utility.yul\":2941:2974   */\n      slt\n        /* \"#utility.yul\":2938:3058   */\n      iszero\n      tag_276\n      jumpi\n        /* \"#utility.yul\":2977:3056   */\n      tag_277\n      tag_179\n      jump\t// in\n    tag_277:\n        /* \"#utility.yul\":2938:3058   */\n    tag_276:\n        /* \"#utility.yul\":3097:3098   */\n      0x00\n        /* \"#utility.yul\":3122:3174   */\n      tag_278\n        /* \"#utility.yul\":3166:3173   */\n      dup8\n        /* \"#utility.yul\":3157:3163   */\n      dup3\n        /* \"#utility.yul\":3146:3155   */\n      dup9\n        /* \"#utility.yul\":3142:3164   */\n      add\n        /* \"#utility.yul\":3122:3174   */\n      tag_183\n      jump\t// in\n    tag_278:\n        /* \"#utility.yul\":3112:3174   */\n      swap5\n      pop\n        /* \"#utility.yul\":3068:3184   */\n      pop\n        /* \"#utility.yul\":3223:3225   */\n      0x20\n        /* \"#utility.yul\":3249:3302   */\n      tag_279\n        /* \"#utility.yul\":3294:3301   */\n      dup8\n        /* \"#utility.yul\":3285:3291   */\n      dup3\n        /* \"#utility.yul\":3274:3283   */\n      dup9\n        /* \"#utility.yul\":3270:3292   */\n      add\n        /* \"#utility.yul\":3249:3302   */\n      tag_189\n      jump\t// in\n    tag_279:\n        /* \"#utility.yul\":3239:3302   */\n      swap4\n      pop\n        /* \"#utility.yul\":3194:3312   */\n      pop\n        /* \"#utility.yul\":3351:3353   */\n      0x40\n        /* \"#utility.yul\":3377:3430   */\n      tag_280\n        /* \"#utility.yul\":3422:3429   */\n      dup8\n        /* \"#utility.yul\":3413:3419   */\n      dup3\n        /* \"#utility.yul\":3402:3411   */\n      dup9\n        /* \"#utility.yul\":3398:3420   */\n      add\n        /* \"#utility.yul\":3377:3430   */\n      tag_192\n      jump\t// in\n    tag_280:\n        /* \"#utility.yul\":3367:3430   */\n      swap3\n      pop\n        /* \"#utility.yul\":3322:3440   */\n      pop\n        /* \"#utility.yul\":3479:3481   */\n      0x60\n        /* \"#utility.yul\":3505:3557   */\n      tag_281\n        /* \"#utility.yul\":3549:3556   */\n      dup8\n        /* \"#utility.yul\":3540:3546   */\n      dup3\n        /* \"#utility.yul\":3529:3538   */\n      dup9\n        /* \"#utility.yul\":3525:3547   */\n      add\n        /* \"#utility.yul\":3505:3557   */\n      tag_183\n      jump\t// in\n    tag_281:\n        /* \"#utility.yul\":3495:3557   */\n      swap2\n      pop\n        /* \"#utility.yul\":3450:3567   */\n      pop\n        /* \"#utility.yul\":2813:3574   */\n      swap3\n      swap6\n      swap2\n      swap5\n      pop\n      swap3\n      pop\n      jump\t// out\n        /* \"#utility.yul\":3580:3657   */\n    tag_193:\n        /* \"#utility.yul\":3617:3624   */\n      0x00\n        /* \"#utility.yul\":3646:3651   */\n      dup2\n        /* \"#utility.yul\":3635:3651   */\n      swap1\n      pop\n        /* \"#utility.yul\":3580:3657   */\n      swap2\n      swap1\n      pop\n      jump\t// out\n        /* \"#utility.yul\":3663:3781   */\n    tag_194:\n        /* \"#utility.yul\":3750:3774   */\n      tag_284\n        /* \"#utility.yul\":3768:3773   */\n      dup2\n        /* \"#utility.yul\":3750:3774   */\n      tag_193\n      jump\t// in\n    tag_284:\n        /* \"#utility.yul\":3745:3748   */\n      dup3\n        /* \"#utility.yul\":3738:3775   */\n      mstore\n        /* \"#utility.yul\":3663:3781   */\n      pop\n      pop\n      jump\t// out\n        /* \"#utility.yul\":3787:4009   */\n    tag_26:\n        /* \"#utility.yul\":3880:3884   */\n      0x00\n        /* \"#utility.yul\":3918:3920   */\n      0x20\n        /* \"#utility.yul\":3907:3916   */\n      dup3\n        /* \"#utility.yul\":3903:3921   */\n      add\n        /* \"#utility.yul\":3895:3921   */\n      swap1\n      pop\n        /* \"#utility.yul\":3931:4002   */\n      tag_286\n        /* \"#utility.yul\":3999:4000   */\n      0x00\n        /* \"#utility.yul\":3988:3997   */\n      dup4\n        /* \"#utility.yul\":3984:4001   */\n      add\n        /* \"#utility.yul\":3975:3981   */\n      dup5\n        /* \"#utility.yul\":3931:4002   */\n      tag_194\n      jump\t// in\n    tag_286:\n        /* \"#utility.yul\":3787:4009   */\n      swap3\n      swap2\n      pop\n      pop\n      jump\t// out\n        /* \"#utility.yul\":4015:4133   */\n    tag_195:\n        /* \"#utility.yul\":4102:4126   */\n      tag_288\n        /* \"#utility.yul\":4120:4125   */\n      dup2\n        /* \"#utility.yul\":4102:4126   */\n      tag_187\n      jump\t// in\n    tag_288:\n        /* \"#utility.yul\":4097:4100   */\n      dup3\n        /* \"#utility.yul\":4090:4127   */\n      mstore\n        /* \"#utility.yul\":4015:4133   */\n      pop\n      pop\n      jump\t// out\n        /* \"#utility.yul\":4139:4361   */\n    tag_32:\n        /* \"#utility.yul\":4232:4236   */\n      0x00\n        /* \"#utility.yul\":4270:4272   */\n      0x20\n        /* \"#utility.yul\":4259:4268   */\n      dup3\n        /* \"#utility.yul\":4255:4273   */\n      add\n        /* \"#utility.yul\":4247:4273   */\n      swap1\n      pop\n        /* \"#utility.yul\":4283:4354   */\n      tag_290\n        /* \"#utility.yul\":4351:4352   */\n      0x00\n        /* \"#utility.yul\":4340:4349   */\n      dup4\n        /* \"#utility.yul\":4336:4353   */\n      add\n        /* \"#utility.yul\":4327:4333   */\n      dup5\n        /* \"#utility.yul\":4283:4354   */\n      tag_195\n      jump\t// in\n    tag_290:\n        /* \"#utility.yul\":4139:4361   */\n      swap3\n      swap2\n      pop\n      pop\n      jump\t// out\n        /* \"#utility.yul\":4367:4483   */\n    tag_196:\n        /* \"#utility.yul\":4437:4458   */\n      tag_292\n        /* \"#utility.yul\":4452:4457   */\n      dup2\n        /* \"#utility.yul\":4437:4458   */\n      tag_184\n      jump\t// in\n    tag_292:\n        /* \"#utility.yul\":4430:4435   */\n      dup2\n        /* \"#utility.yul\":4427:4459   */\n      eq\n        /* \"#utility.yul\":4417:4477   */\n      tag_293\n      jumpi\n        /* \"#utility.yul\":4473:4474   */\n      0x00\n        /* \"#utility.yul\":4470:4471   */\n      dup1\n        /* \"#utility.yul\":4463:4475   */\n      revert\n        /* \"#utility.yul\":4417:4477   */\n    tag_293:\n        /* \"#utility.yul\":4367:4483   */\n      pop\n      jump\t// out\n        /* \"#utility.yul\":4489:4622   */\n    tag_197:\n        /* \"#utility.yul\":4532:4537   */\n      0x00\n        /* \"#utility.yul\":4570:4576   */\n      dup2\n        /* \"#utility.yul\":4557:4577   */\n      calldataload\n        /* \"#utility.yul\":4548:4577   */\n      swap1\n      pop\n        /* \"#utility.yul\":4586:4616   */\n      tag_295\n        /* \"#utility.yul\":4610:4615   */\n      dup2\n        /* \"#utility.yul\":4586:4616   */\n      tag_196\n      jump\t// in\n    tag_295:\n        /* \"#utility.yul\":4489:4622   */\n      swap3\n      swap2\n      pop\n      pop\n      jump\t// out\n        /* \"#utility.yul\":4628:5094   */\n    tag_35:\n        /* \"#utility.yul\":4692:4698   */\n      0x00\n        /* \"#utility.yul\":4700:4706   */\n      dup1\n        /* \"#utility.yul\":4749:4751   */\n      0x40\n        /* \"#utility.yul\":4737:4746   */\n      dup4\n        /* \"#utility.yul\":4728:4735   */\n      dup6\n        /* \"#utility.yul\":4724:4747   */\n      sub\n        /* \"#utility.yul\":4720:4752   */\n      slt\n        /* \"#utility.yul\":4717:4836   */\n      iszero\n      tag_297\n      jumpi\n        /* \"#utility.yul\":4755:4834   */\n      tag_298\n      tag_179\n      jump\t// in\n    tag_298:\n        /* \"#utility.yul\":4717:4836   */\n    tag_297:\n        /* \"#utility.yul\":4875:4876   */\n      0x00\n        /* \"#utility.yul\":4900:4952   */\n      tag_299\n        /* \"#utility.yul\":4944:4951   */\n      dup6\n        /* \"#utility.yul\":4935:4941   */\n      dup3\n        /* \"#utility.yul\":4924:4933   */\n      dup7\n        /* \"#utility.yul\":4920:4942   */\n      add\n        /* \"#utility.yul\":4900:4952   */\n      tag_183\n      jump\t// in\n    tag_299:\n        /* \"#utility.yul\":4890:4952   */\n      swap3\n      pop\n        /* \"#utility.yul\":4846:4962   */\n      pop\n        /* \"#utility.yul\":5001:5003   */\n      0x20\n        /* \"#utility.yul\":5027:5077   */\n      tag_300\n        /* \"#utility.yul\":5069:5076   */\n      dup6\n        /* \"#utility.yul\":5060:5066   */\n      dup3\n        /* \"#utility.yul\":5049:5058   */\n      dup7\n        /* \"#utility.yul\":5045:5067   */\n      add\n        /* \"#utility.yul\":5027:5077   */\n      tag_197\n      jump\t// in\n    tag_300:\n        /* \"#utility.yul\":5017:5077   */\n      swap2\n      pop\n        /* \"#utility.yul\":4972:5087   */\n      pop\n        /* \"#utility.yul\":4628:5094   */\n      swap3\n      pop\n      swap3\n      swap1\n      pop\n      jump\t// out\n        /* \"#utility.yul\":5100:5429   */\n    tag_39:\n        /* \"#utility.yul\":5159:5165   */\n      0x00\n        /* \"#utility.yul\":5208:5210   */\n      0x20\n        /* \"#utility.yul\":5196:5205   */\n      dup3\n        /* \"#utility.yul\":5187:5194   */\n      dup5\n        /* \"#utility.yul\":5183:5206   */\n      sub\n        /* \"#utility.yul\":5179:5211   */\n      slt\n        /* \"#utility.yul\":5176:5295   */\n      iszero\n      tag_302\n      jumpi\n        /* \"#utility.yul\":5214:5293   */\n      tag_303\n      tag_179\n      jump\t// in\n    tag_303:\n        /* \"#utility.yul\":5176:5295   */\n    tag_302:\n        /* \"#utility.yul\":5334:5335   */\n      0x00\n        /* \"#utility.yul\":5359:5412   */\n      tag_304\n        /* \"#utility.yul\":5404:5411   */\n      dup5\n        /* \"#utility.yul\":5395:5401   */\n      dup3\n        /* \"#utility.yul\":5384:5393   */\n      dup6\n        /* \"#utility.yul\":5380:5402   */\n      add\n        /* \"#utility.yul\":5359:5412   */\n      tag_189\n      jump\t// in\n    tag_304:\n        /* \"#utility.yul\":5349:5412   */\n      swap2\n      pop\n        /* \"#utility.yul\":5305:5422   */\n      pop\n        /* \"#utility.yul\":5100:5429   */\n      swap3\n      swap2\n      pop\n      pop\n      jump\t// out\n        /* \"#utility.yul\":5435:5578   */\n    tag_198:\n        /* \"#utility.yul\":5492:5497   */\n      0x00\n        /* \"#utility.yul\":5523:5529   */\n      dup2\n        /* \"#utility.yul\":5517:5530   */\n      mload\n        /* \"#utility.yul\":5508:5530   */\n      swap1\n      pop\n        /* \"#utility.yul\":5539:5572   */\n      tag_306\n        /* \"#utility.yul\":5566:5571   */\n      dup2\n        /* \"#utility.yul\":5539:5572   */\n      tag_191\n      jump\t// in\n    tag_306:\n        /* \"#utility.yul\":5435:5578   */\n      swap3\n      swap2\n      pop\n      pop\n      jump\t// out\n        /* \"#utility.yul\":5584:5935   */\n    tag_49:\n        /* \"#utility.yul\":5654:5660   */\n      0x00\n        /* \"#utility.yul\":5703:5705   */\n      0x20\n        /* \"#utility.yul\":5691:5700   */\n      dup3\n        /* \"#utility.yul\":5682:5689   */\n      dup5\n        /* \"#utility.yul\":5678:5701   */\n      sub\n        /* \"#utility.yul\":5674:5706   */\n      slt\n        /* \"#utility.yul\":5671:5790   */\n      iszero\n      tag_308\n      jumpi\n        /* \"#utility.yul\":5709:5788   */\n      tag_309\n      tag_179\n      jump\t// in\n    tag_309:\n        /* \"#utility.yul\":5671:5790   */\n    tag_308:\n        /* \"#utility.yul\":5829:5830   */\n      0x00\n        /* \"#utility.yul\":5854:5918   */\n      tag_310\n        /* \"#utility.yul\":5910:5917   */\n      dup5\n        /* \"#utility.yul\":5901:5907   */\n      dup3\n        /* \"#utility.yul\":5890:5899   */\n      dup6\n        /* \"#utility.yul\":5886:5908   */\n      add\n        /* \"#utility.yul\":5854:5918   */\n      tag_198\n      jump\t// in\n    tag_310:\n        /* \"#utility.yul\":5844:5918   */\n      swap2\n      pop\n        /* \"#utility.yul\":5800:5928   */\n      pop\n        /* \"#utility.yul\":5584:5935   */\n      swap3\n      swap2\n      pop\n      pop\n      jump\t// out\n        /* \"#utility.yul\":5941:6059   */\n    tag_199:\n        /* \"#utility.yul\":6028:6052   */\n      tag_312\n        /* \"#utility.yul\":6046:6051   */\n      dup2\n        /* \"#utility.yul\":6028:6052   */\n      tag_190\n      jump\t// in\n    tag_312:\n        /* \"#utility.yul\":6023:6026   */\n      dup3\n        /* \"#utility.yul\":6016:6053   */\n      mstore\n        /* \"#utility.yul\":5941:6059   */\n      pop\n      pop\n      jump\t// out\n        /* \"#utility.yul\":6065:6397   */\n    tag_52:\n        /* \"#utility.yul\":6186:6190   */\n      0x00\n        /* \"#utility.yul\":6224:6226   */\n      0x40\n        /* \"#utility.yul\":6213:6222   */\n      dup3\n        /* \"#utility.yul\":6209:6227   */\n      add\n        /* \"#utility.yul\":6201:6227   */\n      swap1\n      pop\n        /* \"#utility.yul\":6237:6308   */\n      tag_314\n        /* \"#utility.yul\":6305:6306   */\n      0x00\n        /* \"#utility.yul\":6294:6303   */\n      dup4\n        /* \"#utility.yul\":6290:6307   */\n      add\n        /* \"#utility.yul\":6281:6287   */\n      dup6\n        /* \"#utility.yul\":6237:6308   */\n      tag_195\n      jump\t// in\n    tag_314:\n        /* \"#utility.yul\":6318:6390   */\n      tag_315\n        /* \"#utility.yul\":6386:6388   */\n      0x20\n        /* \"#utility.yul\":6375:6384   */\n      dup4\n        /* \"#utility.yul\":6371:6389   */\n      add\n        /* \"#utility.yul\":6362:6368   */\n      dup5\n        /* \"#utility.yul\":6318:6390   */\n      tag_199\n      jump\t// in\n    tag_315:\n        /* \"#utility.yul\":6065:6397   */\n      swap4\n      swap3\n      pop\n      pop\n      pop\n      jump\t// out\n        /* \"#utility.yul\":6403:6540   */\n    tag_200:\n        /* \"#utility.yul\":6457:6462   */\n      0x00\n        /* \"#utility.yul\":6488:6494   */\n      dup2\n        /* \"#utility.yul\":6482:6495   */\n      mload\n        /* \"#utility.yul\":6473:6495   */\n      swap1\n      pop\n        /* \"#utility.yul\":6504:6534   */\n      tag_317\n        /* \"#utility.yul\":6528:6533   */\n      dup2\n        /* \"#utility.yul\":6504:6534   */\n      tag_196\n      jump\t// in\n    tag_317:\n        /* \"#utility.yul\":6403:6540   */\n      swap3\n      swap2\n      pop\n      pop\n      jump\t// out\n        /* \"#utility.yul\":6546:6891   */\n    tag_56:\n        /* \"#utility.yul\":6613:6619   */\n      0x00\n        /* \"#utility.yul\":6662:6664   */\n      0x20\n        /* \"#utility.yul\":6650:6659   */\n      dup3\n        /* \"#utility.yul\":6641:6648   */\n      dup5\n        /* \"#utility.yul\":6637:6660   */\n      sub\n        /* \"#utility.yul\":6633:6665   */\n      slt\n        /* \"#utility.yul\":6630:6749   */\n      iszero\n      tag_319\n      jumpi\n        /* \"#utility.yul\":6668:6747   */\n      tag_320\n      tag_179\n      jump\t// in\n    tag_320:\n        /* \"#utility.yul\":6630:6749   */\n    tag_319:\n        /* \"#utility.yul\":6788:6789   */\n      0x00\n        /* \"#utility.yul\":6813:6874   */\n      tag_321\n        /* \"#utility.yul\":6866:6873   */\n      dup5\n        /* \"#utility.yul\":6857:6863   */\n      dup3\n        /* \"#utility.yul\":6846:6855   */\n      dup6\n        /* \"#utility.yul\":6842:6864   */\n      add\n        /* \"#utility.yul\":6813:6874   */\n      tag_200\n      jump\t// in\n    tag_321:\n        /* \"#utility.yul\":6803:6874   */\n      swap2\n      pop\n        /* \"#utility.yul\":6759:6884   */\n      pop\n        /* \"#utility.yul\":6546:6891   */\n      swap3\n      swap2\n      pop\n      pop\n      jump\t// out\n        /* \"#utility.yul\":6897:7012   */\n    tag_201:\n        /* \"#utility.yul\":6982:7005   */\n      tag_323\n        /* \"#utility.yul\":6999:7004   */\n      dup2\n        /* \"#utility.yul\":6982:7005   */\n      tag_181\n      jump\t// in\n    tag_323:\n        /* \"#utility.yul\":6977:6980   */\n      dup3\n        /* \"#utility.yul\":6970:7006   */\n      mstore\n        /* \"#utility.yul\":6897:7012   */\n      pop\n      pop\n      jump\t// out\n        /* \"#utility.yul\":7018:7236   */\n    tag_62:\n        /* \"#utility.yul\":7109:7113   */\n      0x00\n        /* \"#utility.yul\":7147:7149   */\n      0x20\n        /* \"#utility.yul\":7136:7145   */\n      dup3\n        /* \"#utility.yul\":7132:7150   */\n      add\n        /* \"#utility.yul\":7124:7150   */\n      swap1\n      pop\n        /* \"#utility.yul\":7160:7229   */\n      tag_325\n        /* \"#utility.yul\":7226:7227   */\n      0x00\n        /* \"#utility.yul\":7215:7224   */\n      dup4\n        /* \"#utility.yul\":7211:7228   */\n      add\n        /* \"#utility.yul\":7202:7208   */\n      dup5\n        /* \"#utility.yul\":7160:7229   */\n      tag_201\n      jump\t// in\n    tag_325:\n        /* \"#utility.yul\":7018:7236   */\n      swap3\n      swap2\n      pop\n      pop\n      jump\t// out\n        /* \"#utility.yul\":7242:7422   */\n    tag_66:\n        /* \"#utility.yul\":7290:7367   */\n      0x4e487b7100000000000000000000000000000000000000000000000000000000\n        /* \"#utility.yul\":7287:7288   */\n      0x00\n        /* \"#utility.yul\":7280:7368   */\n      mstore\n        /* \"#utility.yul\":7387:7391   */\n      0x41\n        /* \"#utility.yul\":7384:7385   */\n      0x04\n        /* \"#utility.yul\":7377:7392   */\n      mstore\n        /* \"#utility.yul\":7411:7415   */\n      0x24\n        /* \"#utility.yul\":7408:7409   */\n      0x00\n        /* \"#utility.yul\":7401:7416   */\n      revert\n        /* \"#utility.yul\":7428:7608   */\n    tag_73:\n        /* \"#utility.yul\":7476:7553   */\n      0x4e487b7100000000000000000000000000000000000000000000000000000000\n        /* \"#utility.yul\":7473:7474   */\n      0x00\n        /* \"#utility.yul\":7466:7554   */\n      mstore\n        /* \"#utility.yul\":7573:7577   */\n      0x32\n        /* \"#utility.yul\":7570:7571   */\n      0x04\n        /* \"#utility.yul\":7563:7578   */\n      mstore\n        /* \"#utility.yul\":7597:7601   */\n      0x24\n        /* \"#utility.yul\":7594:7595   */\n      0x00\n        /* \"#utility.yul\":7587:7602   */\n      revert\n        /* \"#utility.yul\":7614:7712   */\n    tag_202:\n        /* \"#utility.yul\":7665:7671   */\n      0x00\n        /* \"#utility.yul\":7699:7704   */\n      dup2\n        /* \"#utility.yul\":7693:7705   */\n      mload\n        /* \"#utility.yul\":7683:7705   */\n      swap1\n      pop\n        /* \"#utility.yul\":7614:7712   */\n      swap2\n      swap1\n      pop\n      jump\t// out\n        /* \"#utility.yul\":7718:7876   */\n    tag_203:\n        /* \"#utility.yul\":7791:7802   */\n      0x00\n        /* \"#utility.yul\":7825:7831   */\n      dup3\n        /* \"#utility.yul\":7820:7823   */\n      dup3\n        /* \"#utility.yul\":7813:7832   */\n      mstore\n        /* \"#utility.yul\":7865:7869   */\n      0x20\n        /* \"#utility.yul\":7860:7863   */\n      dup3\n        /* \"#utility.yul\":7856:7870   */\n      add\n        /* \"#utility.yul\":7841:7870   */\n      swap1\n      pop\n        /* \"#utility.yul\":7718:7876   */\n      swap3\n      swap2\n      pop\n      pop\n      jump\t// out\n        /* \"#utility.yul\":7882:8128   */\n    tag_204:\n        /* \"#utility.yul\":7963:7964   */\n      0x00\n        /* \"#utility.yul\":7973:8086   */\n    tag_331:\n        /* \"#utility.yul\":7987:7993   */\n      dup4\n        /* \"#utility.yul\":7984:7985   */\n      dup2\n        /* \"#utility.yul\":7981:7994   */\n      lt\n        /* \"#utility.yul\":7973:8086   */\n      iszero\n      tag_333\n      jumpi\n        /* \"#utility.yul\":8072:8073   */\n      dup1\n        /* \"#utility.yul\":8067:8070   */\n      dup3\n        /* \"#utility.yul\":8063:8074   */\n      add\n        /* \"#utility.yul\":8057:8075   */\n      mload\n        /* \"#utility.yul\":8053:8054   */\n      dup2\n        /* \"#utility.yul\":8048:8051   */\n      dup5\n        /* \"#utility.yul\":8044:8055   */\n      add\n        /* \"#utility.yul\":8037:8076   */\n      mstore\n        /* \"#utility.yul\":8009:8011   */\n      0x20\n        /* \"#utility.yul\":8006:8007   */\n      dup2\n        /* \"#utility.yul\":8002:8012   */\n      add\n        /* \"#utility.yul\":7997:8012   */\n      swap1\n      pop\n        /* \"#utility.yul\":7973:8086   */\n      jump(tag_331)\n    tag_333:\n        /* \"#utility.yul\":8120:8121   */\n      0x00\n        /* \"#utility.yul\":8111:8117   */\n      dup5\n        /* \"#utility.yul\":8106:8109   */\n      dup5\n        /* \"#utility.yul\":8102:8118   */\n      add\n        /* \"#utility.yul\":8095:8122   */\n      mstore\n        /* \"#utility.yul\":7944:8128   */\n      pop\n        /* \"#utility.yul\":7882:8128   */\n      pop\n      pop\n      pop\n      jump\t// out\n        /* \"#utility.yul\":8134:8236   */\n    tag_205:\n        /* \"#utility.yul\":8175:8181   */\n      0x00\n        /* \"#utility.yul\":8226:8228   */\n      0x1f\n        /* \"#utility.yul\":8222:8229   */\n      not\n        /* \"#utility.yul\":8217:8219   */\n      0x1f\n        /* \"#utility.yul\":8210:8215   */\n      dup4\n        /* \"#utility.yul\":8206:8220   */\n      add\n        /* \"#utility.yul\":8202:8230   */\n      and\n        /* \"#utility.yul\":8192:8230   */\n      swap1\n      pop\n        /* \"#utility.yul\":8134:8236   */\n      swap2\n      swap1\n      pop\n      jump\t// out\n        /* \"#utility.yul\":8242:8595   */\n    tag_206:\n        /* \"#utility.yul\":8318:8321   */\n      0x00\n        /* \"#utility.yul\":8346:8384   */\n      tag_336\n        /* \"#utility.yul\":8378:8383   */\n      dup3\n        /* \"#utility.yul\":8346:8384   */\n      tag_202\n      jump\t// in\n    tag_336:\n        /* \"#utility.yul\":8400:8460   */\n      tag_337\n        /* \"#utility.yul\":8453:8459   */\n      dup2\n        /* \"#utility.yul\":8448:8451   */\n      dup6\n        /* \"#utility.yul\":8400:8460   */\n      tag_203\n      jump\t// in\n    tag_337:\n        /* \"#utility.yul\":8393:8460   */\n      swap4\n      pop\n        /* \"#utility.yul\":8469:8534   */\n      tag_338\n        /* \"#utility.yul\":8527:8533   */\n      dup2\n        /* \"#utility.yul\":8522:8525   */\n      dup6\n        /* \"#utility.yul\":8515:8519   */\n      0x20\n        /* \"#utility.yul\":8508:8513   */\n      dup7\n        /* \"#utility.yul\":8504:8520   */\n      add\n        /* \"#utility.yul\":8469:8534   */\n      tag_204\n      jump\t// in\n    tag_338:\n        /* \"#utility.yul\":8559:8588   */\n      tag_339\n        /* \"#utility.yul\":8581:8587   */\n      dup2\n        /* \"#utility.yul\":8559:8588   */\n      tag_205\n      jump\t// in\n    tag_339:\n        /* \"#utility.yul\":8554:8557   */\n      dup5\n        /* \"#utility.yul\":8550:8589   */\n      add\n        /* \"#utility.yul\":8543:8589   */\n      swap2\n      pop\n        /* \"#utility.yul\":8322:8595   */\n      pop\n        /* \"#utility.yul\":8242:8595   */\n      swap3\n      swap2\n      pop\n      pop\n      jump\t// out\n        /* \"#utility.yul\":8601:8745   */\n    tag_207:\n        /* \"#utility.yul\":8698:8704   */\n      0x00\n        /* \"#utility.yul\":8732:8737   */\n      dup2\n        /* \"#utility.yul\":8726:8738   */\n      mload\n        /* \"#utility.yul\":8716:8738   */\n      swap1\n      pop\n        /* \"#utility.yul\":8601:8745   */\n      swap2\n      swap1\n      pop\n      jump\t// out\n        /* \"#utility.yul\":8751:8955   */\n    tag_208:\n        /* \"#utility.yul\":8870:8881   */\n      0x00\n        /* \"#utility.yul\":8904:8910   */\n      dup3\n        /* \"#utility.yul\":8899:8902   */\n      dup3\n        /* \"#utility.yul\":8892:8911   */\n      mstore\n        /* \"#utility.yul\":8944:8948   */\n      0x20\n        /* \"#utility.yul\":8939:8942   */\n      dup3\n        /* \"#utility.yul\":8935:8949   */\n      add\n        /* \"#utility.yul\":8920:8949   */\n      swap1\n      pop\n        /* \"#utility.yul\":8751:8955   */\n      swap3\n      swap2\n      pop\n      pop\n      jump\t// out\n        /* \"#utility.yul\":8961:9123   */\n    tag_209:\n        /* \"#utility.yul\":9058:9062   */\n      0x00\n        /* \"#utility.yul\":9081:9084   */\n      dup2\n        /* \"#utility.yul\":9073:9084   */\n      swap1\n      pop\n        /* \"#utility.yul\":9111:9115   */\n      0x20\n        /* \"#utility.yul\":9106:9109   */\n      dup3\n        /* \"#utility.yul\":9102:9116   */\n      add\n        /* \"#utility.yul\":9094:9116   */\n      swap1\n      pop\n        /* \"#utility.yul\":8961:9123   */\n      swap2\n      swap1\n      pop\n      jump\t// out\n        /* \"#utility.yul\":9129:9237   */\n    tag_210:\n        /* \"#utility.yul\":9206:9230   */\n      tag_344\n        /* \"#utility.yul\":9224:9229   */\n      dup2\n        /* \"#utility.yul\":9206:9230   */\n      tag_187\n      jump\t// in\n    tag_344:\n        /* \"#utility.yul\":9201:9204   */\n      dup3\n        /* \"#utility.yul\":9194:9231   */\n      mstore\n        /* \"#utility.yul\":9129:9237   */\n      pop\n      pop\n      jump\t// out\n        /* \"#utility.yul\":9243:9351   */\n    tag_211:\n        /* \"#utility.yul\":9320:9344   */\n      tag_346\n        /* \"#utility.yul\":9338:9343   */\n      dup2\n        /* \"#utility.yul\":9320:9344   */\n      tag_190\n      jump\t// in\n    tag_346:\n        /* \"#utility.yul\":9315:9318   */\n      dup3\n        /* \"#utility.yul\":9308:9345   */\n      mstore\n        /* \"#utility.yul\":9243:9351   */\n      pop\n      pop\n      jump\t// out\n        /* \"#utility.yul\":9425:9935   */\n    tag_212:\n        /* \"#utility.yul\":9572:9576   */\n      0x40\n        /* \"#utility.yul\":9567:9570   */\n      dup3\n        /* \"#utility.yul\":9563:9577   */\n      add\n        /* \"#utility.yul\":9660:9664   */\n      0x00\n        /* \"#utility.yul\":9653:9658   */\n      dup3\n        /* \"#utility.yul\":9649:9665   */\n      add\n        /* \"#utility.yul\":9643:9666   */\n      mload\n        /* \"#utility.yul\":9679:9742   */\n      tag_348\n        /* \"#utility.yul\":9736:9740   */\n      0x00\n        /* \"#utility.yul\":9731:9734   */\n      dup6\n        /* \"#utility.yul\":9727:9741   */\n      add\n        /* \"#utility.yul\":9713:9725   */\n      dup3\n        /* \"#utility.yul\":9679:9742   */\n      tag_210\n      jump\t// in\n    tag_348:\n        /* \"#utility.yul\":9587:9752   */\n      pop\n        /* \"#utility.yul\":9836:9840   */\n      0x20\n        /* \"#utility.yul\":9829:9834   */\n      dup3\n        /* \"#utility.yul\":9825:9841   */\n      add\n        /* \"#utility.yul\":9819:9842   */\n      mload\n        /* \"#utility.yul\":9855:9918   */\n      tag_349\n        /* \"#utility.yul\":9912:9916   */\n      0x20\n        /* \"#utility.yul\":9907:9910   */\n      dup6\n        /* \"#utility.yul\":9903:9917   */\n      add\n        /* \"#utility.yul\":9889:9901   */\n      dup3\n        /* \"#utility.yul\":9855:9918   */\n      tag_211\n      jump\t// in\n    tag_349:\n        /* \"#utility.yul\":9762:9928   */\n      pop\n        /* \"#utility.yul\":9541:9935   */\n      pop\n        /* \"#utility.yul\":9425:9935   */\n      pop\n      pop\n      jump\t// out\n        /* \"#utility.yul\":9941:10240   */\n    tag_213:\n        /* \"#utility.yul\":10070:10080   */\n      0x00\n        /* \"#utility.yul\":10091:10197   */\n      tag_351\n        /* \"#utility.yul\":10193:10196   */\n      dup4\n        /* \"#utility.yul\":10185:10191   */\n      dup4\n        /* \"#utility.yul\":10091:10197   */\n      tag_212\n      jump\t// in\n    tag_351:\n        /* \"#utility.yul\":10229:10233   */\n      0x40\n        /* \"#utility.yul\":10224:10227   */\n      dup4\n        /* \"#utility.yul\":10220:10234   */\n      add\n        /* \"#utility.yul\":10206:10234   */\n      swap1\n      pop\n        /* \"#utility.yul\":9941:10240   */\n      swap3\n      swap2\n      pop\n      pop\n      jump\t// out\n        /* \"#utility.yul\":10246:10389   */\n    tag_214:\n        /* \"#utility.yul\":10346:10350   */\n      0x00\n        /* \"#utility.yul\":10378:10382   */\n      0x20\n        /* \"#utility.yul\":10373:10376   */\n      dup3\n        /* \"#utility.yul\":10369:10383   */\n      add\n        /* \"#utility.yul\":10361:10383   */\n      swap1\n      pop\n        /* \"#utility.yul\":10246:10389   */\n      swap2\n      swap1\n      pop\n      jump\t// out\n        /* \"#utility.yul\":10467:11419   */\n    tag_215:\n        /* \"#utility.yul\":10636:10639   */\n      0x00\n        /* \"#utility.yul\":10665:10749   */\n      tag_354\n        /* \"#utility.yul\":10743:10748   */\n      dup3\n        /* \"#utility.yul\":10665:10749   */\n      tag_207\n      jump\t// in\n    tag_354:\n        /* \"#utility.yul\":10765:10871   */\n      tag_355\n        /* \"#utility.yul\":10864:10870   */\n      dup2\n        /* \"#utility.yul\":10859:10862   */\n      dup6\n        /* \"#utility.yul\":10765:10871   */\n      tag_208\n      jump\t// in\n    tag_355:\n        /* \"#utility.yul\":10758:10871   */\n      swap4\n      pop\n        /* \"#utility.yul\":10895:10981   */\n      tag_356\n        /* \"#utility.yul\":10975:10980   */\n      dup4\n        /* \"#utility.yul\":10895:10981   */\n      tag_209\n      jump\t// in\n    tag_356:\n        /* \"#utility.yul\":11004:11011   */\n      dup1\n        /* \"#utility.yul\":11035:11036   */\n      0x00\n        /* \"#utility.yul\":11020:11394   */\n    tag_357:\n        /* \"#utility.yul\":11045:11051   */\n      dup4\n        /* \"#utility.yul\":11042:11043   */\n      dup2\n        /* \"#utility.yul\":11039:11052   */\n      lt\n        /* \"#utility.yul\":11020:11394   */\n      iszero\n      tag_359\n      jumpi\n        /* \"#utility.yul\":11121:11127   */\n      dup2\n        /* \"#utility.yul\":11115:11128   */\n      mload\n        /* \"#utility.yul\":11148:11271   */\n      tag_360\n        /* \"#utility.yul\":11267:11270   */\n      dup9\n        /* \"#utility.yul\":11252:11265   */\n      dup3\n        /* \"#utility.yul\":11148:11271   */\n      tag_213\n      jump\t// in\n    tag_360:\n        /* \"#utility.yul\":11141:11271   */\n      swap8\n      pop\n        /* \"#utility.yul\":11294:11384   */\n      tag_361\n        /* \"#utility.yul\":11377:11383   */\n      dup4\n        /* \"#utility.yul\":11294:11384   */\n      tag_214\n      jump\t// in\n    tag_361:\n        /* \"#utility.yul\":11284:11384   */\n      swap3\n      pop\n        /* \"#utility.yul\":11080:11394   */\n      pop\n        /* \"#utility.yul\":11067:11068   */\n      0x01\n        /* \"#utility.yul\":11064:11065   */\n      dup2\n        /* \"#utility.yul\":11060:11069   */\n      add\n        /* \"#utility.yul\":11055:11069   */\n      swap1\n      pop\n        /* \"#utility.yul\":11020:11394   */\n      jump(tag_357)\n    tag_359:\n        /* \"#utility.yul\":11024:11038   */\n      pop\n        /* \"#utility.yul\":11410:11413   */\n      dup6\n        /* \"#utility.yul\":11403:11413   */\n      swap4\n      pop\n        /* \"#utility.yul\":10641:11419   */\n      pop\n      pop\n      pop\n        /* \"#utility.yul\":10467:11419   */\n      swap3\n      swap2\n      pop\n      pop\n      jump\t// out\n        /* \"#utility.yul\":11493:12949   */\n    tag_216:\n        /* \"#utility.yul\":11622:11625   */\n      0x00\n        /* \"#utility.yul\":11658:11662   */\n      0xa0\n        /* \"#utility.yul\":11653:11656   */\n      dup4\n        /* \"#utility.yul\":11649:11663   */\n      add\n        /* \"#utility.yul\":11749:11753   */\n      0x00\n        /* \"#utility.yul\":11742:11747   */\n      dup4\n        /* \"#utility.yul\":11738:11754   */\n      add\n        /* \"#utility.yul\":11732:11755   */\n      mload\n        /* \"#utility.yul\":11802:11805   */\n      dup5\n        /* \"#utility.yul\":11796:11800   */\n      dup3\n        /* \"#utility.yul\":11792:11806   */\n      sub\n        /* \"#utility.yul\":11785:11789   */\n      0x00\n        /* \"#utility.yul\":11780:11783   */\n      dup7\n        /* \"#utility.yul\":11776:11790   */\n      add\n        /* \"#utility.yul\":11769:11807   */\n      mstore\n        /* \"#utility.yul\":11828:11899   */\n      tag_363\n        /* \"#utility.yul\":11894:11898   */\n      dup3\n        /* \"#utility.yul\":11880:11892   */\n      dup3\n        /* \"#utility.yul\":11828:11899   */\n      tag_206\n      jump\t// in\n    tag_363:\n        /* \"#utility.yul\":11820:11899   */\n      swap2\n      pop\n        /* \"#utility.yul\":11673:11910   */\n      pop\n        /* \"#utility.yul\":11992:11996   */\n      0x20\n        /* \"#utility.yul\":11985:11990   */\n      dup4\n        /* \"#utility.yul\":11981:11997   */\n      add\n        /* \"#utility.yul\":11975:11998   */\n      mload\n        /* \"#utility.yul\":12045:12048   */\n      dup5\n        /* \"#utility.yul\":12039:12043   */\n      dup3\n        /* \"#utility.yul\":12035:12049   */\n      sub\n        /* \"#utility.yul\":12028:12032   */\n      0x20\n        /* \"#utility.yul\":12023:12026   */\n      dup7\n        /* \"#utility.yul\":12019:12033   */\n      add\n        /* \"#utility.yul\":12012:12050   */\n      mstore\n        /* \"#utility.yul\":12071:12142   */\n      tag_364\n        /* \"#utility.yul\":12137:12141   */\n      dup3\n        /* \"#utility.yul\":12123:12135   */\n      dup3\n        /* \"#utility.yul\":12071:12142   */\n      tag_206\n      jump\t// in\n    tag_364:\n        /* \"#utility.yul\":12063:12142   */\n      swap2\n      pop\n        /* \"#utility.yul\":11920:12153   */\n      pop\n        /* \"#utility.yul\":12243:12247   */\n      0x40\n        /* \"#utility.yul\":12236:12241   */\n      dup4\n        /* \"#utility.yul\":12232:12248   */\n      add\n        /* \"#utility.yul\":12226:12249   */\n      mload\n        /* \"#utility.yul\":12296:12299   */\n      dup5\n        /* \"#utility.yul\":12290:12294   */\n      dup3\n        /* \"#utility.yul\":12286:12300   */\n      sub\n        /* \"#utility.yul\":12279:12283   */\n      0x40\n        /* \"#utility.yul\":12274:12277   */\n      dup7\n        /* \"#utility.yul\":12270:12284   */\n      add\n        /* \"#utility.yul\":12263:12301   */\n      mstore\n        /* \"#utility.yul\":12322:12485   */\n      tag_365\n        /* \"#utility.yul\":12480:12484   */\n      dup3\n        /* \"#utility.yul\":12466:12478   */\n      dup3\n        /* \"#utility.yul\":12322:12485   */\n      tag_215\n      jump\t// in\n    tag_365:\n        /* \"#utility.yul\":12314:12485   */\n      swap2\n      pop\n        /* \"#utility.yul\":12163:12496   */\n      pop\n        /* \"#utility.yul\":12582:12586   */\n      0x60\n        /* \"#utility.yul\":12575:12580   */\n      dup4\n        /* \"#utility.yul\":12571:12587   */\n      add\n        /* \"#utility.yul\":12565:12588   */\n      mload\n        /* \"#utility.yul\":12601:12664   */\n      tag_366\n        /* \"#utility.yul\":12658:12662   */\n      0x60\n        /* \"#utility.yul\":12653:12656   */\n      dup7\n        /* \"#utility.yul\":12649:12663   */\n      add\n        /* \"#utility.yul\":12635:12647   */\n      dup3\n        /* \"#utility.yul\":12601:12664   */\n      tag_210\n      jump\t// in\n    tag_366:\n        /* \"#utility.yul\":12506:12674   */\n      pop\n        /* \"#utility.yul\":12761:12765   */\n      0x80\n        /* \"#utility.yul\":12754:12759   */\n      dup4\n        /* \"#utility.yul\":12750:12766   */\n      add\n        /* \"#utility.yul\":12744:12767   */\n      mload\n        /* \"#utility.yul\":12814:12817   */\n      dup5\n        /* \"#utility.yul\":12808:12812   */\n      dup3\n        /* \"#utility.yul\":12804:12818   */\n      sub\n        /* \"#utility.yul\":12797:12801   */\n      0x80\n        /* \"#utility.yul\":12792:12795   */\n      dup7\n        /* \"#utility.yul\":12788:12802   */\n      add\n        /* \"#utility.yul\":12781:12819   */\n      mstore\n        /* \"#utility.yul\":12840:12911   */\n      tag_367\n        /* \"#utility.yul\":12906:12910   */\n      dup3\n        /* \"#utility.yul\":12892:12904   */\n      dup3\n        /* \"#utility.yul\":12840:12911   */\n      tag_206\n      jump\t// in\n    tag_367:\n        /* \"#utility.yul\":12832:12911   */\n      swap2\n      pop\n        /* \"#utility.yul\":12684:12922   */\n      pop\n        /* \"#utility.yul\":12939:12943   */\n      dup1\n        /* \"#utility.yul\":12932:12943   */\n      swap2\n      pop\n        /* \"#utility.yul\":11627:12949   */\n      pop\n        /* \"#utility.yul\":11493:12949   */\n      swap3\n      swap2\n      pop\n      pop\n      jump\t// out\n        /* \"#utility.yul\":12955:13454   */\n    tag_78:\n        /* \"#utility.yul\":13134:13138   */\n      0x00\n        /* \"#utility.yul\":13172:13174   */\n      0x40\n        /* \"#utility.yul\":13161:13170   */\n      dup3\n        /* \"#utility.yul\":13157:13175   */\n      add\n        /* \"#utility.yul\":13149:13175   */\n      swap1\n      pop\n        /* \"#utility.yul\":13185:13254   */\n      tag_369\n        /* \"#utility.yul\":13251:13252   */\n      0x00\n        /* \"#utility.yul\":13240:13249   */\n      dup4\n        /* \"#utility.yul\":13236:13253   */\n      add\n        /* \"#utility.yul\":13227:13233   */\n      dup6\n        /* \"#utility.yul\":13185:13254   */\n      tag_201\n      jump\t// in\n    tag_369:\n        /* \"#utility.yul\":13301:13310   */\n      dup2\n        /* \"#utility.yul\":13295:13299   */\n      dup2\n        /* \"#utility.yul\":13291:13311   */\n      sub\n        /* \"#utility.yul\":13286:13288   */\n      0x20\n        /* \"#utility.yul\":13275:13284   */\n      dup4\n        /* \"#utility.yul\":13271:13289   */\n      add\n        /* \"#utility.yul\":13264:13312   */\n      mstore\n        /* \"#utility.yul\":13329:13447   */\n      tag_370\n        /* \"#utility.yul\":13442:13446   */\n      dup2\n        /* \"#utility.yul\":13433:13439   */\n      dup5\n        /* \"#utility.yul\":13329:13447   */\n      tag_216\n      jump\t// in\n    tag_370:\n        /* \"#utility.yul\":13321:13447   */\n      swap1\n      pop\n        /* \"#utility.yul\":12955:13454   */\n      swap4\n      swap3\n      pop\n      pop\n      pop\n      jump\t// out\n        /* \"#utility.yul\":13460:13792   */\n    tag_92:\n        /* \"#utility.yul\":13581:13585   */\n      0x00\n        /* \"#utility.yul\":13619:13621   */\n      0x40\n        /* \"#utility.yul\":13608:13617   */\n      dup3\n        /* \"#utility.yul\":13604:13622   */\n      add\n        /* \"#utility.yul\":13596:13622   */\n      swap1\n      pop\n        /* \"#utility.yul\":13632:13703   */\n      tag_372\n        /* \"#utility.yul\":13700:13701   */\n      0x00\n        /* \"#utility.yul\":13689:13698   */\n      dup4\n        /* \"#utility.yul\":13685:13702   */\n      add\n        /* \"#utility.yul\":13676:13682   */\n      dup6\n        /* \"#utility.yul\":13632:13703   */\n      tag_199\n      jump\t// in\n    tag_372:\n        /* \"#utility.yul\":13713:13785   */\n      tag_373\n        /* \"#utility.yul\":13781:13783   */\n      0x20\n        /* \"#utility.yul\":13770:13779   */\n      dup4\n        /* \"#utility.yul\":13766:13784   */\n      add\n        /* \"#utility.yul\":13757:13763   */\n      dup5\n        /* \"#utility.yul\":13713:13785   */\n      tag_199\n      jump\t// in\n    tag_373:\n        /* \"#utility.yul\":13460:13792   */\n      swap4\n      swap3\n      pop\n      pop\n      pop\n      jump\t// out\n        /* \"#utility.yul\":13798:13920   */\n    tag_217:\n        /* \"#utility.yul\":13871:13895   */\n      tag_375\n        /* \"#utility.yul\":13889:13894   */\n      dup2\n        /* \"#utility.yul\":13871:13895   */\n      tag_193\n      jump\t// in\n    tag_375:\n        /* \"#utility.yul\":13864:13869   */\n      dup2\n        /* \"#utility.yul\":13861:13896   */\n      eq\n        /* \"#utility.yul\":13851:13914   */\n      tag_376\n      jumpi\n        /* \"#utility.yul\":13910:13911   */\n      0x00\n        /* \"#utility.yul\":13907:13908   */\n      dup1\n        /* \"#utility.yul\":13900:13912   */\n      revert\n        /* \"#utility.yul\":13851:13914   */\n    tag_376:\n        /* \"#utility.yul\":13798:13920   */\n      pop\n      jump\t// out\n        /* \"#utility.yul\":13926:14069   */\n    tag_218:\n        /* \"#utility.yul\":13983:13988   */\n      0x00\n        /* \"#utility.yul\":14014:14020   */\n      dup2\n        /* \"#utility.yul\":14008:14021   */\n      mload\n        /* \"#utility.yul\":13999:14021   */\n      swap1\n      pop\n        /* \"#utility.yul\":14030:14063   */\n      tag_378\n        /* \"#utility.yul\":14057:14062   */\n      dup2\n        /* \"#utility.yul\":14030:14063   */\n      tag_217\n      jump\t// in\n    tag_378:\n        /* \"#utility.yul\":13926:14069   */\n      swap3\n      swap2\n      pop\n      pop\n      jump\t// out\n        /* \"#utility.yul\":14075:14426   */\n    tag_107:\n        /* \"#utility.yul\":14145:14151   */\n      0x00\n        /* \"#utility.yul\":14194:14196   */\n      0x20\n        /* \"#utility.yul\":14182:14191   */\n      dup3\n        /* \"#utility.yul\":14173:14180   */\n      dup5\n        /* \"#utility.yul\":14169:14192   */\n      sub\n        /* \"#utility.yul\":14165:14197   */\n      slt\n        /* \"#utility.yul\":14162:14281   */\n      iszero\n      tag_380\n      jumpi\n        /* \"#utility.yul\":14200:14279   */\n      tag_381\n      tag_179\n      jump\t// in\n    tag_381:\n        /* \"#utility.yul\":14162:14281   */\n    tag_380:\n        /* \"#utility.yul\":14320:14321   */\n      0x00\n        /* \"#utility.yul\":14345:14409   */\n      tag_382\n        /* \"#utility.yul\":14401:14408   */\n      dup5\n        /* \"#utility.yul\":14392:14398   */\n      dup3\n        /* \"#utility.yul\":14381:14390   */\n      dup6\n        /* \"#utility.yul\":14377:14399   */\n      add\n        /* \"#utility.yul\":14345:14409   */\n      tag_218\n      jump\t// in\n    tag_382:\n        /* \"#utility.yul\":14335:14409   */\n      swap2\n      pop\n        /* \"#utility.yul\":14291:14419   */\n      pop\n        /* \"#utility.yul\":14075:14426   */\n      swap3\n      swap2\n      pop\n      pop\n      jump\t// out\n        /* \"#utility.yul\":14432:15092   */\n    tag_109:\n        /* \"#utility.yul\":14635:14639   */\n      0x00\n        /* \"#utility.yul\":14673:14676   */\n      0xa0\n        /* \"#utility.yul\":14662:14671   */\n      dup3\n        /* \"#utility.yul\":14658:14677   */\n      add\n        /* \"#utility.yul\":14650:14677   */\n      swap1\n      pop\n        /* \"#utility.yul\":14687:14758   */\n      tag_384\n        /* \"#utility.yul\":14755:14756   */\n      0x00\n        /* \"#utility.yul\":14744:14753   */\n      dup4\n        /* \"#utility.yul\":14740:14757   */\n      add\n        /* \"#utility.yul\":14731:14737   */\n      dup9\n        /* \"#utility.yul\":14687:14758   */\n      tag_194\n      jump\t// in\n    tag_384:\n        /* \"#utility.yul\":14768:14838   */\n      tag_385\n        /* \"#utility.yul\":14834:14836   */\n      0x20\n        /* \"#utility.yul\":14823:14832   */\n      dup4\n        /* \"#utility.yul\":14819:14837   */\n      add\n        /* \"#utility.yul\":14810:14816   */\n      dup8\n        /* \"#utility.yul\":14768:14838   */\n      tag_201\n      jump\t// in\n    tag_385:\n        /* \"#utility.yul\":14848:14920   */\n      tag_386\n        /* \"#utility.yul\":14916:14918   */\n      0x40\n        /* \"#utility.yul\":14905:14914   */\n      dup4\n        /* \"#utility.yul\":14901:14919   */\n      add\n        /* \"#utility.yul\":14892:14898   */\n      dup7\n        /* \"#utility.yul\":14848:14920   */\n      tag_195\n      jump\t// in\n    tag_386:\n        /* \"#utility.yul\":14930:15002   */\n      tag_387\n        /* \"#utility.yul\":14998:15000   */\n      0x60\n        /* \"#utility.yul\":14987:14996   */\n      dup4\n        /* \"#utility.yul\":14983:15001   */\n      add\n        /* \"#utility.yul\":14974:14980   */\n      dup6\n        /* \"#utility.yul\":14930:15002   */\n      tag_199\n      jump\t// in\n    tag_387:\n        /* \"#utility.yul\":15012:15085   */\n      tag_388\n        /* \"#utility.yul\":15080:15083   */\n      0x80\n        /* \"#utility.yul\":15069:15078   */\n      dup4\n        /* \"#utility.yul\":15065:15084   */\n      add\n        /* \"#utility.yul\":15056:15062   */\n      dup5\n        /* \"#utility.yul\":15012:15085   */\n      tag_199\n      jump\t// in\n    tag_388:\n        /* \"#utility.yul\":14432:15092   */\n      swap7\n      swap6\n      pop\n      pop\n      pop\n      pop\n      pop\n      pop\n      jump\t// out\n        /* \"#utility.yul\":15098:15267   */\n    tag_219:\n        /* \"#utility.yul\":15182:15193   */\n      0x00\n        /* \"#utility.yul\":15216:15222   */\n      dup3\n        /* \"#utility.yul\":15211:15214   */\n      dup3\n        /* \"#utility.yul\":15204:15223   */\n      mstore\n        /* \"#utility.yul\":15256:15260   */\n      0x20\n        /* \"#utility.yul\":15251:15254   */\n      dup3\n        /* \"#utility.yul\":15247:15261   */\n      add\n        /* \"#utility.yul\":15232:15261   */\n      swap1\n      pop\n        /* \"#utility.yul\":15098:15267   */\n      swap3\n      swap2\n      pop\n      pop\n      jump\t// out\n        /* \"#utility.yul\":15273:15445   */\n    tag_220:\n        /* \"#utility.yul\":15413:15437   */\n      0x4d7573742062652070726f706f736564206f776e657200000000000000000000\n        /* \"#utility.yul\":15409:15410   */\n      0x00\n        /* \"#utility.yul\":15401:15407   */\n      dup3\n        /* \"#utility.yul\":15397:15411   */\n      add\n        /* \"#utility.yul\":15390:15438   */\n      mstore\n        /* \"#utility.yul\":15273:15445   */\n      pop\n      jump\t// out\n        /* \"#utility.yul\":15451:15817   */\n    tag_221:\n        /* \"#utility.yul\":15593:15596   */\n      0x00\n        /* \"#utility.yul\":15614:15681   */\n      tag_392\n        /* \"#utility.yul\":15678:15680   */\n      0x16\n        /* \"#utility.yul\":15673:15676   */\n      dup4\n        /* \"#utility.yul\":15614:15681   */\n      tag_219\n      jump\t// in\n    tag_392:\n        /* \"#utility.yul\":15607:15681   */\n      swap2\n      pop\n        /* \"#utility.yul\":15690:15783   */\n      tag_393\n        /* \"#utility.yul\":15779:15782   */\n      dup3\n        /* \"#utility.yul\":15690:15783   */\n      tag_220\n      jump\t// in\n    tag_393:\n        /* \"#utility.yul\":15808:15810   */\n      0x20\n        /* \"#utility.yul\":15803:15806   */\n      dup3\n        /* \"#utility.yul\":15799:15811   */\n      add\n        /* \"#utility.yul\":15792:15811   */\n      swap1\n      pop\n        /* \"#utility.yul\":15451:15817   */\n      swap2\n      swap1\n      pop\n      jump\t// out\n        /* \"#utility.yul\":15823:16242   */\n    tag_113:\n        /* \"#utility.yul\":15989:15993   */\n      0x00\n        /* \"#utility.yul\":16027:16029   */\n      0x20\n        /* \"#utility.yul\":16016:16025   */\n      dup3\n        /* \"#utility.yul\":16012:16030   */\n      add\n        /* \"#utility.yul\":16004:16030   */\n      swap1\n      pop\n        /* \"#utility.yul\":16076:16085   */\n      dup2\n        /* \"#utility.yul\":16070:16074   */\n      dup2\n        /* \"#utility.yul\":16066:16086   */\n      sub\n        /* \"#utility.yul\":16062:16063   */\n      0x00\n        /* \"#utility.yul\":16051:16060   */\n      dup4\n        /* \"#utility.yul\":16047:16064   */\n      add\n        /* \"#utility.yul\":16040:16087   */\n      mstore\n        /* \"#utility.yul\":16104:16235   */\n      tag_395\n        /* \"#utility.yul\":16230:16234   */\n      dup2\n        /* \"#utility.yul\":16104:16235   */\n      tag_221\n      jump\t// in\n    tag_395:\n        /* \"#utility.yul\":16096:16235   */\n      swap1\n      pop\n        /* \"#utility.yul\":15823:16242   */\n      swap2\n      swap1\n      pop\n      jump\t// out\n        /* \"#utility.yul\":16248:16420   */\n    tag_222:\n        /* \"#utility.yul\":16388:16412   */\n      0x4f6e6c792063616c6c61626c65206279206f776e657200000000000000000000\n        /* \"#utility.yul\":16384:16385   */\n      0x00\n        /* \"#utility.yul\":16376:16382   */\n      dup3\n        /* \"#utility.yul\":16372:16386   */\n      add\n        /* \"#utility.yul\":16365:16413   */\n      mstore\n        /* \"#utility.yul\":16248:16420   */\n      pop\n      jump\t// out\n        /* \"#utility.yul\":16426:16792   */\n    tag_223:\n        /* \"#utility.yul\":16568:16571   */\n      0x00\n        /* \"#utility.yul\":16589:16656   */\n      tag_398\n        /* \"#utility.yul\":16653:16655   */\n      0x16\n        /* \"#utility.yul\":16648:16651   */\n      dup4\n        /* \"#utility.yul\":16589:16656   */\n      tag_219\n      jump\t// in\n    tag_398:\n        /* \"#utility.yul\":16582:16656   */\n      swap2\n      pop\n        /* \"#utility.yul\":16665:16758   */\n      tag_399\n        /* \"#utility.yul\":16754:16757   */\n      dup3\n        /* \"#utility.yul\":16665:16758   */\n      tag_222\n      jump\t// in\n    tag_399:\n        /* \"#utility.yul\":16783:16785   */\n      0x20\n        /* \"#utility.yul\":16778:16781   */\n      dup3\n        /* \"#utility.yul\":16774:16786   */\n      add\n        /* \"#utility.yul\":16767:16786   */\n      swap1\n      pop\n        /* \"#utility.yul\":16426:16792   */\n      swap2\n      swap1\n      pop\n      jump\t// out\n        /* \"#utility.yul\":16798:17217   */\n    tag_126:\n        /* \"#utility.yul\":16964:16968   */\n      0x00\n        /* \"#utility.yul\":17002:17004   */\n      0x20\n        /* \"#utility.yul\":16991:17000   */\n      dup3\n        /* \"#utility.yul\":16987:17005   */\n      add\n        /* \"#utility.yul\":16979:17005   */\n      swap1\n      pop\n        /* \"#utility.yul\":17051:17060   */\n      dup2\n        /* \"#utility.yul\":17045:17049   */\n      dup2\n        /* \"#utility.yul\":17041:17061   */\n      sub\n        /* \"#utility.yul\":17037:17038   */\n      0x00\n        /* \"#utility.yul\":17026:17035   */\n      dup4\n        /* \"#utility.yul\":17022:17039   */\n      add\n        /* \"#utility.yul\":17015:17062   */\n      mstore\n        /* \"#utility.yul\":17079:17210   */\n      tag_401\n        /* \"#utility.yul\":17205:17209   */\n      dup2\n        /* \"#utility.yul\":17079:17210   */\n      tag_223\n      jump\t// in\n    tag_401:\n        /* \"#utility.yul\":17071:17210   */\n      swap1\n      pop\n        /* \"#utility.yul\":16798:17217   */\n      swap2\n      swap1\n      pop\n      jump\t// out\n        /* \"#utility.yul\":17291:17638   */\n    tag_224:\n        /* \"#utility.yul\":17448:17452   */\n      0x20\n        /* \"#utility.yul\":17443:17446   */\n      dup3\n        /* \"#utility.yul\":17439:17453   */\n      add\n        /* \"#utility.yul\":17539:17543   */\n      0x00\n        /* \"#utility.yul\":17532:17537   */\n      dup3\n        /* \"#utility.yul\":17528:17544   */\n      add\n        /* \"#utility.yul\":17522:17545   */\n      mload\n        /* \"#utility.yul\":17558:17621   */\n      tag_403\n        /* \"#utility.yul\":17615:17619   */\n      0x00\n        /* \"#utility.yul\":17610:17613   */\n      dup6\n        /* \"#utility.yul\":17606:17620   */\n      add\n        /* \"#utility.yul\":17592:17604   */\n      dup3\n        /* \"#utility.yul\":17558:17621   */\n      tag_211\n      jump\t// in\n    tag_403:\n        /* \"#utility.yul\":17463:17631   */\n      pop\n        /* \"#utility.yul\":17417:17638   */\n      pop\n        /* \"#utility.yul\":17291:17638   */\n      pop\n      pop\n      jump\t// out\n        /* \"#utility.yul\":17644:17986   */\n    tag_129:\n        /* \"#utility.yul\":17797:17801   */\n      0x00\n        /* \"#utility.yul\":17835:17837   */\n      0x20\n        /* \"#utility.yul\":17824:17833   */\n      dup3\n        /* \"#utility.yul\":17820:17838   */\n      add\n        /* \"#utility.yul\":17812:17838   */\n      swap1\n      pop\n        /* \"#utility.yul\":17848:17979   */\n      tag_405\n        /* \"#utility.yul\":17976:17977   */\n      0x00\n        /* \"#utility.yul\":17965:17974   */\n      dup4\n        /* \"#utility.yul\":17961:17978   */\n      add\n        /* \"#utility.yul\":17952:17958   */\n      dup5\n        /* \"#utility.yul\":17848:17979   */\n      tag_224\n      jump\t// in\n    tag_405:\n        /* \"#utility.yul\":17644:17986   */\n      swap3\n      swap2\n      pop\n      pop\n      jump\t// out\n        /* \"#utility.yul\":17992:18434   */\n    tag_133:\n        /* \"#utility.yul\":18141:18145   */\n      0x00\n        /* \"#utility.yul\":18179:18181   */\n      0x60\n        /* \"#utility.yul\":18168:18177   */\n      dup3\n        /* \"#utility.yul\":18164:18182   */\n      add\n        /* \"#utility.yul\":18156:18182   */\n      swap1\n      pop\n        /* \"#utility.yul\":18192:18263   */\n      tag_407\n        /* \"#utility.yul\":18260:18261   */\n      0x00\n        /* \"#utility.yul\":18249:18258   */\n      dup4\n        /* \"#utility.yul\":18245:18262   */\n      add\n        /* \"#utility.yul\":18236:18242   */\n      dup7\n        /* \"#utility.yul\":18192:18263   */\n      tag_195\n      jump\t// in\n    tag_407:\n        /* \"#utility.yul\":18273:18345   */\n      tag_408\n        /* \"#utility.yul\":18341:18343   */\n      0x20\n        /* \"#utility.yul\":18330:18339   */\n      dup4\n        /* \"#utility.yul\":18326:18344   */\n      add\n        /* \"#utility.yul\":18317:18323   */\n      dup6\n        /* \"#utility.yul\":18273:18345   */\n      tag_195\n      jump\t// in\n    tag_408:\n        /* \"#utility.yul\":18355:18427   */\n      tag_409\n        /* \"#utility.yul\":18423:18425   */\n      0x40\n        /* \"#utility.yul\":18412:18421   */\n      dup4\n        /* \"#utility.yul\":18408:18426   */\n      add\n        /* \"#utility.yul\":18399:18405   */\n      dup5\n        /* \"#utility.yul\":18355:18427   */\n      tag_199\n      jump\t// in\n    tag_409:\n        /* \"#utility.yul\":17992:18434   */\n      swap5\n      swap4\n      pop\n      pop\n      pop\n      pop\n      jump\t// out\n        /* \"#utility.yul\":18440:18613   */\n    tag_225:\n        /* \"#utility.yul\":18580:18605   */\n      0x43616e6e6f74207472616e7366657220746f2073656c66000000000000000000\n        /* \"#utility.yul\":18576:18577   */\n      0x00\n        /* \"#utility.yul\":18568:18574   */\n      dup3\n        /* \"#utility.yul\":18564:18578   */\n      add\n        /* \"#utility.yul\":18557:18606   */\n      mstore\n        /* \"#utility.yul\":18440:18613   */\n      pop\n      jump\t// out\n        /* \"#utility.yul\":18619:18985   */\n    tag_226:\n        /* \"#utility.yul\":18761:18764   */\n      0x00\n        /* \"#utility.yul\":18782:18849   */\n      tag_412\n        /* \"#utility.yul\":18846:18848   */\n      0x17\n        /* \"#utility.yul\":18841:18844   */\n      dup4\n        /* \"#utility.yul\":18782:18849   */\n      tag_219\n      jump\t// in\n    tag_412:\n        /* \"#utility.yul\":18775:18849   */\n      swap2\n      pop\n        /* \"#utility.yul\":18858:18951   */\n      tag_413\n        /* \"#utility.yul\":18947:18950   */\n      dup3\n        /* \"#utility.yul\":18858:18951   */\n      tag_225\n      jump\t// in\n    tag_413:\n        /* \"#utility.yul\":18976:18978   */\n      0x20\n        /* \"#utility.yul\":18971:18974   */\n      dup3\n        /* \"#utility.yul\":18967:18979   */\n      add\n        /* \"#utility.yul\":18960:18979   */\n      swap1\n      pop\n        /* \"#utility.yul\":18619:18985   */\n      swap2\n      swap1\n      pop\n      jump\t// out\n        /* \"#utility.yul\":18991:19410   */\n    tag_138:\n        /* \"#utility.yul\":19157:19161   */\n      0x00\n        /* \"#utility.yul\":19195:19197   */\n      0x20\n        /* \"#utility.yul\":19184:19193   */\n      dup3\n        /* \"#utility.yul\":19180:19198   */\n      add\n        /* \"#utility.yul\":19172:19198   */\n      swap1\n      pop\n        /* \"#utility.yul\":19244:19253   */\n      dup2\n        /* \"#utility.yul\":19238:19242   */\n      dup2\n        /* \"#utility.yul\":19234:19254   */\n      sub\n        /* \"#utility.yul\":19230:19231   */\n      0x00\n        /* \"#utility.yul\":19219:19228   */\n      dup4\n        /* \"#utility.yul\":19215:19232   */\n      add\n        /* \"#utility.yul\":19208:19255   */\n      mstore\n        /* \"#utility.yul\":19272:19403   */\n      tag_415\n        /* \"#utility.yul\":19398:19402   */\n      dup2\n        /* \"#utility.yul\":19272:19403   */\n      tag_226\n      jump\t// in\n    tag_415:\n        /* \"#utility.yul\":19264:19403   */\n      swap1\n      pop\n        /* \"#utility.yul\":18991:19410   */\n      swap2\n      swap1\n      pop\n      jump\t// out\n        /* \"#utility.yul\":19416:19645   */\n    tag_227:\n        /* \"#utility.yul\":19556:19590   */\n      0x5361666545524332303a204552433230206f7065726174696f6e20646964206e\n        /* \"#utility.yul\":19552:19553   */\n      0x00\n        /* \"#utility.yul\":19544:19550   */\n      dup3\n        /* \"#utility.yul\":19540:19554   */\n      add\n        /* \"#utility.yul\":19533:19591   */\n      mstore\n        /* \"#utility.yul\":19625:19637   */\n      0x6f74207375636365656400000000000000000000000000000000000000000000\n        /* \"#utility.yul\":19620:19622   */\n      0x20\n        /* \"#utility.yul\":19612:19618   */\n      dup3\n        /* \"#utility.yul\":19608:19623   */\n      add\n        /* \"#utility.yul\":19601:19638   */\n      mstore\n        /* \"#utility.yul\":19416:19645   */\n      pop\n      jump\t// out\n        /* \"#utility.yul\":19651:20017   */\n    tag_228:\n        /* \"#utility.yul\":19793:19796   */\n      0x00\n        /* \"#utility.yul\":19814:19881   */\n      tag_418\n        /* \"#utility.yul\":19878:19880   */\n      0x2a\n        /* \"#utility.yul\":19873:19876   */\n      dup4\n        /* \"#utility.yul\":19814:19881   */\n      tag_219\n      jump\t// in\n    tag_418:\n        /* \"#utility.yul\":19807:19881   */\n      swap2\n      pop\n        /* \"#utility.yul\":19890:19983   */\n      tag_419\n        /* \"#utility.yul\":19979:19982   */\n      dup3\n        /* \"#utility.yul\":19890:19983   */\n      tag_227\n      jump\t// in\n    tag_419:\n        /* \"#utility.yul\":20008:20010   */\n      0x40\n        /* \"#utility.yul\":20003:20006   */\n      dup3\n        /* \"#utility.yul\":19999:20011   */\n      add\n        /* \"#utility.yul\":19992:20011   */\n      swap1\n      pop\n        /* \"#utility.yul\":19651:20017   */\n      swap2\n      swap1\n      pop\n      jump\t// out\n        /* \"#utility.yul\":20023:20442   */\n    tag_146:\n        /* \"#utility.yul\":20189:20193   */\n      0x00\n        /* \"#utility.yul\":20227:20229   */\n      0x20\n        /* \"#utility.yul\":20216:20225   */\n      dup3\n        /* \"#utility.yul\":20212:20230   */\n      add\n        /* \"#utility.yul\":20204:20230   */\n      swap1\n      pop\n        /* \"#utility.yul\":20276:20285   */\n      dup2\n        /* \"#utility.yul\":20270:20274   */\n      dup2\n        /* \"#utility.yul\":20266:20286   */\n      sub\n        /* \"#utility.yul\":20262:20263   */\n      0x00\n        /* \"#utility.yul\":20251:20260   */\n      dup4\n        /* \"#utility.yul\":20247:20264   */\n      add\n        /* \"#utility.yul\":20240:20287   */\n      mstore\n        /* \"#utility.yul\":20304:20435   */\n      tag_421\n        /* \"#utility.yul\":20430:20434   */\n      dup2\n        /* \"#utility.yul\":20304:20435   */\n      tag_228\n      jump\t// in\n    tag_421:\n        /* \"#utility.yul\":20296:20435   */\n      swap1\n      pop\n        /* \"#utility.yul\":20023:20442   */\n      swap2\n      swap1\n      pop\n      jump\t// out\n        /* \"#utility.yul\":20448:20673   */\n    tag_229:\n        /* \"#utility.yul\":20588:20622   */\n      0x416464726573733a20696e73756666696369656e742062616c616e636520666f\n        /* \"#utility.yul\":20584:20585   */\n      0x00\n        /* \"#utility.yul\":20576:20582   */\n      dup3\n        /* \"#utility.yul\":20572:20586   */\n      add\n        /* \"#utility.yul\":20565:20623   */\n      mstore\n        /* \"#utility.yul\":20657:20665   */\n      0x722063616c6c0000000000000000000000000000000000000000000000000000\n        /* \"#utility.yul\":20652:20654   */\n      0x20\n        /* \"#utility.yul\":20644:20650   */\n      dup3\n        /* \"#utility.yul\":20640:20655   */\n      add\n        /* \"#utility.yul\":20633:20666   */\n      mstore\n        /* \"#utility.yul\":20448:20673   */\n      pop\n      jump\t// out\n        /* \"#utility.yul\":20679:21045   */\n    tag_230:\n        /* \"#utility.yul\":20821:20824   */\n      0x00\n        /* \"#utility.yul\":20842:20909   */\n      tag_424\n        /* \"#utility.yul\":20906:20908   */\n      0x26\n        /* \"#utility.yul\":20901:20904   */\n      dup4\n        /* \"#utility.yul\":20842:20909   */\n      tag_219\n      jump\t// in\n    tag_424:\n        /* \"#utility.yul\":20835:20909   */\n      swap2\n      pop\n        /* \"#utility.yul\":20918:21011   */\n      tag_425\n        /* \"#utility.yul\":21007:21010   */\n      dup3\n        /* \"#utility.yul\":20918:21011   */\n      tag_229\n      jump\t// in\n    tag_425:\n        /* \"#utility.yul\":21036:21038   */\n      0x40\n        /* \"#utility.yul\":21031:21034   */\n      dup3\n        /* \"#utility.yul\":21027:21039   */\n      add\n        /* \"#utility.yul\":21020:21039   */\n      swap1\n      pop\n        /* \"#utility.yul\":20679:21045   */\n      swap2\n      swap1\n      pop\n      jump\t// out\n        /* \"#utility.yul\":21051:21470   */\n    tag_153:\n        /* \"#utility.yul\":21217:21221   */\n      0x00\n        /* \"#utility.yul\":21255:21257   */\n      0x20\n        /* \"#utility.yul\":21244:21253   */\n      dup3\n        /* \"#utility.yul\":21240:21258   */\n      add\n        /* \"#utility.yul\":21232:21258   */\n      swap1\n      pop\n        /* \"#utility.yul\":21304:21313   */\n      dup2\n        /* \"#utility.yul\":21298:21302   */\n      dup2\n        /* \"#utility.yul\":21294:21314   */\n      sub\n        /* \"#utility.yul\":21290:21291   */\n      0x00\n        /* \"#utility.yul\":21279:21288   */\n      dup4\n        /* \"#utility.yul\":21275:21292   */\n      add\n        /* \"#utility.yul\":21268:21315   */\n      mstore\n        /* \"#utility.yul\":21332:21463   */\n      tag_427\n        /* \"#utility.yul\":21458:21462   */\n      dup2\n        /* \"#utility.yul\":21332:21463   */\n      tag_230\n      jump\t// in\n    tag_427:\n        /* \"#utility.yul\":21324:21463   */\n      swap1\n      pop\n        /* \"#utility.yul\":21051:21470   */\n      swap2\n      swap1\n      pop\n      jump\t// out\n        /* \"#utility.yul\":21476:21623   */\n    tag_231:\n        /* \"#utility.yul\":21577:21588   */\n      0x00\n        /* \"#utility.yul\":21614:21617   */\n      dup2\n        /* \"#utility.yul\":21599:21617   */\n      swap1\n      pop\n        /* \"#utility.yul\":21476:21623   */\n      swap3\n      swap2\n      pop\n      pop\n      jump\t// out\n        /* \"#utility.yul\":21629:22015   */\n    tag_232:\n        /* \"#utility.yul\":21733:21736   */\n      0x00\n        /* \"#utility.yul\":21761:21799   */\n      tag_430\n        /* \"#utility.yul\":21793:21798   */\n      dup3\n        /* \"#utility.yul\":21761:21799   */\n      tag_202\n      jump\t// in\n    tag_430:\n        /* \"#utility.yul\":21815:21903   */\n      tag_431\n        /* \"#utility.yul\":21896:21902   */\n      dup2\n        /* \"#utility.yul\":21891:21894   */\n      dup6\n        /* \"#utility.yul\":21815:21903   */\n      tag_231\n      jump\t// in\n    tag_431:\n        /* \"#utility.yul\":21808:21903   */\n      swap4\n      pop\n        /* \"#utility.yul\":21912:21977   */\n      tag_432\n        /* \"#utility.yul\":21970:21976   */\n      dup2\n        /* \"#utility.yul\":21965:21968   */\n      dup6\n        /* \"#utility.yul\":21958:21962   */\n      0x20\n        /* \"#utility.yul\":21951:21956   */\n      dup7\n        /* \"#utility.yul\":21947:21963   */\n      add\n        /* \"#utility.yul\":21912:21977   */\n      tag_204\n      jump\t// in\n    tag_432:\n        /* \"#utility.yul\":22002:22008   */\n      dup1\n        /* \"#utility.yul\":21997:22000   */\n      dup5\n        /* \"#utility.yul\":21993:22009   */\n      add\n        /* \"#utility.yul\":21986:22009   */\n      swap2\n      pop\n        /* \"#utility.yul\":21737:22015   */\n      pop\n        /* \"#utility.yul\":21629:22015   */\n      swap3\n      swap2\n      pop\n      pop\n      jump\t// out\n        /* \"#utility.yul\":22021:22292   */\n    tag_155:\n        /* \"#utility.yul\":22151:22154   */\n      0x00\n        /* \"#utility.yul\":22173:22266   */\n      tag_434\n        /* \"#utility.yul\":22262:22265   */\n      dup3\n        /* \"#utility.yul\":22253:22259   */\n      dup5\n        /* \"#utility.yul\":22173:22266   */\n      tag_232\n      jump\t// in\n    tag_434:\n        /* \"#utility.yul\":22166:22266   */\n      swap2\n      pop\n        /* \"#utility.yul\":22283:22286   */\n      dup2\n        /* \"#utility.yul\":22276:22286   */\n      swap1\n      pop\n        /* \"#utility.yul\":22021:22292   */\n      swap3\n      swap2\n      pop\n      pop\n      jump\t// out\n        /* \"#utility.yul\":22298:22477   */\n    tag_233:\n        /* \"#utility.yul\":22438:22469   */\n      0x416464726573733a2063616c6c20746f206e6f6e2d636f6e7472616374000000\n        /* \"#utility.yul\":22434:22435   */\n      0x00\n        /* \"#utility.yul\":22426:22432   */\n      dup3\n        /* \"#utility.yul\":22422:22436   */\n      add\n        /* \"#utility.yul\":22415:22470   */\n      mstore\n        /* \"#utility.yul\":22298:22477   */\n      pop\n      jump\t// out\n        /* \"#utility.yul\":22483:22849   */\n    tag_234:\n        /* \"#utility.yul\":22625:22628   */\n      0x00\n        /* \"#utility.yul\":22646:22713   */\n      tag_437\n        /* \"#utility.yul\":22710:22712   */\n      0x1d\n        /* \"#utility.yul\":22705:22708   */\n      dup4\n        /* \"#utility.yul\":22646:22713   */\n      tag_219\n      jump\t// in\n    tag_437:\n        /* \"#utility.yul\":22639:22713   */\n      swap2\n      pop\n        /* \"#utility.yul\":22722:22815   */\n      tag_438\n        /* \"#utility.yul\":22811:22814   */\n      dup3\n        /* \"#utility.yul\":22722:22815   */\n      tag_233\n      jump\t// in\n    tag_438:\n        /* \"#utility.yul\":22840:22842   */\n      0x20\n        /* \"#utility.yul\":22835:22838   */\n      dup3\n        /* \"#utility.yul\":22831:22843   */\n      add\n        /* \"#utility.yul\":22824:22843   */\n      swap1\n      pop\n        /* \"#utility.yul\":22483:22849   */\n      swap2\n      swap1\n      pop\n      jump\t// out\n        /* \"#utility.yul\":22855:23274   */\n    tag_168:\n        /* \"#utility.yul\":23021:23025   */\n      0x00\n        /* \"#utility.yul\":23059:23061   */\n      0x20\n        /* \"#utility.yul\":23048:23057   */\n      dup3\n        /* \"#utility.yul\":23044:23062   */\n      add\n        /* \"#utility.yul\":23036:23062   */\n      swap1\n      pop\n        /* \"#utility.yul\":23108:23117   */\n      dup2\n        /* \"#utility.yul\":23102:23106   */\n      dup2\n        /* \"#utility.yul\":23098:23118   */\n      sub\n        /* \"#utility.yul\":23094:23095   */\n      0x00\n        /* \"#utility.yul\":23083:23092   */\n      dup4\n        /* \"#utility.yul\":23079:23096   */\n      add\n        /* \"#utility.yul\":23072:23119   */\n      mstore\n        /* \"#utility.yul\":23136:23267   */\n      tag_440\n        /* \"#utility.yul\":23262:23266   */\n      dup2\n        /* \"#utility.yul\":23136:23267   */\n      tag_234\n      jump\t// in\n    tag_440:\n        /* \"#utility.yul\":23128:23267   */\n      swap1\n      pop\n        /* \"#utility.yul\":22855:23274   */\n      swap2\n      swap1\n      pop\n      jump\t// out\n        /* \"#utility.yul\":23280:23379   */\n    tag_235:\n        /* \"#utility.yul\":23332:23338   */\n      0x00\n        /* \"#utility.yul\":23366:23371   */\n      dup2\n        /* \"#utility.yul\":23360:23372   */\n      mload\n        /* \"#utility.yul\":23350:23372   */\n      swap1\n      pop\n        /* \"#utility.yul\":23280:23379   */\n      swap2\n      swap1\n      pop\n      jump\t// out\n        /* \"#utility.yul\":23385:23762   */\n    tag_236:\n        /* \"#utility.yul\":23473:23476   */\n      0x00\n        /* \"#utility.yul\":23501:23540   */\n      tag_443\n        /* \"#utility.yul\":23534:23539   */\n      dup3\n        /* \"#utility.yul\":23501:23540   */\n      tag_235\n      jump\t// in\n    tag_443:\n        /* \"#utility.yul\":23556:23627   */\n      tag_444\n        /* \"#utility.yul\":23620:23626   */\n      dup2\n        /* \"#utility.yul\":23615:23618   */\n      dup6\n        /* \"#utility.yul\":23556:23627   */\n      tag_219\n      jump\t// in\n    tag_444:\n        /* \"#utility.yul\":23549:23627   */\n      swap4\n      pop\n        /* \"#utility.yul\":23636:23701   */\n      tag_445\n        /* \"#utility.yul\":23694:23700   */\n      dup2\n        /* \"#utility.yul\":23689:23692   */\n      dup6\n        /* \"#utility.yul\":23682:23686   */\n      0x20\n        /* \"#utility.yul\":23675:23680   */\n      dup7\n        /* \"#utility.yul\":23671:23687   */\n      add\n        /* \"#utility.yul\":23636:23701   */\n      tag_204\n      jump\t// in\n    tag_445:\n        /* \"#utility.yul\":23726:23755   */\n      tag_446\n        /* \"#utility.yul\":23748:23754   */\n      dup2\n        /* \"#utility.yul\":23726:23755   */\n      tag_205\n      jump\t// in\n    tag_446:\n        /* \"#utility.yul\":23721:23724   */\n      dup5\n        /* \"#utility.yul\":23717:23756   */\n      add\n        /* \"#utility.yul\":23710:23756   */\n      swap2\n      pop\n        /* \"#utility.yul\":23477:23762   */\n      pop\n        /* \"#utility.yul\":23385:23762   */\n      swap3\n      swap2\n      pop\n      pop\n      jump\t// out\n        /* \"#utility.yul\":23768:24081   */\n    tag_177:\n        /* \"#utility.yul\":23881:23885   */\n      0x00\n        /* \"#utility.yul\":23919:23921   */\n      0x20\n        /* \"#utility.yul\":23908:23917   */\n      dup3\n        /* \"#utility.yul\":23904:23922   */\n      add\n        /* \"#utility.yul\":23896:23922   */\n      swap1\n      pop\n        /* \"#utility.yul\":23968:23977   */\n      dup2\n        /* \"#utility.yul\":23962:23966   */\n      dup2\n        /* \"#utility.yul\":23958:23978   */\n      sub\n        /* \"#utility.yul\":23954:23955   */\n      0x00\n        /* \"#utility.yul\":23943:23952   */\n      dup4\n        /* \"#utility.yul\":23939:23956   */\n      add\n        /* \"#utility.yul\":23932:23979   */\n      mstore\n        /* \"#utility.yul\":23996:24074   */\n      tag_448\n        /* \"#utility.yul\":24069:24073   */\n      dup2\n        /* \"#utility.yul\":24060:24066   */\n      dup5\n        /* \"#utility.yul\":23996:24074   */\n      tag_236\n      jump\t// in\n    tag_448:\n        /* \"#utility.yul\":23988:24074   */\n      swap1\n      pop\n        /* \"#utility.yul\":23768:24081   */\n      swap3\n      swap2\n      pop\n      pop\n      jump\t// out\n\n    auxdata: 0xa2646970667358221220c03d9570507de331132124189c43926eb9c3f4da28971e22bae19a9330337d1964736f6c63430008140033\n}\n",
				"bytecode": {
					"linkReferences": {},
					"object": "60e06040523480156200001157600080fd5b50604051620021d8380380620021d8833981810160405281019062000037919062000374565b338060008073ffffffffffffffffffffffffffffffffffffffff168273ffffffffffffffffffffffffffffffffffffffff1603620000ac576040517f08c379a0000000000000000000000000000000000000000000000000000000008152600401620000a39062000431565b60405180910390fd5b816000806101000a81548173ffffffffffffffffffffffffffffffffffffffff021916908373ffffffffffffffffffffffffffffffffffffffff160217905550600073ffffffffffffffffffffffffffffffffffffffff168173ffffffffffffffffffffffffffffffffffffffff161462000133576200013281620001db60201b60201c565b5b5050508273ffffffffffffffffffffffffffffffffffffffff1660808173ffffffffffffffffffffffffffffffffffffffff16815250508173ffffffffffffffffffffffffffffffffffffffff1660a08173ffffffffffffffffffffffffffffffffffffffff16815250508073ffffffffffffffffffffffffffffffffffffffff1660c08173ffffffffffffffffffffffffffffffffffffffff1681525050505050620004c5565b3373ffffffffffffffffffffffffffffffffffffffff168173ffffffffffffffffffffffffffffffffffffffff16036200024c576040517f08c379a00000000000000000000000000000000000000000000000000000000081526004016200024390620004a3565b60405180910390fd5b80600160006101000a81548173ffffffffffffffffffffffffffffffffffffffff021916908373ffffffffffffffffffffffffffffffffffffffff1602179055508073ffffffffffffffffffffffffffffffffffffffff1660008054906101000a900473ffffffffffffffffffffffffffffffffffffffff1673ffffffffffffffffffffffffffffffffffffffff167fed8889f560326eb138920d842192f0eb3dd22b4f139c87a2c57538e05bae127860405160405180910390a350565b600080fd5b600073ffffffffffffffffffffffffffffffffffffffff82169050919050565b60006200033c826200030f565b9050919050565b6200034e816200032f565b81146200035a57600080fd5b50565b6000815190506200036e8162000343565b92915050565b60008060006060848603121562000390576200038f6200030a565b5b6000620003a0868287016200035d565b9350506020620003b3868287016200035d565b9250506040620003c6868287016200035d565b9150509250925092565b600082825260208201905092915050565b7f43616e6e6f7420736574206f776e657220746f207a65726f0000000000000000600082015250565b600062000419601883620003d0565b91506200042682620003e1565b602082019050919050565b600060208201905081810360008301526200044c816200040a565b9050919050565b7f43616e6e6f74207472616e7366657220746f2073656c66000000000000000000600082015250565b60006200048b601783620003d0565b9150620004988262000453565b602082019050919050565b60006020820190508181036000830152620004be816200047c565b9050919050565b60805160a05160c051611cab6200052d600039600081816103ab0152818161079a01526107e101526000818161045a0152818161055c015281816105fd01526106d50152600081816104be015281816107110152818161081d01526108a00152611cab6000f3fe608060405234801561001057600080fd5b506004361061007d5760003560e01c806379ba50971161005b57806379ba5097146100fe5780638da5cb5b1461010857806396d3b83d14610126578063f2fde38b146101425761007d565b80630bb106eb146100825780633aeac4e1146100b25780636b83161a146100ce575b600080fd5b61009c60048036038101906100979190611174565b61015e565b6040516100a991906111bc565b60405180910390f35b6100cc60048036038101906100c79190611235565b61017e565b005b6100e860048036038101906100e391906112ab565b6102c2565b6040516100f5919061132b565b60405180910390f35b61010661098a565b005b610110610b1f565b60405161011d9190611355565b60405180910390f35b610140600480360381019061013b919061139c565b610b48565b005b61015c600480360381019061015791906113dc565b610b93565b005b60026020528060005260406000206000915054906101000a900460ff1681565b610186610ba7565b60008173ffffffffffffffffffffffffffffffffffffffff166370a08231306040518263ffffffff1660e01b81526004016101c19190611355565b602060405180830381865afa1580156101de573d6000803e3d6000fd5b505050506040513d601f19601f82011682018060405250810190610202919061141e565b90506000810361023e576040517fd0d04f6000000000000000000000000000000000000000000000000000000000815260040160405180910390fd5b8173ffffffffffffffffffffffffffffffffffffffff1663a9059cbb84836040518363ffffffff1660e01b815260040161027992919061145a565b6020604051808303816000875af1158015610298573d6000803e3d6000fd5b505050506040513d601f19601f820116820180604052508101906102bc9190611498565b50505050565b60006102cc610ba7565b84600260008267ffffffffffffffff1667ffffffffffffffff16815260200190815260200160002060009054906101000a900460ff1661034357806040517f0a503cdb00000000000000000000000000000000000000000000000000000000815260040161033a91906114d4565b60405180910390fd5b6000600167ffffffffffffffff8111156103605761035f6114ef565b5b60405190808252806020026020018201604052801561039957816020015b6103866110ff565b81526020019060019003908161037e5790505b509050600060405180604001604052807f000000000000000000000000000000000000000000000000000000000000000073ffffffffffffffffffffffffffffffffffffffff1681526020018781525090508082600081518110610400576103ff61151e565b5b602002602001018190525060006040518060a00160405280896040516020016104299190611355565b60405160208183030381529060405281526020016040518060200160405280600081525081526020018481526020017f000000000000000000000000000000000000000000000000000000000000000073ffffffffffffffffffffffffffffffffffffffff1681526020016104b560405180602001604052808a67ffffffffffffffff16815250610c37565b815250905060007f000000000000000000000000000000000000000000000000000000000000000073ffffffffffffffffffffffffffffffffffffffff166320487ded8b846040518363ffffffff1660e01b8152600401610517929190611764565b602060405180830381865afa158015610534573d6000803e3d6000fd5b505050506040513d601f19601f82011682018060405250810190610558919061141e565b90507f000000000000000000000000000000000000000000000000000000000000000073ffffffffffffffffffffffffffffffffffffffff166370a08231306040518263ffffffff1660e01b81526004016105b39190611355565b602060405180830381865afa1580156105d0573d6000803e3d6000fd5b505050506040513d601f19601f820116820180604052508101906105f4919061141e565b8111156106d3577f000000000000000000000000000000000000000000000000000000000000000073ffffffffffffffffffffffffffffffffffffffff166370a08231306040518263ffffffff1660e01b81526004016106549190611355565b602060405180830381865afa158015610671573d6000803e3d6000fd5b505050506040513d601f19601f82011682018060405250810190610695919061141e565b816040517f8f0f42060000000000000000000000000000000000000000000000000000000081526004016106ca929190611794565b60405180910390fd5b7f000000000000000000000000000000000000000000000000000000000000000073ffffffffffffffffffffffffffffffffffffffff1663095ea7b37f0000000000000000000000000000000000000000000000000000000000000000836040518363ffffffff1660e01b815260040161074e92919061145a565b6020604051808303816000875af115801561076d573d6000803e3d6000fd5b505050506040513d601f19601f820116820180604052508101906107919190611498565b506107df33308a7f000000000000000000000000000000000000000000000000000000000000000073ffffffffffffffffffffffffffffffffffffffff16610cb6909392919063ffffffff16565b7f000000000000000000000000000000000000000000000000000000000000000073ffffffffffffffffffffffffffffffffffffffff1663095ea7b37f00000000000000000000000000000000000000000000000000000000000000008a6040518363ffffffff1660e01b815260040161085a92919061145a565b6020604051808303816000875af1158015610879573d6000803e3d6000fd5b505050506040513d601f19601f8201168201806040525081019061089d9190611498565b507f000000000000000000000000000000000000000000000000000000000000000073ffffffffffffffffffffffffffffffffffffffff166396f4e9f98b846040518363ffffffff1660e01b81526004016108f9929190611764565b6020604051808303816000875af1158015610918573d6000803e3d6000fd5b505050506040513d601f19601f8201168201806040525081019061093c91906117e9565b95507fb55a3d3f1ccd1c10f00aff03ad884028d98fa1d478fae03acecbf884ce8e8fbc868b8b8b85604051610975959493929190611816565b60405180910390a15050505050949350505050565b600160009054906101000a900473ffffffffffffffffffffffffffffffffffffffff1673ffffffffffffffffffffffffffffffffffffffff163373ffffffffffffffffffffffffffffffffffffffff1614610a1a576040517f08c379a0000000000000000000000000000000000000000000000000000000008152600401610a11906118c6565b60405180910390fd5b60008060009054906101000a900473ffffffffffffffffffffffffffffffffffffffff169050336000806101000a81548173ffffffffffffffffffffffffffffffffffffffff021916908373ffffffffffffffffffffffffffffffffffffffff1602179055506000600160006101000a81548173ffffffffffffffffffffffffffffffffffffffff021916908373ffffffffffffffffffffffffffffffffffffffff1602179055503373ffffffffffffffffffffffffffffffffffffffff168173ffffffffffffffffffffffffffffffffffffffff167f8be0079c531659141344cd1fd0a4f28419497f9722a3daafe3b4186f6b6457e060405160405180910390a350565b60008060009054906101000a900473ffffffffffffffffffffffffffffffffffffffff16905090565b610b50610ba7565b80600260008467ffffffffffffffff1667ffffffffffffffff16815260200190815260200160002060006101000a81548160ff0219169083151502179055505050565b610b9b610ba7565b610ba481610d3f565b50565b60008054906101000a900473ffffffffffffffffffffffffffffffffffffffff1673ffffffffffffffffffffffffffffffffffffffff163373ffffffffffffffffffffffffffffffffffffffff1614610c35576040517f08c379a0000000000000000000000000000000000000000000000000000000008152600401610c2c90611932565b60405180910390fd5b565b60606397a657c960e01b82604051602401610c52919061196e565b604051602081830303815290604052907bffffffffffffffffffffffffffffffffffffffffffffffffffffffff19166020820180517bffffffffffffffffffffffffffffffffffffffffffffffffffffffff83818316178352505050509050919050565b610d39846323b872dd60e01b858585604051602401610cd793929190611989565b604051602081830303815290604052907bffffffffffffffffffffffffffffffffffffffffffffffffffffffff19166020820180517bffffffffffffffffffffffffffffffffffffffffffffffffffffffff8381831617835250505050610e6b565b50505050565b3373ffffffffffffffffffffffffffffffffffffffff168173ffffffffffffffffffffffffffffffffffffffff1603610dad576040517f08c379a0000000000000000000000000000000000000000000000000000000008152600401610da490611a0c565b60405180910390fd5b80600160006101000a81548173ffffffffffffffffffffffffffffffffffffffff021916908373ffffffffffffffffffffffffffffffffffffffff1602179055508073ffffffffffffffffffffffffffffffffffffffff1660008054906101000a900473ffffffffffffffffffffffffffffffffffffffff1673ffffffffffffffffffffffffffffffffffffffff167fed8889f560326eb138920d842192f0eb3dd22b4f139c87a2c57538e05bae127860405160405180910390a350565b6000610ecd826040518060400160405280602081526020017f5361666545524332303a206c6f772d6c6576656c2063616c6c206661696c65648152508573ffffffffffffffffffffffffffffffffffffffff16610f329092919063ffffffff16565b9050600081511115610f2d5780806020019051810190610eed9190611498565b610f2c576040517f08c379a0000000000000000000000000000000000000000000000000000000008152600401610f2390611a9e565b60405180910390fd5b5b505050565b6060610f418484600085610f4a565b90509392505050565b606082471015610f8f576040517f08c379a0000000000000000000000000000000000000000000000000000000008152600401610f8690611b30565b60405180910390fd5b6000808673ffffffffffffffffffffffffffffffffffffffff168587604051610fb89190611b8c565b60006040518083038185875af1925050503d8060008114610ff5576040519150601f19603f3d011682016040523d82523d6000602084013e610ffa565b606091505b509150915061100b87838387611017565b92505050949350505050565b60608315611079576000835103611071576110318561108c565b611070576040517f08c379a000000000000000000000000000000000000000000000000000000000815260040161106790611bef565b60405180910390fd5b5b829050611084565b61108383836110af565b5b949350505050565b6000808273ffffffffffffffffffffffffffffffffffffffff163b119050919050565b6000825111156110c25781518083602001fd5b806040517f08c379a00000000000000000000000000000000000000000000000000000000081526004016110f69190611c53565b60405180910390fd5b6040518060400160405280600073ffffffffffffffffffffffffffffffffffffffff168152602001600081525090565b600080fd5b600067ffffffffffffffff82169050919050565b61115181611134565b811461115c57600080fd5b50565b60008135905061116e81611148565b92915050565b60006020828403121561118a5761118961112f565b5b60006111988482850161115f565b91505092915050565b60008115159050919050565b6111b6816111a1565b82525050565b60006020820190506111d160008301846111ad565b92915050565b600073ffffffffffffffffffffffffffffffffffffffff82169050919050565b6000611202826111d7565b9050919050565b611212816111f7565b811461121d57600080fd5b50565b60008135905061122f81611209565b92915050565b6000806040838503121561124c5761124b61112f565b5b600061125a85828601611220565b925050602061126b85828601611220565b9150509250929050565b6000819050919050565b61128881611275565b811461129357600080fd5b50565b6000813590506112a58161127f565b92915050565b600080600080608085870312156112c5576112c461112f565b5b60006112d38782880161115f565b94505060206112e487828801611220565b93505060406112f587828801611296565b92505060606113068782880161115f565b91505092959194509250565b6000819050919050565b61132581611312565b82525050565b6000602082019050611340600083018461131c565b92915050565b61134f816111f7565b82525050565b600060208201905061136a6000830184611346565b92915050565b611379816111a1565b811461138457600080fd5b50565b60008135905061139681611370565b92915050565b600080604083850312156113b3576113b261112f565b5b60006113c18582860161115f565b92505060206113d285828601611387565b9150509250929050565b6000602082840312156113f2576113f161112f565b5b600061140084828501611220565b91505092915050565b6000815190506114188161127f565b92915050565b6000602082840312156114345761143361112f565b5b600061144284828501611409565b91505092915050565b61145481611275565b82525050565b600060408201905061146f6000830185611346565b61147c602083018461144b565b9392505050565b60008151905061149281611370565b92915050565b6000602082840312156114ae576114ad61112f565b5b60006114bc84828501611483565b91505092915050565b6114ce81611134565b82525050565b60006020820190506114e960008301846114c5565b92915050565b7f4e487b7100000000000000000000000000000000000000000000000000000000600052604160045260246000fd5b7f4e487b7100000000000000000000000000000000000000000000000000000000600052603260045260246000fd5b600081519050919050565b600082825260208201905092915050565b60005b8381101561158757808201518184015260208101905061156c565b60008484015250505050565b6000601f19601f8301169050919050565b60006115af8261154d565b6115b98185611558565b93506115c9818560208601611569565b6115d281611593565b840191505092915050565b600081519050919050565b600082825260208201905092915050565b6000819050602082019050919050565b611612816111f7565b82525050565b61162181611275565b82525050565b60408201600082015161163d6000850182611609565b5060208201516116506020850182611618565b50505050565b60006116628383611627565b60408301905092915050565b6000602082019050919050565b6000611686826115dd565b61169081856115e8565b935061169b836115f9565b8060005b838110156116cc5781516116b38882611656565b97506116be8361166e565b92505060018101905061169f565b5085935050505092915050565b600060a08301600083015184820360008601526116f682826115a4565b9150506020830151848203602086015261171082826115a4565b9150506040830151848203604086015261172a828261167b565b915050606083015161173f6060860182611609565b506080830151848203608086015261175782826115a4565b9150508091505092915050565b600060408201905061177960008301856114c5565b818103602083015261178b81846116d9565b90509392505050565b60006040820190506117a9600083018561144b565b6117b6602083018461144b565b9392505050565b6117c681611312565b81146117d157600080fd5b50565b6000815190506117e3816117bd565b92915050565b6000602082840312156117ff576117fe61112f565b5b600061180d848285016117d4565b91505092915050565b600060a08201905061182b600083018861131c565b61183860208301876114c5565b6118456040830186611346565b611852606083018561144b565b61185f608083018461144b565b9695505050505050565b600082825260208201905092915050565b7f4d7573742062652070726f706f736564206f776e657200000000000000000000600082015250565b60006118b0601683611869565b91506118bb8261187a565b602082019050919050565b600060208201905081810360008301526118df816118a3565b9050919050565b7f4f6e6c792063616c6c61626c65206279206f776e657200000000000000000000600082015250565b600061191c601683611869565b9150611927826118e6565b602082019050919050565b6000602082019050818103600083015261194b8161190f565b9050919050565b6020820160008201516119686000850182611618565b50505050565b60006020820190506119836000830184611952565b92915050565b600060608201905061199e6000830186611346565b6119ab6020830185611346565b6119b8604083018461144b565b949350505050565b7f43616e6e6f74207472616e7366657220746f2073656c66000000000000000000600082015250565b60006119f6601783611869565b9150611a01826119c0565b602082019050919050565b60006020820190508181036000830152611a25816119e9565b9050919050565b7f5361666545524332303a204552433230206f7065726174696f6e20646964206e60008201527f6f74207375636365656400000000000000000000000000000000000000000000602082015250565b6000611a88602a83611869565b9150611a9382611a2c565b604082019050919050565b60006020820190508181036000830152611ab781611a7b565b9050919050565b7f416464726573733a20696e73756666696369656e742062616c616e636520666f60008201527f722063616c6c0000000000000000000000000000000000000000000000000000602082015250565b6000611b1a602683611869565b9150611b2582611abe565b604082019050919050565b60006020820190508181036000830152611b4981611b0d565b9050919050565b600081905092915050565b6000611b668261154d565b611b708185611b50565b9350611b80818560208601611569565b80840191505092915050565b6000611b988284611b5b565b915081905092915050565b7f416464726573733a2063616c6c20746f206e6f6e2d636f6e7472616374000000600082015250565b6000611bd9601d83611869565b9150611be482611ba3565b602082019050919050565b60006020820190508181036000830152611c0881611bcc565b9050919050565b600081519050919050565b6000611c2582611c0f565b611c2f8185611869565b9350611c3f818560208601611569565b611c4881611593565b840191505092915050565b60006020820190508181036000830152611c6d8184611c1a565b90509291505056fea2646970667358221220c03d9570507de331132124189c43926eb9c3f4da28971e22bae19a9330337d1964736f6c63430008140033",
					"opcodes": "PUSH1 0xE0 PUSH1 0x40 MSTORE CALLVALUE DUP1 ISZERO PUSH3 0x11 JUMPI PUSH1 0x0 DUP1 REVERT JUMPDEST POP PUSH1 0x40 MLOAD PUSH3 0x21D8 CODESIZE SUB DUP1 PUSH3 0x21D8 DUP4 CODECOPY DUP2 DUP2 ADD PUSH1 0x40 MSTORE DUP2 ADD SWAP1 PUSH3 0x37 SWAP2 SWAP1 PUSH3 0x374 JUMP JUMPDEST CALLER DUP1 PUSH1 0x0 DUP1 PUSH20 0xFFFFFFFFFFFFFFFFFFFFFFFFFFFFFFFFFFFFFFFF AND DUP3 PUSH20 0xFFFFFFFFFFFFFFFFFFFFFFFFFFFFFFFFFFFFFFFF AND SUB PUSH3 0xAC JUMPI PUSH1 0x40 MLOAD PUSH32 0x8C379A000000000000000000000000000000000000000000000000000000000 DUP2 MSTORE PUSH1 0x4 ADD PUSH3 0xA3 SWAP1 PUSH3 0x431 JUMP JUMPDEST PUSH1 0x40 MLOAD DUP1 SWAP2 SUB SWAP1 REVERT JUMPDEST DUP2 PUSH1 0x0 DUP1 PUSH2 0x100 EXP DUP2 SLOAD DUP2 PUSH20 0xFFFFFFFFFFFFFFFFFFFFFFFFFFFFFFFFFFFFFFFF MUL NOT AND SWAP1 DUP4 PUSH20 0xFFFFFFFFFFFFFFFFFFFFFFFFFFFFFFFFFFFFFFFF AND MUL OR SWAP1 SSTORE POP PUSH1 0x0 PUSH20 0xFFFFFFFFFFFFFFFFFFFFFFFFFFFFFFFFFFFFFFFF AND DUP2 PUSH20 0xFFFFFFFFFFFFFFFFFFFFFFFFFFFFFFFFFFFFFFFF AND EQ PUSH3 0x133 JUMPI PUSH3 0x132 DUP2 PUSH3 0x1DB PUSH1 0x20 SHL PUSH1 0x20 SHR JUMP JUMPDEST JUMPDEST POP POP POP DUP3 PUSH20 0xFFFFFFFFFFFFFFFFFFFFFFFFFFFFFFFFFFFFFFFF AND PUSH1 0x80 DUP2 PUSH20 0xFFFFFFFFFFFFFFFFFFFFFFFFFFFFFFFFFFFFFFFF AND DUP2 MSTORE POP POP DUP2 PUSH20 0xFFFFFFFFFFFFFFFFFFFFFFFFFFFFFFFFFFFFFFFF AND PUSH1 0xA0 DUP2 PUSH20 0xFFFFFFFFFFFFFFFFFFFFFFFFFFFFFFFFFFFFFFFF AND DUP2 MSTORE POP POP DUP1 PUSH20 0xFFFFFFFFFFFFFFFFFFFFFFFFFFFFFFFFFFFFFFFF AND PUSH1 0xC0 DUP2 PUSH20 0xFFFFFFFFFFFFFFFFFFFFFFFFFFFFFFFFFFFFFFFF AND DUP2 MSTORE POP POP POP POP POP PUSH3 0x4C5 JUMP JUMPDEST CALLER PUSH20 0xFFFFFFFFFFFFFFFFFFFFFFFFFFFFFFFFFFFFFFFF AND DUP2 PUSH20 0xFFFFFFFFFFFFFFFFFFFFFFFFFFFFFFFFFFFFFFFF AND SUB PUSH3 0x24C JUMPI PUSH1 0x40 MLOAD PUSH32 0x8C379A000000000000000000000000000000000000000000000000000000000 DUP2 MSTORE PUSH1 0x4 ADD PUSH3 0x243 SWAP1 PUSH3 0x4A3 JUMP JUMPDEST PUSH1 0x40 MLOAD DUP1 SWAP2 SUB SWAP1 REVERT JUMPDEST DUP1 PUSH1 0x1 PUSH1 0x0 PUSH2 0x100 EXP DUP2 SLOAD DUP2 PUSH20 0xFFFFFFFFFFFFFFFFFFFFFFFFFFFFFFFFFFFFFFFF MUL NOT AND SWAP1 DUP4 PUSH20 0xFFFFFFFFFFFFFFFFFFFFFFFFFFFFFFFFFFFFFFFF AND MUL OR SWAP1 SSTORE POP DUP1 PUSH20 0xFFFFFFFFFFFFFFFFFFFFFFFFFFFFFFFFFFFFFFFF AND PUSH1 0x0 DUP1 SLOAD SWAP1 PUSH2 0x100 EXP SWAP1 DIV PUSH20 0xFFFFFFFFFFFFFFFFFFFFFFFFFFFFFFFFFFFFFFFF AND PUSH20 0xFFFFFFFFFFFFFFFFFFFFFFFFFFFFFFFFFFFFFFFF AND PUSH32 0xED8889F560326EB138920D842192F0EB3DD22B4F139C87A2C57538E05BAE1278 PUSH1 0x40 MLOAD PUSH1 0x40 MLOAD DUP1 SWAP2 SUB SWAP1 LOG3 POP JUMP JUMPDEST PUSH1 0x0 DUP1 REVERT JUMPDEST PUSH1 0x0 PUSH20 0xFFFFFFFFFFFFFFFFFFFFFFFFFFFFFFFFFFFFFFFF DUP3 AND SWAP1 POP SWAP2 SWAP1 POP JUMP JUMPDEST PUSH1 0x0 PUSH3 0x33C DUP3 PUSH3 0x30F JUMP JUMPDEST SWAP1 POP SWAP2 SWAP1 POP JUMP JUMPDEST PUSH3 0x34E DUP2 PUSH3 0x32F JUMP JUMPDEST DUP2 EQ PUSH3 0x35A JUMPI PUSH1 0x0 DUP1 REVERT JUMPDEST POP JUMP JUMPDEST PUSH1 0x0 DUP2 MLOAD SWAP1 POP PUSH3 0x36E DUP2 PUSH3 0x343 JUMP JUMPDEST SWAP3 SWAP2 POP POP JUMP JUMPDEST PUSH1 0x0 DUP1 PUSH1 0x0 PUSH1 0x60 DUP5 DUP7 SUB SLT ISZERO PUSH3 0x390 JUMPI PUSH3 0x38F PUSH3 0x30A JUMP JUMPDEST JUMPDEST PUSH1 0x0 PUSH3 0x3A0 DUP7 DUP3 DUP8 ADD PUSH3 0x35D JUMP JUMPDEST SWAP4 POP POP PUSH1 0x20 PUSH3 0x3B3 DUP7 DUP3 DUP8 ADD PUSH3 0x35D JUMP JUMPDEST SWAP3 POP POP PUSH1 0x40 PUSH3 0x3C6 DUP7 DUP3 DUP8 ADD PUSH3 0x35D JUMP JUMPDEST SWAP2 POP POP SWAP3 POP SWAP3 POP SWAP3 JUMP JUMPDEST PUSH1 0x0 DUP3 DUP3 MSTORE PUSH1 0x20 DUP3 ADD SWAP1 POP SWAP3 SWAP2 POP POP JUMP JUMPDEST PUSH32 0x43616E6E6F7420736574206F776E657220746F207A65726F0000000000000000 PUSH1 0x0 DUP3 ADD MSTORE POP JUMP JUMPDEST PUSH1 0x0 PUSH3 0x419 PUSH1 0x18 DUP4 PUSH3 0x3D0 JUMP JUMPDEST SWAP2 POP PUSH3 0x426 DUP3 PUSH3 0x3E1 JUMP JUMPDEST PUSH1 0x20 DUP3 ADD SWAP1 POP SWAP2 SWAP1 POP JUMP JUMPDEST PUSH1 0x0 PUSH1 0x20 DUP3 ADD SWAP1 POP DUP2 DUP2 SUB PUSH1 0x0 DUP4 ADD MSTORE PUSH3 0x44C DUP2 PUSH3 0x40A JUMP JUMPDEST SWAP1 POP SWAP2 SWAP1 POP JUMP JUMPDEST PUSH32 0x43616E6E6F74207472616E7366657220746F2073656C66000000000000000000 PUSH1 0x0 DUP3 ADD MSTORE POP JUMP JUMPDEST PUSH1 0x0 PUSH3 0x48B PUSH1 0x17 DUP4 PUSH3 0x3D0 JUMP JUMPDEST SWAP2 POP PUSH3 0x498 DUP3 PUSH3 0x453 JUMP JUMPDEST PUSH1 0x20 DUP3 ADD SWAP1 POP SWAP2 SWAP1 POP JUMP JUMPDEST PUSH1 0x0 PUSH1 0x20 DUP3 ADD SWAP1 POP DUP2 DUP2 SUB PUSH1 0x0 DUP4 ADD MSTORE PUSH3 0x4BE DUP2 PUSH3 0x47C JUMP JUMPDEST SWAP1 POP SWAP2 SWAP1 POP JUMP JUMPDEST PUSH1 0x80 MLOAD PUSH1 0xA0 MLOAD PUSH1 0xC0 MLOAD PUSH2 0x1CAB PUSH3 0x52D PUSH1 0x0 CODECOPY PUSH1 0x0 DUP2 DUP2 PUSH2 0x3AB ADD MSTORE DUP2 DUP2 PUSH2 0x79A ADD MSTORE PUSH2 0x7E1 ADD MSTORE PUSH1 0x0 DUP2 DUP2 PUSH2 0x45A ADD MSTORE DUP2 DUP2 PUSH2 0x55C ADD MSTORE DUP2 DUP2 PUSH2 0x5FD ADD MSTORE PUSH2 0x6D5 ADD MSTORE PUSH1 0x0 DUP2 DUP2 PUSH2 0x4BE ADD MSTORE DUP2 DUP2 PUSH2 0x711 ADD MSTORE DUP2 DUP2 PUSH2 0x81D ADD MSTORE PUSH2 0x8A0 ADD MSTORE PUSH2 0x1CAB PUSH1 0x0 RETURN INVALID PUSH1 0x80 PUSH1 0x40 MSTORE CALLVALUE DUP1 ISZERO PUSH2 0x10 JUMPI PUSH1 0x0 DUP1 REVERT JUMPDEST POP PUSH1 0x4 CALLDATASIZE LT PUSH2 0x7D JUMPI PUSH1 0x0 CALLDATALOAD PUSH1 0xE0 SHR DUP1 PUSH4 0x79BA5097 GT PUSH2 0x5B JUMPI DUP1 PUSH4 0x79BA5097 EQ PUSH2 0xFE JUMPI DUP1 PUSH4 0x8DA5CB5B EQ PUSH2 0x108 JUMPI DUP1 PUSH4 0x96D3B83D EQ PUSH2 0x126 JUMPI DUP1 PUSH4 0xF2FDE38B EQ PUSH2 0x142 JUMPI PUSH2 0x7D JUMP JUMPDEST DUP1 PUSH4 0xBB106EB EQ PUSH2 0x82 JUMPI DUP1 PUSH4 0x3AEAC4E1 EQ PUSH2 0xB2 JUMPI DUP1 PUSH4 0x6B83161A EQ PUSH2 0xCE JUMPI JUMPDEST PUSH1 0x0 DUP1 REVERT JUMPDEST PUSH2 0x9C PUSH1 0x4 DUP1 CALLDATASIZE SUB DUP2 ADD SWAP1 PUSH2 0x97 SWAP2 SWAP1 PUSH2 0x1174 JUMP JUMPDEST PUSH2 0x15E JUMP JUMPDEST PUSH1 0x40 MLOAD PUSH2 0xA9 SWAP2 SWAP1 PUSH2 0x11BC JUMP JUMPDEST PUSH1 0x40 MLOAD DUP1 SWAP2 SUB SWAP1 RETURN JUMPDEST PUSH2 0xCC PUSH1 0x4 DUP1 CALLDATASIZE SUB DUP2 ADD SWAP1 PUSH2 0xC7 SWAP2 SWAP1 PUSH2 0x1235 JUMP JUMPDEST PUSH2 0x17E JUMP JUMPDEST STOP JUMPDEST PUSH2 0xE8 PUSH1 0x4 DUP1 CALLDATASIZE SUB DUP2 ADD SWAP1 PUSH2 0xE3 SWAP2 SWAP1 PUSH2 0x12AB JUMP JUMPDEST PUSH2 0x2C2 JUMP JUMPDEST PUSH1 0x40 MLOAD PUSH2 0xF5 SWAP2 SWAP1 PUSH2 0x132B JUMP JUMPDEST PUSH1 0x40 MLOAD DUP1 SWAP2 SUB SWAP1 RETURN JUMPDEST PUSH2 0x106 PUSH2 0x98A JUMP JUMPDEST STOP JUMPDEST PUSH2 0x110 PUSH2 0xB1F JUMP JUMPDEST PUSH1 0x40 MLOAD PUSH2 0x11D SWAP2 SWAP1 PUSH2 0x1355 JUMP JUMPDEST PUSH1 0x40 MLOAD DUP1 SWAP2 SUB SWAP1 RETURN JUMPDEST PUSH2 0x140 PUSH1 0x4 DUP1 CALLDATASIZE SUB DUP2 ADD SWAP1 PUSH2 0x13B SWAP2 SWAP1 PUSH2 0x139C JUMP JUMPDEST PUSH2 0xB48 JUMP JUMPDEST STOP JUMPDEST PUSH2 0x15C PUSH1 0x4 DUP1 CALLDATASIZE SUB DUP2 ADD SWAP1 PUSH2 0x157 SWAP2 SWAP1 PUSH2 0x13DC JUMP JUMPDEST PUSH2 0xB93 JUMP JUMPDEST STOP JUMPDEST PUSH1 0x2 PUSH1 0x20 MSTORE DUP1 PUSH1 0x0 MSTORE PUSH1 0x40 PUSH1 0x0 KECCAK256 PUSH1 0x0 SWAP2 POP SLOAD SWAP1 PUSH2 0x100 EXP SWAP1 DIV PUSH1 0xFF AND DUP2 JUMP JUMPDEST PUSH2 0x186 PUSH2 0xBA7 JUMP JUMPDEST PUSH1 0x0 DUP2 PUSH20 0xFFFFFFFFFFFFFFFFFFFFFFFFFFFFFFFFFFFFFFFF AND PUSH4 0x70A08231 ADDRESS PUSH1 0x40 MLOAD DUP3 PUSH4 0xFFFFFFFF AND PUSH1 0xE0 SHL DUP2 MSTORE PUSH1 0x4 ADD PUSH2 0x1C1 SWAP2 SWAP1 PUSH2 0x1355 JUMP JUMPDEST PUSH1 0x20 PUSH1 0x40 MLOAD DUP1 DUP4 SUB DUP2 DUP7 GAS STATICCALL ISZERO DUP1 ISZERO PUSH2 0x1DE JUMPI RETURNDATASIZE PUSH1 0x0 DUP1 RETURNDATACOPY RETURNDATASIZE PUSH1 0x0 REVERT JUMPDEST POP POP POP POP PUSH1 0x40 MLOAD RETURNDATASIZE PUSH1 0x1F NOT PUSH1 0x1F DUP3 ADD AND DUP3 ADD DUP1 PUSH1 0x40 MSTORE POP DUP2 ADD SWAP1 PUSH2 0x202 SWAP2 SWAP1 PUSH2 0x141E JUMP JUMPDEST SWAP1 POP PUSH1 0x0 DUP2 SUB PUSH2 0x23E JUMPI PUSH1 0x40 MLOAD PUSH32 0xD0D04F6000000000000000000000000000000000000000000000000000000000 DUP2 MSTORE PUSH1 0x4 ADD PUSH1 0x40 MLOAD DUP1 SWAP2 SUB SWAP1 REVERT JUMPDEST DUP2 PUSH20 0xFFFFFFFFFFFFFFFFFFFFFFFFFFFFFFFFFFFFFFFF AND PUSH4 0xA9059CBB DUP5 DUP4 PUSH1 0x40 MLOAD DUP4 PUSH4 0xFFFFFFFF AND PUSH1 0xE0 SHL DUP2 MSTORE PUSH1 0x4 ADD PUSH2 0x279 SWAP3 SWAP2 SWAP1 PUSH2 0x145A JUMP JUMPDEST PUSH1 0x20 PUSH1 0x40 MLOAD DUP1 DUP4 SUB DUP2 PUSH1 0x0 DUP8 GAS CALL ISZERO DUP1 ISZERO PUSH2 0x298 JUMPI RETURNDATASIZE PUSH1 0x0 DUP1 RETURNDATACOPY RETURNDATASIZE PUSH1 0x0 REVERT JUMPDEST POP POP POP POP PUSH1 0x40 MLOAD RETURNDATASIZE PUSH1 0x1F NOT PUSH1 0x1F DUP3 ADD AND DUP3 ADD DUP1 PUSH1 0x40 MSTORE POP DUP2 ADD SWAP1 PUSH2 0x2BC SWAP2 SWAP1 PUSH2 0x1498 JUMP JUMPDEST POP POP POP POP JUMP JUMPDEST PUSH1 0x0 PUSH2 0x2CC PUSH2 0xBA7 JUMP JUMPDEST DUP5 PUSH1 0x2 PUSH1 0x0 DUP3 PUSH8 0xFFFFFFFFFFFFFFFF AND PUSH8 0xFFFFFFFFFFFFFFFF AND DUP2 MSTORE PUSH1 0x20 ADD SWAP1 DUP2 MSTORE PUSH1 0x20 ADD PUSH1 0x0 KECCAK256 PUSH1 0x0 SWAP1 SLOAD SWAP1 PUSH2 0x100 EXP SWAP1 DIV PUSH1 0xFF AND PUSH2 0x343 JUMPI DUP1 PUSH1 0x40 MLOAD PUSH32 0xA503CDB00000000000000000000000000000000000000000000000000000000 DUP2 MSTORE PUSH1 0x4 ADD PUSH2 0x33A SWAP2 SWAP1 PUSH2 0x14D4 JUMP JUMPDEST PUSH1 0x40 MLOAD DUP1 SWAP2 SUB SWAP1 REVERT JUMPDEST PUSH1 0x0 PUSH1 0x1 PUSH8 0xFFFFFFFFFFFFFFFF DUP2 GT ISZERO PUSH2 0x360 JUMPI PUSH2 0x35F PUSH2 0x14EF JUMP JUMPDEST JUMPDEST PUSH1 0x40 MLOAD SWAP1 DUP1 DUP3 MSTORE DUP1 PUSH1 0x20 MUL PUSH1 0x20 ADD DUP3 ADD PUSH1 0x40 MSTORE DUP1 ISZERO PUSH2 0x399 JUMPI DUP2 PUSH1 0x20 ADD JUMPDEST PUSH2 0x386 PUSH2 0x10FF JUMP JUMPDEST DUP2 MSTORE PUSH1 0x20 ADD SWAP1 PUSH1 0x1 SWAP1 SUB SWAP1 DUP2 PUSH2 0x37E JUMPI SWAP1 POP JUMPDEST POP SWAP1 POP PUSH1 0x0 PUSH1 0x40 MLOAD DUP1 PUSH1 0x40 ADD PUSH1 0x40 MSTORE DUP1 PUSH32 0x0 PUSH20 0xFFFFFFFFFFFFFFFFFFFFFFFFFFFFFFFFFFFFFFFF AND DUP2 MSTORE PUSH1 0x20 ADD DUP8 DUP2 MSTORE POP SWAP1 POP DUP1 DUP3 PUSH1 0x0 DUP2 MLOAD DUP2 LT PUSH2 0x400 JUMPI PUSH2 0x3FF PUSH2 0x151E JUMP JUMPDEST JUMPDEST PUSH1 0x20 MUL PUSH1 0x20 ADD ADD DUP2 SWAP1 MSTORE POP PUSH1 0x0 PUSH1 0x40 MLOAD DUP1 PUSH1 0xA0 ADD PUSH1 0x40 MSTORE DUP1 DUP10 PUSH1 0x40 MLOAD PUSH1 0x20 ADD PUSH2 0x429 SWAP2 SWAP1 PUSH2 0x1355 JUMP JUMPDEST PUSH1 0x40 MLOAD PUSH1 0x20 DUP2 DUP4 SUB SUB DUP2 MSTORE SWAP1 PUSH1 0x40 MSTORE DUP2 MSTORE PUSH1 0x20 ADD PUSH1 0x40 MLOAD DUP1 PUSH1 0x20 ADD PUSH1 0x40 MSTORE DUP1 PUSH1 0x0 DUP2 MSTORE POP DUP2 MSTORE PUSH1 0x20 ADD DUP5 DUP2 MSTORE PUSH1 0x20 ADD PUSH32 0x0 PUSH20 0xFFFFFFFFFFFFFFFFFFFFFFFFFFFFFFFFFFFFFFFF AND DUP2 MSTORE PUSH1 0x20 ADD PUSH2 0x4B5 PUSH1 0x40 MLOAD DUP1 PUSH1 0x20 ADD PUSH1 0x40 MSTORE DUP1 DUP11 PUSH8 0xFFFFFFFFFFFFFFFF AND DUP2 MSTORE POP PUSH2 0xC37 JUMP JUMPDEST DUP2 MSTORE POP SWAP1 POP PUSH1 0x0 PUSH32 0x0 PUSH20 0xFFFFFFFFFFFFFFFFFFFFFFFFFFFFFFFFFFFFFFFF AND PUSH4 0x20487DED DUP12 DUP5 PUSH1 0x40 MLOAD DUP4 PUSH4 0xFFFFFFFF AND PUSH1 0xE0 SHL DUP2 MSTORE PUSH1 0x4 ADD PUSH2 0x517 SWAP3 SWAP2 SWAP1 PUSH2 0x1764 JUMP JUMPDEST PUSH1 0x20 PUSH1 0x40 MLOAD DUP1 DUP4 SUB DUP2 DUP7 GAS STATICCALL ISZERO DUP1 ISZERO PUSH2 0x534 JUMPI RETURNDATASIZE PUSH1 0x0 DUP1 RETURNDATACOPY RETURNDATASIZE PUSH1 0x0 REVERT JUMPDEST POP POP POP POP PUSH1 0x40 MLOAD RETURNDATASIZE PUSH1 0x1F NOT PUSH1 0x1F DUP3 ADD AND DUP3 ADD DUP1 PUSH1 0x40 MSTORE POP DUP2 ADD SWAP1 PUSH2 0x558 SWAP2 SWAP1 PUSH2 0x141E JUMP JUMPDEST SWAP1 POP PUSH32 0x0 PUSH20 0xFFFFFFFFFFFFFFFFFFFFFFFFFFFFFFFFFFFFFFFF AND PUSH4 0x70A08231 ADDRESS PUSH1 0x40 MLOAD DUP3 PUSH4 0xFFFFFFFF AND PUSH1 0xE0 SHL DUP2 MSTORE PUSH1 0x4 ADD PUSH2 0x5B3 SWAP2 SWAP1 PUSH2 0x1355 JUMP JUMPDEST PUSH1 0x20 PUSH1 0x40 MLOAD DUP1 DUP4 SUB DUP2 DUP7 GAS STATICCALL ISZERO DUP1 ISZERO PUSH2 0x5D0 JUMPI RETURNDATASIZE PUSH1 0x0 DUP1 RETURNDATACOPY RETURNDATASIZE PUSH1 0x0 REVERT JUMPDEST POP POP POP POP PUSH1 0x40 MLOAD RETURNDATASIZE PUSH1 0x1F NOT PUSH1 0x1F DUP3 ADD AND DUP3 ADD DUP1 PUSH1 0x40 MSTORE POP DUP2 ADD SWAP1 PUSH2 0x5F4 SWAP2 SWAP1 PUSH2 0x141E JUMP JUMPDEST DUP2 GT ISZERO PUSH2 0x6D3 JUMPI PUSH32 0x0 PUSH20 0xFFFFFFFFFFFFFFFFFFFFFFFFFFFFFFFFFFFFFFFF AND PUSH4 0x70A08231 ADDRESS PUSH1 0x40 MLOAD DUP3 PUSH4 0xFFFFFFFF AND PUSH1 0xE0 SHL DUP2 MSTORE PUSH1 0x4 ADD PUSH2 0x654 SWAP2 SWAP1 PUSH2 0x1355 JUMP JUMPDEST PUSH1 0x20 PUSH1 0x40 MLOAD DUP1 DUP4 SUB DUP2 DUP7 GAS STATICCALL ISZERO DUP1 ISZERO PUSH2 0x671 JUMPI RETURNDATASIZE PUSH1 0x0 DUP1 RETURNDATACOPY RETURNDATASIZE PUSH1 0x0 REVERT JUMPDEST POP POP POP POP PUSH1 0x40 MLOAD RETURNDATASIZE PUSH1 0x1F NOT PUSH1 0x1F DUP3 ADD AND DUP3 ADD DUP1 PUSH1 0x40 MSTORE POP DUP2 ADD SWAP1 PUSH2 0x695 SWAP2 SWAP1 PUSH2 0x141E JUMP JUMPDEST DUP2 PUSH1 0x40 MLOAD PUSH32 0x8F0F420600000000000000000000000000000000000000000000000000000000 DUP2 MSTORE PUSH1 0x4 ADD PUSH2 0x6CA SWAP3 SWAP2 SWAP1 PUSH2 0x1794 JUMP JUMPDEST PUSH1 0x40 MLOAD DUP1 SWAP2 SUB SWAP1 REVERT JUMPDEST PUSH32 0x0 PUSH20 0xFFFFFFFFFFFFFFFFFFFFFFFFFFFFFFFFFFFFFFFF AND PUSH4 0x95EA7B3 PUSH32 0x0 DUP4 PUSH1 0x40 MLOAD DUP4 PUSH4 0xFFFFFFFF AND PUSH1 0xE0 SHL DUP2 MSTORE PUSH1 0x4 ADD PUSH2 0x74E SWAP3 SWAP2 SWAP1 PUSH2 0x145A JUMP JUMPDEST PUSH1 0x20 PUSH1 0x40 MLOAD DUP1 DUP4 SUB DUP2 PUSH1 0x0 DUP8 GAS CALL ISZERO DUP1 ISZERO PUSH2 0x76D JUMPI RETURNDATASIZE PUSH1 0x0 DUP1 RETURNDATACOPY RETURNDATASIZE PUSH1 0x0 REVERT JUMPDEST POP POP POP POP PUSH1 0x40 MLOAD RETURNDATASIZE PUSH1 0x1F NOT PUSH1 0x1F DUP3 ADD AND DUP3 ADD DUP1 PUSH1 0x40 MSTORE POP DUP2 ADD SWAP1 PUSH2 0x791 SWAP2 SWAP1 PUSH2 0x1498 JUMP JUMPDEST POP PUSH2 0x7DF CALLER ADDRESS DUP11 PUSH32 0x0 PUSH20 0xFFFFFFFFFFFFFFFFFFFFFFFFFFFFFFFFFFFFFFFF AND PUSH2 0xCB6 SWAP1 SWAP4 SWAP3 SWAP2 SWAP1 PUSH4 0xFFFFFFFF AND JUMP JUMPDEST PUSH32 0x0 PUSH20 0xFFFFFFFFFFFFFFFFFFFFFFFFFFFFFFFFFFFFFFFF AND PUSH4 0x95EA7B3 PUSH32 0x0 DUP11 PUSH1 0x40 MLOAD DUP4 PUSH4 0xFFFFFFFF AND PUSH1 0xE0 SHL DUP2 MSTORE PUSH1 0x4 ADD PUSH2 0x85A SWAP3 SWAP2 SWAP1 PUSH2 0x145A JUMP JUMPDEST PUSH1 0x20 PUSH1 0x40 MLOAD DUP1 DUP4 SUB DUP2 PUSH1 0x0 DUP8 GAS CALL ISZERO DUP1 ISZERO PUSH2 0x879 JUMPI RETURNDATASIZE PUSH1 0x0 DUP1 RETURNDATACOPY RETURNDATASIZE PUSH1 0x0 REVERT JUMPDEST POP POP POP POP PUSH1 0x40 MLOAD RETURNDATASIZE PUSH1 0x1F NOT PUSH1 0x1F DUP3 ADD AND DUP3 ADD DUP1 PUSH1 0x40 MSTORE POP DUP2 ADD SWAP1 PUSH2 0x89D SWAP2 SWAP1 PUSH2 0x1498 JUMP JUMPDEST POP PUSH32 0x0 PUSH20 0xFFFFFFFFFFFFFFFFFFFFFFFFFFFFFFFFFFFFFFFF AND PUSH4 0x96F4E9F9 DUP12 DUP5 PUSH1 0x40 MLOAD DUP4 PUSH4 0xFFFFFFFF AND PUSH1 0xE0 SHL DUP2 MSTORE PUSH1 0x4 ADD PUSH2 0x8F9 SWAP3 SWAP2 SWAP1 PUSH2 0x1764 JUMP JUMPDEST PUSH1 0x20 PUSH1 0x40 MLOAD DUP1 DUP4 SUB DUP2 PUSH1 0x0 DUP8 GAS CALL ISZERO DUP1 ISZERO PUSH2 0x918 JUMPI RETURNDATASIZE PUSH1 0x0 DUP1 RETURNDATACOPY RETURNDATASIZE PUSH1 0x0 REVERT JUMPDEST POP POP POP POP PUSH1 0x40 MLOAD RETURNDATASIZE PUSH1 0x1F NOT PUSH1 0x1F DUP3 ADD AND DUP3 ADD DUP1 PUSH1 0x40 MSTORE POP DUP2 ADD SWAP1 PUSH2 0x93C SWAP2 SWAP1 PUSH2 0x17E9 JUMP JUMPDEST SWAP6 POP PUSH32 0xB55A3D3F1CCD1C10F00AFF03AD884028D98FA1D478FAE03ACECBF884CE8E8FBC DUP7 DUP12 DUP12 DUP12 DUP6 PUSH1 0x40 MLOAD PUSH2 0x975 SWAP6 SWAP5 SWAP4 SWAP3 SWAP2 SWAP1 PUSH2 0x1816 JUMP JUMPDEST PUSH1 0x40 MLOAD DUP1 SWAP2 SUB SWAP1 LOG1 POP POP POP POP POP SWAP5 SWAP4 POP POP POP POP JUMP JUMPDEST PUSH1 0x1 PUSH1 0x0 SWAP1 SLOAD SWAP1 PUSH2 0x100 EXP SWAP1 DIV PUSH20 0xFFFFFFFFFFFFFFFFFFFFFFFFFFFFFFFFFFFFFFFF AND PUSH20 0xFFFFFFFFFFFFFFFFFFFFFFFFFFFFFFFFFFFFFFFF AND CALLER PUSH20 0xFFFFFFFFFFFFFFFFFFFFFFFFFFFFFFFFFFFFFFFF AND EQ PUSH2 0xA1A JUMPI PUSH1 0x40 MLOAD PUSH32 0x8C379A000000000000000000000000000000000000000000000000000000000 DUP2 MSTORE PUSH1 0x4 ADD PUSH2 0xA11 SWAP1 PUSH2 0x18C6 JUMP JUMPDEST PUSH1 0x40 MLOAD DUP1 SWAP2 SUB SWAP1 REVERT JUMPDEST PUSH1 0x0 DUP1 PUSH1 0x0 SWAP1 SLOAD SWAP1 PUSH2 0x100 EXP SWAP1 DIV PUSH20 0xFFFFFFFFFFFFFFFFFFFFFFFFFFFFFFFFFFFFFFFF AND SWAP1 POP CALLER PUSH1 0x0 DUP1 PUSH2 0x100 EXP DUP2 SLOAD DUP2 PUSH20 0xFFFFFFFFFFFFFFFFFFFFFFFFFFFFFFFFFFFFFFFF MUL NOT AND SWAP1 DUP4 PUSH20 0xFFFFFFFFFFFFFFFFFFFFFFFFFFFFFFFFFFFFFFFF AND MUL OR SWAP1 SSTORE POP PUSH1 0x0 PUSH1 0x1 PUSH1 0x0 PUSH2 0x100 EXP DUP2 SLOAD DUP2 PUSH20 0xFFFFFFFFFFFFFFFFFFFFFFFFFFFFFFFFFFFFFFFF MUL NOT AND SWAP1 DUP4 PUSH20 0xFFFFFFFFFFFFFFFFFFFFFFFFFFFFFFFFFFFFFFFF AND MUL OR SWAP1 SSTORE POP CALLER PUSH20 0xFFFFFFFFFFFFFFFFFFFFFFFFFFFFFFFFFFFFFFFF AND DUP2 PUSH20 0xFFFFFFFFFFFFFFFFFFFFFFFFFFFFFFFFFFFFFFFF AND PUSH32 0x8BE0079C531659141344CD1FD0A4F28419497F9722A3DAAFE3B4186F6B6457E0 PUSH1 0x40 MLOAD PUSH1 0x40 MLOAD DUP1 SWAP2 SUB SWAP1 LOG3 POP JUMP JUMPDEST PUSH1 0x0 DUP1 PUSH1 0x0 SWAP1 SLOAD SWAP1 PUSH2 0x100 EXP SWAP1 DIV PUSH20 0xFFFFFFFFFFFFFFFFFFFFFFFFFFFFFFFFFFFFFFFF AND SWAP1 POP SWAP1 JUMP JUMPDEST PUSH2 0xB50 PUSH2 0xBA7 JUMP JUMPDEST DUP1 PUSH1 0x2 PUSH1 0x0 DUP5 PUSH8 0xFFFFFFFFFFFFFFFF AND PUSH8 0xFFFFFFFFFFFFFFFF AND DUP2 MSTORE PUSH1 0x20 ADD SWAP1 DUP2 MSTORE PUSH1 0x20 ADD PUSH1 0x0 KECCAK256 PUSH1 0x0 PUSH2 0x100 EXP DUP2 SLOAD DUP2 PUSH1 0xFF MUL NOT AND SWAP1 DUP4 ISZERO ISZERO MUL OR SWAP1 SSTORE POP POP POP JUMP JUMPDEST PUSH2 0xB9B PUSH2 0xBA7 JUMP JUMPDEST PUSH2 0xBA4 DUP2 PUSH2 0xD3F JUMP JUMPDEST POP JUMP JUMPDEST PUSH1 0x0 DUP1 SLOAD SWAP1 PUSH2 0x100 EXP SWAP1 DIV PUSH20 0xFFFFFFFFFFFFFFFFFFFFFFFFFFFFFFFFFFFFFFFF AND PUSH20 0xFFFFFFFFFFFFFFFFFFFFFFFFFFFFFFFFFFFFFFFF AND CALLER PUSH20 0xFFFFFFFFFFFFFFFFFFFFFFFFFFFFFFFFFFFFFFFF AND EQ PUSH2 0xC35 JUMPI PUSH1 0x40 MLOAD PUSH32 0x8C379A000000000000000000000000000000000000000000000000000000000 DUP2 MSTORE PUSH1 0x4 ADD PUSH2 0xC2C SWAP1 PUSH2 0x1932 JUMP JUMPDEST PUSH1 0x40 MLOAD DUP1 SWAP2 SUB SWAP1 REVERT JUMPDEST JUMP JUMPDEST PUSH1 0x60 PUSH4 0x97A657C9 PUSH1 0xE0 SHL DUP3 PUSH1 0x40 MLOAD PUSH1 0x24 ADD PUSH2 0xC52 SWAP2 SWAP1 PUSH2 0x196E JUMP JUMPDEST PUSH1 0x40 MLOAD PUSH1 0x20 DUP2 DUP4 SUB SUB DUP2 MSTORE SWAP1 PUSH1 0x40 MSTORE SWAP1 PUSH28 0xFFFFFFFFFFFFFFFFFFFFFFFFFFFFFFFFFFFFFFFFFFFFFFFFFFFFFFFF NOT AND PUSH1 0x20 DUP3 ADD DUP1 MLOAD PUSH28 0xFFFFFFFFFFFFFFFFFFFFFFFFFFFFFFFFFFFFFFFFFFFFFFFFFFFFFFFF DUP4 DUP2 DUP4 AND OR DUP4 MSTORE POP POP POP POP SWAP1 POP SWAP2 SWAP1 POP JUMP JUMPDEST PUSH2 0xD39 DUP5 PUSH4 0x23B872DD PUSH1 0xE0 SHL DUP6 DUP6 DUP6 PUSH1 0x40 MLOAD PUSH1 0x24 ADD PUSH2 0xCD7 SWAP4 SWAP3 SWAP2 SWAP1 PUSH2 0x1989 JUMP JUMPDEST PUSH1 0x40 MLOAD PUSH1 0x20 DUP2 DUP4 SUB SUB DUP2 MSTORE SWAP1 PUSH1 0x40 MSTORE SWAP1 PUSH28 0xFFFFFFFFFFFFFFFFFFFFFFFFFFFFFFFFFFFFFFFFFFFFFFFFFFFFFFFF NOT AND PUSH1 0x20 DUP3 ADD DUP1 MLOAD PUSH28 0xFFFFFFFFFFFFFFFFFFFFFFFFFFFFFFFFFFFFFFFFFFFFFFFFFFFFFFFF DUP4 DUP2 DUP4 AND OR DUP4 MSTORE POP POP POP POP PUSH2 0xE6B JUMP JUMPDEST POP POP POP POP JUMP JUMPDEST CALLER PUSH20 0xFFFFFFFFFFFFFFFFFFFFFFFFFFFFFFFFFFFFFFFF AND DUP2 PUSH20 0xFFFFFFFFFFFFFFFFFFFFFFFFFFFFFFFFFFFFFFFF AND SUB PUSH2 0xDAD JUMPI PUSH1 0x40 MLOAD PUSH32 0x8C379A000000000000000000000000000000000000000000000000000000000 DUP2 MSTORE PUSH1 0x4 ADD PUSH2 0xDA4 SWAP1 PUSH2 0x1A0C JUMP JUMPDEST PUSH1 0x40 MLOAD DUP1 SWAP2 SUB SWAP1 REVERT JUMPDEST DUP1 PUSH1 0x1 PUSH1 0x0 PUSH2 0x100 EXP DUP2 SLOAD DUP2 PUSH20 0xFFFFFFFFFFFFFFFFFFFFFFFFFFFFFFFFFFFFFFFF MUL NOT AND SWAP1 DUP4 PUSH20 0xFFFFFFFFFFFFFFFFFFFFFFFFFFFFFFFFFFFFFFFF AND MUL OR SWAP1 SSTORE POP DUP1 PUSH20 0xFFFFFFFFFFFFFFFFFFFFFFFFFFFFFFFFFFFFFFFF AND PUSH1 0x0 DUP1 SLOAD SWAP1 PUSH2 0x100 EXP SWAP1 DIV PUSH20 0xFFFFFFFFFFFFFFFFFFFFFFFFFFFFFFFFFFFFFFFF AND PUSH20 0xFFFFFFFFFFFFFFFFFFFFFFFFFFFFFFFFFFFFFFFF AND PUSH32 0xED8889F560326EB138920D842192F0EB3DD22B4F139C87A2C57538E05BAE1278 PUSH1 0x40 MLOAD PUSH1 0x40 MLOAD DUP1 SWAP2 SUB SWAP1 LOG3 POP JUMP JUMPDEST PUSH1 0x0 PUSH2 0xECD DUP3 PUSH1 0x40 MLOAD DUP1 PUSH1 0x40 ADD PUSH1 0x40 MSTORE DUP1 PUSH1 0x20 DUP2 MSTORE PUSH1 0x20 ADD PUSH32 0x5361666545524332303A206C6F772D6C6576656C2063616C6C206661696C6564 DUP2 MSTORE POP DUP6 PUSH20 0xFFFFFFFFFFFFFFFFFFFFFFFFFFFFFFFFFFFFFFFF AND PUSH2 0xF32 SWAP1 SWAP3 SWAP2 SWAP1 PUSH4 0xFFFFFFFF AND JUMP JUMPDEST SWAP1 POP PUSH1 0x0 DUP2 MLOAD GT ISZERO PUSH2 0xF2D JUMPI DUP1 DUP1 PUSH1 0x20 ADD SWAP1 MLOAD DUP2 ADD SWAP1 PUSH2 0xEED SWAP2 SWAP1 PUSH2 0x1498 JUMP JUMPDEST PUSH2 0xF2C JUMPI PUSH1 0x40 MLOAD PUSH32 0x8C379A000000000000000000000000000000000000000000000000000000000 DUP2 MSTORE PUSH1 0x4 ADD PUSH2 0xF23 SWAP1 PUSH2 0x1A9E JUMP JUMPDEST PUSH1 0x40 MLOAD DUP1 SWAP2 SUB SWAP1 REVERT JUMPDEST JUMPDEST POP POP POP JUMP JUMPDEST PUSH1 0x60 PUSH2 0xF41 DUP5 DUP5 PUSH1 0x0 DUP6 PUSH2 0xF4A JUMP JUMPDEST SWAP1 POP SWAP4 SWAP3 POP POP POP JUMP JUMPDEST PUSH1 0x60 DUP3 SELFBALANCE LT ISZERO PUSH2 0xF8F JUMPI PUSH1 0x40 MLOAD PUSH32 0x8C379A000000000000000000000000000000000000000000000000000000000 DUP2 MSTORE PUSH1 0x4 ADD PUSH2 0xF86 SWAP1 PUSH2 0x1B30 JUMP JUMPDEST PUSH1 0x40 MLOAD DUP1 SWAP2 SUB SWAP1 REVERT JUMPDEST PUSH1 0x0 DUP1 DUP7 PUSH20 0xFFFFFFFFFFFFFFFFFFFFFFFFFFFFFFFFFFFFFFFF AND DUP6 DUP8 PUSH1 0x40 MLOAD PUSH2 0xFB8 SWAP2 SWAP1 PUSH2 0x1B8C JUMP JUMPDEST PUSH1 0x0 PUSH1 0x40 MLOAD DUP1 DUP4 SUB DUP2 DUP6 DUP8 GAS CALL SWAP3 POP POP POP RETURNDATASIZE DUP1 PUSH1 0x0 DUP2 EQ PUSH2 0xFF5 JUMPI PUSH1 0x40 MLOAD SWAP2 POP PUSH1 0x1F NOT PUSH1 0x3F RETURNDATASIZE ADD AND DUP3 ADD PUSH1 0x40 MSTORE RETURNDATASIZE DUP3 MSTORE RETURNDATASIZE PUSH1 0x0 PUSH1 0x20 DUP5 ADD RETURNDATACOPY PUSH2 0xFFA JUMP JUMPDEST PUSH1 0x60 SWAP2 POP JUMPDEST POP SWAP2 POP SWAP2 POP PUSH2 0x100B DUP8 DUP4 DUP4 DUP8 PUSH2 0x1017 JUMP JUMPDEST SWAP3 POP POP POP SWAP5 SWAP4 POP POP POP POP JUMP JUMPDEST PUSH1 0x60 DUP4 ISZERO PUSH2 0x1079 JUMPI PUSH1 0x0 DUP4 MLOAD SUB PUSH2 0x1071 JUMPI PUSH2 0x1031 DUP6 PUSH2 0x108C JUMP JUMPDEST PUSH2 0x1070 JUMPI PUSH1 0x40 MLOAD PUSH32 0x8C379A000000000000000000000000000000000000000000000000000000000 DUP2 MSTORE PUSH1 0x4 ADD PUSH2 0x1067 SWAP1 PUSH2 0x1BEF JUMP JUMPDEST PUSH1 0x40 MLOAD DUP1 SWAP2 SUB SWAP1 REVERT JUMPDEST JUMPDEST DUP3 SWAP1 POP PUSH2 0x1084 JUMP JUMPDEST PUSH2 0x1083 DUP4 DUP4 PUSH2 0x10AF JUMP JUMPDEST JUMPDEST SWAP5 SWAP4 POP POP POP POP JUMP JUMPDEST PUSH1 0x0 DUP1 DUP3 PUSH20 0xFFFFFFFFFFFFFFFFFFFFFFFFFFFFFFFFFFFFFFFF AND EXTCODESIZE GT SWAP1 POP SWAP2 SWAP1 POP JUMP JUMPDEST PUSH1 0x0 DUP3 MLOAD GT ISZERO PUSH2 0x10C2 JUMPI DUP2 MLOAD DUP1 DUP4 PUSH1 0x20 ADD REVERT JUMPDEST DUP1 PUSH1 0x40 MLOAD PUSH32 0x8C379A000000000000000000000000000000000000000000000000000000000 DUP2 MSTORE PUSH1 0x4 ADD PUSH2 0x10F6 SWAP2 SWAP1 PUSH2 0x1C53 JUMP JUMPDEST PUSH1 0x40 MLOAD DUP1 SWAP2 SUB SWAP1 REVERT JUMPDEST PUSH1 0x40 MLOAD DUP1 PUSH1 0x40 ADD PUSH1 0x40 MSTORE DUP1 PUSH1 0x0 PUSH20 0xFFFFFFFFFFFFFFFFFFFFFFFFFFFFFFFFFFFFFFFF AND DUP2 MSTORE PUSH1 0x20 ADD PUSH1 0x0 DUP2 MSTORE POP SWAP1 JUMP JUMPDEST PUSH1 0x0 DUP1 REVERT JUMPDEST PUSH1 0x0 PUSH8 0xFFFFFFFFFFFFFFFF DUP3 AND SWAP1 POP SWAP2 SWAP1 POP JUMP JUMPDEST PUSH2 0x1151 DUP2 PUSH2 0x1134 JUMP JUMPDEST DUP2 EQ PUSH2 0x115C JUMPI PUSH1 0x0 DUP1 REVERT JUMPDEST POP JUMP JUMPDEST PUSH1 0x0 DUP2 CALLDATALOAD SWAP1 POP PUSH2 0x116E DUP2 PUSH2 0x1148 JUMP JUMPDEST SWAP3 SWAP2 POP POP JUMP JUMPDEST PUSH1 0x0 PUSH1 0x20 DUP3 DUP5 SUB SLT ISZERO PUSH2 0x118A JUMPI PUSH2 0x1189 PUSH2 0x112F JUMP JUMPDEST JUMPDEST PUSH1 0x0 PUSH2 0x1198 DUP5 DUP3 DUP6 ADD PUSH2 0x115F JUMP JUMPDEST SWAP2 POP POP SWAP3 SWAP2 POP POP JUMP JUMPDEST PUSH1 0x0 DUP2 ISZERO ISZERO SWAP1 POP SWAP2 SWAP1 POP JUMP JUMPDEST PUSH2 0x11B6 DUP2 PUSH2 0x11A1 JUMP JUMPDEST DUP3 MSTORE POP POP JUMP JUMPDEST PUSH1 0x0 PUSH1 0x20 DUP3 ADD SWAP1 POP PUSH2 0x11D1 PUSH1 0x0 DUP4 ADD DUP5 PUSH2 0x11AD JUMP JUMPDEST SWAP3 SWAP2 POP POP JUMP JUMPDEST PUSH1 0x0 PUSH20 0xFFFFFFFFFFFFFFFFFFFFFFFFFFFFFFFFFFFFFFFF DUP3 AND SWAP1 POP SWAP2 SWAP1 POP JUMP JUMPDEST PUSH1 0x0 PUSH2 0x1202 DUP3 PUSH2 0x11D7 JUMP JUMPDEST SWAP1 POP SWAP2 SWAP1 POP JUMP JUMPDEST PUSH2 0x1212 DUP2 PUSH2 0x11F7 JUMP JUMPDEST DUP2 EQ PUSH2 0x121D JUMPI PUSH1 0x0 DUP1 REVERT JUMPDEST POP JUMP JUMPDEST PUSH1 0x0 DUP2 CALLDATALOAD SWAP1 POP PUSH2 0x122F DUP2 PUSH2 0x1209 JUMP JUMPDEST SWAP3 SWAP2 POP POP JUMP JUMPDEST PUSH1 0x0 DUP1 PUSH1 0x40 DUP4 DUP6 SUB SLT ISZERO PUSH2 0x124C JUMPI PUSH2 0x124B PUSH2 0x112F JUMP JUMPDEST JUMPDEST PUSH1 0x0 PUSH2 0x125A DUP6 DUP3 DUP7 ADD PUSH2 0x1220 JUMP JUMPDEST SWAP3 POP POP PUSH1 0x20 PUSH2 0x126B DUP6 DUP3 DUP7 ADD PUSH2 0x1220 JUMP JUMPDEST SWAP2 POP POP SWAP3 POP SWAP3 SWAP1 POP JUMP JUMPDEST PUSH1 0x0 DUP2 SWAP1 POP SWAP2 SWAP1 POP JUMP JUMPDEST PUSH2 0x1288 DUP2 PUSH2 0x1275 JUMP JUMPDEST DUP2 EQ PUSH2 0x1293 JUMPI PUSH1 0x0 DUP1 REVERT JUMPDEST POP JUMP JUMPDEST PUSH1 0x0 DUP2 CALLDATALOAD SWAP1 POP PUSH2 0x12A5 DUP2 PUSH2 0x127F JUMP JUMPDEST SWAP3 SWAP2 POP POP JUMP JUMPDEST PUSH1 0x0 DUP1 PUSH1 0x0 DUP1 PUSH1 0x80 DUP6 DUP8 SUB SLT ISZERO PUSH2 0x12C5 JUMPI PUSH2 0x12C4 PUSH2 0x112F JUMP JUMPDEST JUMPDEST PUSH1 0x0 PUSH2 0x12D3 DUP8 DUP3 DUP9 ADD PUSH2 0x115F JUMP JUMPDEST SWAP5 POP POP PUSH1 0x20 PUSH2 0x12E4 DUP8 DUP3 DUP9 ADD PUSH2 0x1220 JUMP JUMPDEST SWAP4 POP POP PUSH1 0x40 PUSH2 0x12F5 DUP8 DUP3 DUP9 ADD PUSH2 0x1296 JUMP JUMPDEST SWAP3 POP POP PUSH1 0x60 PUSH2 0x1306 DUP8 DUP3 DUP9 ADD PUSH2 0x115F JUMP JUMPDEST SWAP2 POP POP SWAP3 SWAP6 SWAP2 SWAP5 POP SWAP3 POP JUMP JUMPDEST PUSH1 0x0 DUP2 SWAP1 POP SWAP2 SWAP1 POP JUMP JUMPDEST PUSH2 0x1325 DUP2 PUSH2 0x1312 JUMP JUMPDEST DUP3 MSTORE POP POP JUMP JUMPDEST PUSH1 0x0 PUSH1 0x20 DUP3 ADD SWAP1 POP PUSH2 0x1340 PUSH1 0x0 DUP4 ADD DUP5 PUSH2 0x131C JUMP JUMPDEST SWAP3 SWAP2 POP POP JUMP JUMPDEST PUSH2 0x134F DUP2 PUSH2 0x11F7 JUMP JUMPDEST DUP3 MSTORE POP POP JUMP JUMPDEST PUSH1 0x0 PUSH1 0x20 DUP3 ADD SWAP1 POP PUSH2 0x136A PUSH1 0x0 DUP4 ADD DUP5 PUSH2 0x1346 JUMP JUMPDEST SWAP3 SWAP2 POP POP JUMP JUMPDEST PUSH2 0x1379 DUP2 PUSH2 0x11A1 JUMP JUMPDEST DUP2 EQ PUSH2 0x1384 JUMPI PUSH1 0x0 DUP1 REVERT JUMPDEST POP JUMP JUMPDEST PUSH1 0x0 DUP2 CALLDATALOAD SWAP1 POP PUSH2 0x1396 DUP2 PUSH2 0x1370 JUMP JUMPDEST SWAP3 SWAP2 POP POP JUMP JUMPDEST PUSH1 0x0 DUP1 PUSH1 0x40 DUP4 DUP6 SUB SLT ISZERO PUSH2 0x13B3 JUMPI PUSH2 0x13B2 PUSH2 0x112F JUMP JUMPDEST JUMPDEST PUSH1 0x0 PUSH2 0x13C1 DUP6 DUP3 DUP7 ADD PUSH2 0x115F JUMP JUMPDEST SWAP3 POP POP PUSH1 0x20 PUSH2 0x13D2 DUP6 DUP3 DUP7 ADD PUSH2 0x1387 JUMP JUMPDEST SWAP2 POP POP SWAP3 POP SWAP3 SWAP1 POP JUMP JUMPDEST PUSH1 0x0 PUSH1 0x20 DUP3 DUP5 SUB SLT ISZERO PUSH2 0x13F2 JUMPI PUSH2 0x13F1 PUSH2 0x112F JUMP JUMPDEST JUMPDEST PUSH1 0x0 PUSH2 0x1400 DUP5 DUP3 DUP6 ADD PUSH2 0x1220 JUMP JUMPDEST SWAP2 POP POP SWAP3 SWAP2 POP POP JUMP JUMPDEST PUSH1 0x0 DUP2 MLOAD SWAP1 POP PUSH2 0x1418 DUP2 PUSH2 0x127F JUMP JUMPDEST SWAP3 SWAP2 POP POP JUMP JUMPDEST PUSH1 0x0 PUSH1 0x20 DUP3 DUP5 SUB SLT ISZERO PUSH2 0x1434 JUMPI PUSH2 0x1433 PUSH2 0x112F JUMP JUMPDEST JUMPDEST PUSH1 0x0 PUSH2 0x1442 DUP5 DUP3 DUP6 ADD PUSH2 0x1409 JUMP JUMPDEST SWAP2 POP POP SWAP3 SWAP2 POP POP JUMP JUMPDEST PUSH2 0x1454 DUP2 PUSH2 0x1275 JUMP JUMPDEST DUP3 MSTORE POP POP JUMP JUMPDEST PUSH1 0x0 PUSH1 0x40 DUP3 ADD SWAP1 POP PUSH2 0x146F PUSH1 0x0 DUP4 ADD DUP6 PUSH2 0x1346 JUMP JUMPDEST PUSH2 0x147C PUSH1 0x20 DUP4 ADD DUP5 PUSH2 0x144B JUMP JUMPDEST SWAP4 SWAP3 POP POP POP JUMP JUMPDEST PUSH1 0x0 DUP2 MLOAD SWAP1 POP PUSH2 0x1492 DUP2 PUSH2 0x1370 JUMP JUMPDEST SWAP3 SWAP2 POP POP JUMP JUMPDEST PUSH1 0x0 PUSH1 0x20 DUP3 DUP5 SUB SLT ISZERO PUSH2 0x14AE JUMPI PUSH2 0x14AD PUSH2 0x112F JUMP JUMPDEST JUMPDEST PUSH1 0x0 PUSH2 0x14BC DUP5 DUP3 DUP6 ADD PUSH2 0x1483 JUMP JUMPDEST SWAP2 POP POP SWAP3 SWAP2 POP POP JUMP JUMPDEST PUSH2 0x14CE DUP2 PUSH2 0x1134 JUMP JUMPDEST DUP3 MSTORE POP POP JUMP JUMPDEST PUSH1 0x0 PUSH1 0x20 DUP3 ADD SWAP1 POP PUSH2 0x14E9 PUSH1 0x0 DUP4 ADD DUP5 PUSH2 0x14C5 JUMP JUMPDEST SWAP3 SWAP2 POP POP JUMP JUMPDEST PUSH32 0x4E487B7100000000000000000000000000000000000000000000000000000000 PUSH1 0x0 MSTORE PUSH1 0x41 PUSH1 0x4 MSTORE PUSH1 0x24 PUSH1 0x0 REVERT JUMPDEST PUSH32 0x4E487B7100000000000000000000000000000000000000000000000000000000 PUSH1 0x0 MSTORE PUSH1 0x32 PUSH1 0x4 MSTORE PUSH1 0x24 PUSH1 0x0 REVERT JUMPDEST PUSH1 0x0 DUP2 MLOAD SWAP1 POP SWAP2 SWAP1 POP JUMP JUMPDEST PUSH1 0x0 DUP3 DUP3 MSTORE PUSH1 0x20 DUP3 ADD SWAP1 POP SWAP3 SWAP2 POP POP JUMP JUMPDEST PUSH1 0x0 JUMPDEST DUP4 DUP2 LT ISZERO PUSH2 0x1587 JUMPI DUP1 DUP3 ADD MLOAD DUP2 DUP5 ADD MSTORE PUSH1 0x20 DUP2 ADD SWAP1 POP PUSH2 0x156C JUMP JUMPDEST PUSH1 0x0 DUP5 DUP5 ADD MSTORE POP POP POP POP JUMP JUMPDEST PUSH1 0x0 PUSH1 0x1F NOT PUSH1 0x1F DUP4 ADD AND SWAP1 POP SWAP2 SWAP1 POP JUMP JUMPDEST PUSH1 0x0 PUSH2 0x15AF DUP3 PUSH2 0x154D JUMP JUMPDEST PUSH2 0x15B9 DUP2 DUP6 PUSH2 0x1558 JUMP JUMPDEST SWAP4 POP PUSH2 0x15C9 DUP2 DUP6 PUSH1 0x20 DUP7 ADD PUSH2 0x1569 JUMP JUMPDEST PUSH2 0x15D2 DUP2 PUSH2 0x1593 JUMP JUMPDEST DUP5 ADD SWAP2 POP POP SWAP3 SWAP2 POP POP JUMP JUMPDEST PUSH1 0x0 DUP2 MLOAD SWAP1 POP SWAP2 SWAP1 POP JUMP JUMPDEST PUSH1 0x0 DUP3 DUP3 MSTORE PUSH1 0x20 DUP3 ADD SWAP1 POP SWAP3 SWAP2 POP POP JUMP JUMPDEST PUSH1 0x0 DUP2 SWAP1 POP PUSH1 0x20 DUP3 ADD SWAP1 POP SWAP2 SWAP1 POP JUMP JUMPDEST PUSH2 0x1612 DUP2 PUSH2 0x11F7 JUMP JUMPDEST DUP3 MSTORE POP POP JUMP JUMPDEST PUSH2 0x1621 DUP2 PUSH2 0x1275 JUMP JUMPDEST DUP3 MSTORE POP POP JUMP JUMPDEST PUSH1 0x40 DUP3 ADD PUSH1 0x0 DUP3 ADD MLOAD PUSH2 0x163D PUSH1 0x0 DUP6 ADD DUP3 PUSH2 0x1609 JUMP JUMPDEST POP PUSH1 0x20 DUP3 ADD MLOAD PUSH2 0x1650 PUSH1 0x20 DUP6 ADD DUP3 PUSH2 0x1618 JUMP JUMPDEST POP POP POP POP JUMP JUMPDEST PUSH1 0x0 PUSH2 0x1662 DUP4 DUP4 PUSH2 0x1627 JUMP JUMPDEST PUSH1 0x40 DUP4 ADD SWAP1 POP SWAP3 SWAP2 POP POP JUMP JUMPDEST PUSH1 0x0 PUSH1 0x20 DUP3 ADD SWAP1 POP SWAP2 SWAP1 POP JUMP JUMPDEST PUSH1 0x0 PUSH2 0x1686 DUP3 PUSH2 0x15DD JUMP JUMPDEST PUSH2 0x1690 DUP2 DUP6 PUSH2 0x15E8 JUMP JUMPDEST SWAP4 POP PUSH2 0x169B DUP4 PUSH2 0x15F9 JUMP JUMPDEST DUP1 PUSH1 0x0 JUMPDEST DUP4 DUP2 LT ISZERO PUSH2 0x16CC JUMPI DUP2 MLOAD PUSH2 0x16B3 DUP9 DUP3 PUSH2 0x1656 JUMP JUMPDEST SWAP8 POP PUSH2 0x16BE DUP4 PUSH2 0x166E JUMP JUMPDEST SWAP3 POP POP PUSH1 0x1 DUP2 ADD SWAP1 POP PUSH2 0x169F JUMP JUMPDEST POP DUP6 SWAP4 POP POP POP POP SWAP3 SWAP2 POP POP JUMP JUMPDEST PUSH1 0x0 PUSH1 0xA0 DUP4 ADD PUSH1 0x0 DUP4 ADD MLOAD DUP5 DUP3 SUB PUSH1 0x0 DUP7 ADD MSTORE PUSH2 0x16F6 DUP3 DUP3 PUSH2 0x15A4 JUMP JUMPDEST SWAP2 POP POP PUSH1 0x20 DUP4 ADD MLOAD DUP5 DUP3 SUB PUSH1 0x20 DUP7 ADD MSTORE PUSH2 0x1710 DUP3 DUP3 PUSH2 0x15A4 JUMP JUMPDEST SWAP2 POP POP PUSH1 0x40 DUP4 ADD MLOAD DUP5 DUP3 SUB PUSH1 0x40 DUP7 ADD MSTORE PUSH2 0x172A DUP3 DUP3 PUSH2 0x167B JUMP JUMPDEST SWAP2 POP POP PUSH1 0x60 DUP4 ADD MLOAD PUSH2 0x173F PUSH1 0x60 DUP7 ADD DUP3 PUSH2 0x1609 JUMP JUMPDEST POP PUSH1 0x80 DUP4 ADD MLOAD DUP5 DUP3 SUB PUSH1 0x80 DUP7 ADD MSTORE PUSH2 0x1757 DUP3 DUP3 PUSH2 0x15A4 JUMP JUMPDEST SWAP2 POP POP DUP1 SWAP2 POP POP SWAP3 SWAP2 POP POP JUMP JUMPDEST PUSH1 0x0 PUSH1 0x40 DUP3 ADD SWAP1 POP PUSH2 0x1779 PUSH1 0x0 DUP4 ADD DUP6 PUSH2 0x14C5 JUMP JUMPDEST DUP2 DUP2 SUB PUSH1 0x20 DUP4 ADD MSTORE PUSH2 0x178B DUP2 DUP5 PUSH2 0x16D9 JUMP JUMPDEST SWAP1 POP SWAP4 SWAP3 POP POP POP JUMP JUMPDEST PUSH1 0x0 PUSH1 0x40 DUP3 ADD SWAP1 POP PUSH2 0x17A9 PUSH1 0x0 DUP4 ADD DUP6 PUSH2 0x144B JUMP JUMPDEST PUSH2 0x17B6 PUSH1 0x20 DUP4 ADD DUP5 PUSH2 0x144B JUMP JUMPDEST SWAP4 SWAP3 POP POP POP JUMP JUMPDEST PUSH2 0x17C6 DUP2 PUSH2 0x1312 JUMP JUMPDEST DUP2 EQ PUSH2 0x17D1 JUMPI PUSH1 0x0 DUP1 REVERT JUMPDEST POP JUMP JUMPDEST PUSH1 0x0 DUP2 MLOAD SWAP1 POP PUSH2 0x17E3 DUP2 PUSH2 0x17BD JUMP JUMPDEST SWAP3 SWAP2 POP POP JUMP JUMPDEST PUSH1 0x0 PUSH1 0x20 DUP3 DUP5 SUB SLT ISZERO PUSH2 0x17FF JUMPI PUSH2 0x17FE PUSH2 0x112F JUMP JUMPDEST JUMPDEST PUSH1 0x0 PUSH2 0x180D DUP5 DUP3 DUP6 ADD PUSH2 0x17D4 JUMP JUMPDEST SWAP2 POP POP SWAP3 SWAP2 POP POP JUMP JUMPDEST PUSH1 0x0 PUSH1 0xA0 DUP3 ADD SWAP1 POP PUSH2 0x182B PUSH1 0x0 DUP4 ADD DUP9 PUSH2 0x131C JUMP JUMPDEST PUSH2 0x1838 PUSH1 0x20 DUP4 ADD DUP8 PUSH2 0x14C5 JUMP JUMPDEST PUSH2 0x1845 PUSH1 0x40 DUP4 ADD DUP7 PUSH2 0x1346 JUMP JUMPDEST PUSH2 0x1852 PUSH1 0x60 DUP4 ADD DUP6 PUSH2 0x144B JUMP JUMPDEST PUSH2 0x185F PUSH1 0x80 DUP4 ADD DUP5 PUSH2 0x144B JUMP JUMPDEST SWAP7 SWAP6 POP POP POP POP POP POP JUMP JUMPDEST PUSH1 0x0 DUP3 DUP3 MSTORE PUSH1 0x20 DUP3 ADD SWAP1 POP SWAP3 SWAP2 POP POP JUMP JUMPDEST PUSH32 0x4D7573742062652070726F706F736564206F776E657200000000000000000000 PUSH1 0x0 DUP3 ADD MSTORE POP JUMP JUMPDEST PUSH1 0x0 PUSH2 0x18B0 PUSH1 0x16 DUP4 PUSH2 0x1869 JUMP JUMPDEST SWAP2 POP PUSH2 0x18BB DUP3 PUSH2 0x187A JUMP JUMPDEST PUSH1 0x20 DUP3 ADD SWAP1 POP SWAP2 SWAP1 POP JUMP JUMPDEST PUSH1 0x0 PUSH1 0x20 DUP3 ADD SWAP1 POP DUP2 DUP2 SUB PUSH1 0x0 DUP4 ADD MSTORE PUSH2 0x18DF DUP2 PUSH2 0x18A3 JUMP JUMPDEST SWAP1 POP SWAP2 SWAP1 POP JUMP JUMPDEST PUSH32 0x4F6E6C792063616C6C61626C65206279206F776E657200000000000000000000 PUSH1 0x0 DUP3 ADD MSTORE POP JUMP JUMPDEST PUSH1 0x0 PUSH2 0x191C PUSH1 0x16 DUP4 PUSH2 0x1869 JUMP JUMPDEST SWAP2 POP PUSH2 0x1927 DUP3 PUSH2 0x18E6 JUMP JUMPDEST PUSH1 0x20 DUP3 ADD SWAP1 POP SWAP2 SWAP1 POP JUMP JUMPDEST PUSH1 0x0 PUSH1 0x20 DUP3 ADD SWAP1 POP DUP2 DUP2 SUB PUSH1 0x0 DUP4 ADD MSTORE PUSH2 0x194B DUP2 PUSH2 0x190F JUMP JUMPDEST SWAP1 POP SWAP2 SWAP1 POP JUMP JUMPDEST PUSH1 0x20 DUP3 ADD PUSH1 0x0 DUP3 ADD MLOAD PUSH2 0x1968 PUSH1 0x0 DUP6 ADD DUP3 PUSH2 0x1618 JUMP JUMPDEST POP POP POP POP JUMP JUMPDEST PUSH1 0x0 PUSH1 0x20 DUP3 ADD SWAP1 POP PUSH2 0x1983 PUSH1 0x0 DUP4 ADD DUP5 PUSH2 0x1952 JUMP JUMPDEST SWAP3 SWAP2 POP POP JUMP JUMPDEST PUSH1 0x0 PUSH1 0x60 DUP3 ADD SWAP1 POP PUSH2 0x199E PUSH1 0x0 DUP4 ADD DUP7 PUSH2 0x1346 JUMP JUMPDEST PUSH2 0x19AB PUSH1 0x20 DUP4 ADD DUP6 PUSH2 0x1346 JUMP JUMPDEST PUSH2 0x19B8 PUSH1 0x40 DUP4 ADD DUP5 PUSH2 0x144B JUMP JUMPDEST SWAP5 SWAP4 POP POP POP POP JUMP JUMPDEST PUSH32 0x43616E6E6F74207472616E7366657220746F2073656C66000000000000000000 PUSH1 0x0 DUP3 ADD MSTORE POP JUMP JUMPDEST PUSH1 0x0 PUSH2 0x19F6 PUSH1 0x17 DUP4 PUSH2 0x1869 JUMP JUMPDEST SWAP2 POP PUSH2 0x1A01 DUP3 PUSH2 0x19C0 JUMP JUMPDEST PUSH1 0x20 DUP3 ADD SWAP1 POP SWAP2 SWAP1 POP JUMP JUMPDEST PUSH1 0x0 PUSH1 0x20 DUP3 ADD SWAP1 POP DUP2 DUP2 SUB PUSH1 0x0 DUP4 ADD MSTORE PUSH2 0x1A25 DUP2 PUSH2 0x19E9 JUMP JUMPDEST SWAP1 POP SWAP2 SWAP1 POP JUMP JUMPDEST PUSH32 0x5361666545524332303A204552433230206F7065726174696F6E20646964206E PUSH1 0x0 DUP3 ADD MSTORE PUSH32 0x6F74207375636365656400000000000000000000000000000000000000000000 PUSH1 0x20 DUP3 ADD MSTORE POP JUMP JUMPDEST PUSH1 0x0 PUSH2 0x1A88 PUSH1 0x2A DUP4 PUSH2 0x1869 JUMP JUMPDEST SWAP2 POP PUSH2 0x1A93 DUP3 PUSH2 0x1A2C JUMP JUMPDEST PUSH1 0x40 DUP3 ADD SWAP1 POP SWAP2 SWAP1 POP JUMP JUMPDEST PUSH1 0x0 PUSH1 0x20 DUP3 ADD SWAP1 POP DUP2 DUP2 SUB PUSH1 0x0 DUP4 ADD MSTORE PUSH2 0x1AB7 DUP2 PUSH2 0x1A7B JUMP JUMPDEST SWAP1 POP SWAP2 SWAP1 POP JUMP JUMPDEST PUSH32 0x416464726573733A20696E73756666696369656E742062616C616E636520666F PUSH1 0x0 DUP3 ADD MSTORE PUSH32 0x722063616C6C0000000000000000000000000000000000000000000000000000 PUSH1 0x20 DUP3 ADD MSTORE POP JUMP JUMPDEST PUSH1 0x0 PUSH2 0x1B1A PUSH1 0x26 DUP4 PUSH2 0x1869 JUMP JUMPDEST SWAP2 POP PUSH2 0x1B25 DUP3 PUSH2 0x1ABE JUMP JUMPDEST PUSH1 0x40 DUP3 ADD SWAP1 POP SWAP2 SWAP1 POP JUMP JUMPDEST PUSH1 0x0 PUSH1 0x20 DUP3 ADD SWAP1 POP DUP2 DUP2 SUB PUSH1 0x0 DUP4 ADD MSTORE PUSH2 0x1B49 DUP2 PUSH2 0x1B0D JUMP JUMPDEST SWAP1 POP SWAP2 SWAP1 POP JUMP JUMPDEST PUSH1 0x0 DUP2 SWAP1 POP SWAP3 SWAP2 POP POP JUMP JUMPDEST PUSH1 0x0 PUSH2 0x1B66 DUP3 PUSH2 0x154D JUMP JUMPDEST PUSH2 0x1B70 DUP2 DUP6 PUSH2 0x1B50 JUMP JUMPDEST SWAP4 POP PUSH2 0x1B80 DUP2 DUP6 PUSH1 0x20 DUP7 ADD PUSH2 0x1569 JUMP JUMPDEST DUP1 DUP5 ADD SWAP2 POP POP SWAP3 SWAP2 POP POP JUMP JUMPDEST PUSH1 0x0 PUSH2 0x1B98 DUP3 DUP5 PUSH2 0x1B5B JUMP JUMPDEST SWAP2 POP DUP2 SWAP1 POP SWAP3 SWAP2 POP POP JUMP JUMPDEST PUSH32 0x416464726573733A2063616C6C20746F206E6F6E2D636F6E7472616374000000 PUSH1 0x0 DUP3 ADD MSTORE POP JUMP JUMPDEST PUSH1 0x0 PUSH2 0x1BD9 PUSH1 0x1D DUP4 PUSH2 0x1869 JUMP JUMPDEST SWAP2 POP PUSH2 0x1BE4 DUP3 PUSH2 0x1BA3 JUMP JUMPDEST PUSH1 0x20 DUP3 ADD SWAP1 POP SWAP2 SWAP1 POP JUMP JUMPDEST PUSH1 0x0 PUSH1 0x20 DUP3 ADD SWAP1 POP DUP2 DUP2 SUB PUSH1 0x0 DUP4 ADD MSTORE PUSH2 0x1C08 DUP2 PUSH2 0x1BCC JUMP JUMPDEST SWAP1 POP SWAP2 SWAP1 POP JUMP JUMPDEST PUSH1 0x0 DUP2 MLOAD SWAP1 POP SWAP2 SWAP1 POP JUMP JUMPDEST PUSH1 0x0 PUSH2 0x1C25 DUP3 PUSH2 0x1C0F JUMP JUMPDEST PUSH2 0x1C2F DUP2 DUP6 PUSH2 0x1869 JUMP JUMPDEST SWAP4 POP PUSH2 0x1C3F DUP2 DUP6 PUSH1 0x20 DUP7 ADD PUSH2 0x1569 JUMP JUMPDEST PUSH2 0x1C48 DUP2 PUSH2 0x1593 JUMP JUMPDEST DUP5 ADD SWAP2 POP POP SWAP3 SWAP2 POP POP JUMP JUMPDEST PUSH1 0x0 PUSH1 0x20 DUP3 ADD SWAP1 POP DUP2 DUP2 SUB PUSH1 0x0 DUP4 ADD MSTORE PUSH2 0x1C6D DUP2 DUP5 PUSH2 0x1C1A JUMP JUMPDEST SWAP1 POP SWAP3 SWAP2 POP POP JUMP INVALID LOG2 PUSH5 0x6970667358 0x22 SLT KECCAK256 0xC0 RETURNDATASIZE SWAP6 PUSH17 0x507DE331132124189C43926EB9C3F4DA28 SWAP8 0x1E 0x22 0xBA 0xE1 SWAP11 SWAP4 ADDRESS CALLER PUSH30 0x1964736F6C63430008140033000000000000000000000000000000000000 "
				},
				"gasEstimates": {
					"creation": {
						"codeDepositCost": "1467800",
						"executionCost": "infinite",
						"totalCost": "infinite"
					},
					"external": {
						"acceptOwnership()": "54540",
						"allowlistDestinationChain(uint64,bool)": "27183",
						"allowlistedChains(uint64)": "2803",
						"owner()": "2544",
						"transferOwnership(address)": "30720",
						"transferUsdc(uint64,address,uint256,uint64)": "infinite",
						"withdrawToken(address,address)": "infinite"
					}
				},
				"methodIdentifiers": {
					"acceptOwnership()": "79ba5097",
					"allowlistDestinationChain(uint64,bool)": "96d3b83d",
					"allowlistedChains(uint64)": "0bb106eb",
					"owner()": "8da5cb5b",
					"transferOwnership(address)": "f2fde38b",
					"transferUsdc(uint64,address,uint256,uint64)": "6b83161a",
					"withdrawToken(address,address)": "3aeac4e1"
				}
			},
			"storageLayout": {
				"storage": [
					{
						"astId": 137,
						"contract": "Exercise4/TransferUSDC.sol:TransferUSDC",
						"label": "s_owner",
						"offset": 0,
						"slot": "0",
						"type": "t_address"
					},
					{
						"astId": 139,
						"contract": "Exercise4/TransferUSDC.sol:TransferUSDC",
						"label": "s_pendingOwner",
						"offset": 0,
						"slot": "1",
						"type": "t_address"
					},
					{
						"astId": 1092,
						"contract": "Exercise4/TransferUSDC.sol:TransferUSDC",
						"label": "allowlistedChains",
						"offset": 0,
						"slot": "2",
						"type": "t_mapping(t_uint64,t_bool)"
					}
				],
				"types": {
					"t_address": {
						"encoding": "inplace",
						"label": "address",
						"numberOfBytes": "20"
					},
					"t_bool": {
						"encoding": "inplace",
						"label": "bool",
						"numberOfBytes": "1"
					},
					"t_mapping(t_uint64,t_bool)": {
						"encoding": "mapping",
						"key": "t_uint64",
						"label": "mapping(uint64 => bool)",
						"numberOfBytes": "32",
						"value": "t_bool"
					},
					"t_uint64": {
						"encoding": "inplace",
						"label": "uint64",
						"numberOfBytes": "8"
					}
				}
			},
			"userdoc": {
				"kind": "user",
				"methods": {
					"acceptOwnership()": {
						"notice": "Allows an ownership transfer to be completed by the recipient."
					},
					"owner()": {
						"notice": "Get the current owner"
					},
					"transferOwnership(address)": {
						"notice": "Allows an owner to begin transferring ownership to a new address."
					}
				},
				"notice": "THIS IS AN EXAMPLE CONTRACT THAT USES HARDCODED VALUES FOR CLARITY. THIS IS AN EXAMPLE CONTRACT THAT USES UN-AUDITED CODE. DO NOT USE THIS CODE IN PRODUCTION.",
				"version": 1
			}
		}
	}
}